:020000040800F2
:10000000286A002069020008A13F0008A5390008FD
:10001000613F0008AD0700085D6D000800000000AA
:10002000000000000000000000000000B1470008D0
:10003000ED0A000800000000D1450008054800084E
:10004000830200088302000883020008830200087C
:10005000830200088302000883020008830200086C
:10006000830200088302000883020008830200085C
:10007000F109000883020008010A00088302000851
:10008000110A0008210A000883020008C1070008BD
:10009000B1070008830200088302000883020008F9
:1000A000830200088302000883020008830200081C
:1000B000F148000883020008830200088302000858
:1000C00083020008830200088302000883020008FC
:1000D0008302000883020008894F00086D50000861
:1000E00083020008830200088302000883020008DC
:1000F00083020008830200088302000883020008CC
:1001000083020008830200088302000883020008BB
:1001100083020008830200088302000883020008AB
:10012000830200088302000883020008830200089B
:10013000830200088302000883020008E107000828
:1001400083020008D107000883020008D13F00089D
:10015000830200088302000883020008830200086B
:10016000830200088302000883020008830200085B
:1001700083020008830200088302000800000000D8
:10018000830200088302000800F002F800F05CF827
:100190000AA090E8000C82448344AAF10107DA45E2
:1001A00001D100F051F8AFF2090EBAE80F0013F0D8
:1001B000010F18BFFB1A43F001031847C4A0000049
:1001C000E4A000000A444FF0000C10F8013B13F0CB
:1001D000070408BF10F8014B1D1108BF10F8015BA0
:1001E000641E05D010F8016B641E01F8016BF9D193
:1001F00013F0080F1EBF10F8014BAD1C0C1B09D1EA
:100200006D1E58BF01F801CBFAD505E014F8016B5B
:1002100001F8016B6D1EF9D59142D6D370470000ED
:100220000023002400250026103A28BF78C1FBD8FF
:10023000520728BF30C148BF0B6070471FB509F097
:100240009CFE1FBD10B510BD00F05AF91146FFF716
:10025000F5FF06F03BFE00F078F903B4FFF7F2FF7C
:1002600003BC00F07BF900000948804709480047BB
:10027000FEE7FEE7FEE7FEE7FEE7FEE7FEE7FEE756
:10028000FEE7FEE704480549054A064B70470000B3
:10029000DD4800088901000828640020286A002041
:1002A000286600202866002053EA020C00F06980CE
:1002B0002DE9F04B4FF00006002B1FBFB3FA83F57A
:1002C00003FA05F424FA05F65E4012BF1643B2FAAB
:1002D00082F502FA05F4C5F120051EBF22FA05FCDD
:1002E00044EA0C04203556EA044C4FEA144418BF83
:1002F000641C4FF000084FF00009904271EB030CB2
:1003000039D3002919BFB1FA81F701FA07F6B0FA1B
:1003100080F700FA07F6C7F120071EBF20FA07FC96
:1003200046EA0C062037B6FBF4FCA7EB0507103FA6
:1003300007F01F0BCBF120062CFA06F60CFA0BFB8C
:1003400044BFB3460026202FA4BF5E464FF0000BEB
:100350005BEA060C08BF4FF0010B19EB0B0948EBE9
:100360000608ABFB027C06FB02CC0BFB03CCC01BDC
:1003700071EB0C01C1E70B46024641464846BDE819
:10038000F08B13B5084318BF4FF0FF300146AFF3B1
:100390000080BDE81C407047032A40F2308010F016
:1003A000030C00F0158011F8013BBCF1020F624410
:1003B00098BF11F801CB00F8013B38BF11F8013BA1
:1003C000A2F1040298BF00F801CB38BF00F8013B4E
:1003D00011F0030300F05A80083AC0F0088051F889
:1003E000043B083A51F804CBA0E80810F5E7121DC9
:1003F0005CBF51F8043B40F8043BAFF30080D207E8
:1004000024BF11F8013B11F801CB48BF11F8012BB3
:1004100024BF00F8013B00F801CB48BF00F8012BD6
:1004200070474FF0000200B51346944696462039B7
:1004300022BFA0E80C50A0E80C50B1F12001BFF49D
:10044000F7AF090728BFA0E80C5048BF0CC05DF803
:1004500004EB890028BF40F8042B08BF704748BF51
:1004600020F8022B11F0804F18BF00F8012B7047C5
:1004700070477047704710B500F03AF8006810BD3B
:1004800010B5044600F034F8046010BD10B5203AF1
:10049000C0F00B80B1E81850A0E81850B1E818502F
:1004A000A0E81850203ABFF4F5AF5FEA027C24BF01
:1004B000B1E81850A0E8185044BF18C918C0BDE8EA
:1004C00010405FEA827C24BF51F8043B40F8043BB3
:1004D00008BF7047D20728BF31F8023B48BF11F868
:1004E000012B28BF20F8023B48BF00F8012B7047C2
:1004F00000487047780200200048704778020020CA
:100500007546FFF7F9FFAE4605006946534620F0F1
:100510000700854618B020B5FFF7B4FEBDE82040BF
:100520004FF000064FF000074FF000084FF0000BAF
:10053000AC46ACE8C009ACE8C009ACE8C009ACE81E
:10054000C00921F007018D46704710B50446AFF38E
:1005500000802046BDE81040FFF77FBE014918200B
:10056000ABBEFEE72600020070470000000000005E
:1005700082B008F0A3F842F2004642F20C4441F285
:10058000AC7741F2B07840F21C2A9FED858A9FED4E
:10059000809B9FED81AB9FED83BA9FED83CA40F2B4
:1005A0007029C2F200064FF0000BC2F20004C2F242
:1005B0000007C2F20008C2F2000AC2F2000901AD4F
:1005C000019064E040F24420C2F2000090ED000A85
:1005D0009AED05DAB8EEC00A30EE4D0A80EE080A50
:1005E0009AED06EA10EE100A09F056FC53EC192BAE
:1005F00009F08EF909F05CF940F24821C2F20001DD
:1006000091ED000A41F2C071B8EEC00A30EE4D0A19
:1006100030EE4E0A80EE080AC2F20001086010EEC9
:10062000100A09F039FC53EC1A2B09F071F909F0A2
:100630003FF98EEE0B0A41F2D071C2F200018860E0
:1006400020EE0C0ABDEEC00A10EE100AE030C8F829
:1006500000000A2007F0BAFA06F012FC40F240202F
:10066000C2F2000090ED000A9AED021A9AED042AF7
:1006700031EE000AD9ED000A30EE420A00F07CFAB1
:10068000022007F0A3FA2846022107F0C9FA3088B1
:1006900038B940F20040C4F202000121002201F00A
:1006A00067FA3088012803D103F0C4FFA6F800B030
:1006B000208801280DD141F69040C2F20000B0F927
:1006C000000042F2C441C2F200010860022007F0BB
:1006D0007DFA2088022815D1386841F2B472C2F23E
:1006E0000002106041F2B872C0F5FA61C2F2000275
:1006F000C8F80010116041F2BC71C2F2000108603C
:1007000006F0BEFB208803280BD142F23021C2F252
:1007100000013868096848630A2007F057FA06F0B4
:10072000AFFB20880428ABD142F20240C2F20000A5
:10073000008802283FF446AF012811D000287FF43A
:1007400088AF41F2C070C2F20000C0F800B041F2C0
:10075000D070C2F20000C8F800B0C0F808B078E766
:1007600041F2C0704DF2C041C2F20000C0F201017E
:10077000016041F2D0704EF69061C2F20000CFF6F7
:10078000FE7181604FF4C87061E700BF00BF00BF19
:10079000CDCCCCCCCCCC2341713D0AD7A390154114
:1007A0000000B443000096430000FA44FEE7000056
:1007B00080B541F6C020C2F2000000F00DFC80BD03
:1007C00080B541F6C020C2F2000000F005FC80BDFB
:1007D00080B541F6E820C2F2000000F0FDFB80BDCC
:1007E00080B541F6E820C2F2000000F0F5FB80BDC4
:1007F00010B588B00B4600210791CDE90511CDE970
:100800000311CDE90111016846F2004201ACC4F2C6
:100810000002891A224618BF012100F04FFB0398FD
:10082000002818BF0434206808B010BD80B582B01D
:10083000022B28BF00238DF800204FF05532498845
:10084000CDF8022045F25552ADF8062041F00A01DC
:100850006A468DF8013000F061F802B080BD0000FA
:100860000A8812BA120C02824A8812BA120C428208
:10087000496809BA4161704780B582B00A704988F9
:100880008DF800204FF05532CDF80120019241F053
:1008900001016A4600F042F802B080BD80B582B026
:1008A000B1F904204EF67743CFF6FF739A42DEBFCC
:1008B0004EF67842CFF6FF728A80B1F9042041F2F9
:1008C00089339A42A4BF41F288328A80B1F9042068
:1008D00002EBE23383EAE232130A8DF80030CB6890
:1008E0008A808DF8012045F255524988ADF80220E2
:1008F0001ABA019241F005016A4600F00FF802B001
:1009000080BD000080B582B04FF055324988019219
:1009100000926A4600F002F802B080BD80B588B04F
:10092000029100210823CDE90311059106938DF86A
:100930001C10019102A901AB00F0ECF908B080BDD8
:10094000002070470020704710B541F2E474C2F2F5
:10095000000440F6A871C2F200012046002204F013
:100960009BFD40F2A871C2F20001204604F086FD12
:10097000002010BD70B541F2E4760546C2F20006D3
:100980000C463046294604F079FD304604F050FD0F
:100990002846214606F0F0F9002070BD002070477F
:1009A00080B58AB001220792026846F20043C4F281
:1009B000000300219A424FF00E030691CDE9001189
:1009C000CDE90211099308D046F60001C4F20001F6
:1009D0008A4205D101220E2100E00022CDE9042146
:1009E00001210891694600F0E7F90AB080BD0000D6
:1009F00080B541F6D030C2F2000000F077FE80BD35
:100A000080B541F63040C2F2000000F06FFE80BDBC
:100A100080B541F61030C2F2000000F067FE80BDE4
:100A200080B541F67030C2F2000000F05FFE80BD7C
:100A3000D0F800C06FF00F024AF6AB2352FA8CF2E6
:100A4000CAF6AA230146A2FB0330000905A31B5CDA
:100A500040F2FF302CEA00005F2A88BF0430C1E971
:100A60001603704700061016000610168269816A88
:100A7000B2F5005F06D06AB9022912D0012914D05C
:100A8000D1B90EE0032917D8DFE801F0020B020FFD
:100A90000120704703293CBF012070471CBF002084
:100AA0007047C06AC0F300607047C06AA0F1C070B0
:100AB000B0FA80F0400970470020704780B5D0F848
:100AC00000C0D0F808E0DCF80000BEF1400F20F4D0
:100AD0008020CCF800000846CCF8043004BF104653
:100AE0000A46CCF80800CCF80C2080BD7047000006
:100AF000EFF3108072B600BFFEE7000000EE100AB0
:100B000092ED001AB8EEC00A92ED012A21EE001A09
:100B100021EE001A22EE000A02EE101A92ED023ABD
:100B2000B8EEC22A20EE020A31EE000A23EE021AC3
:100B300092ED034A21EE021A30EE010A34EE000A69
:100B40007047000080B598B181B14AF2800C01383D
:100B5000C0F6000C10F801EFD3B283EA0E033CF8A4
:100B6000133092B2013983EA1222F3D190B280BDE0
:100B70004FF6FF7290B280BD2DE9F0412DED0C8B48
:100B8000B0EE409A20EE000A20EEA01A30EE010AE4
:100B9000B1EEC08AB0EE60AAB4EE488AF1EE10FA67
:100BA00080F1938040F21C28C2F2000898ED000A00
:100BB00098ED011A20EE002A21EE013A32EE032AC6
:100BC00028EE08BA30EE000A32EE4B2A20EE010A77
:100BD00082EE000A10EE100A09F05EF941EC100BEB
:100BE00007F0C2FF8AEE081AB0EE40AAF0EE60AA43
:100BF00011EE100A09F050F941EC100B08F060F901
:100C000051EC100B9FED340B54EC105B2A4623463D
:100C100008F0F4FC9FED320B56EC107B3A4633465D
:100C200008F076FE08F010FC9FED2FCA0DEE100ABA
:100C3000B5EE409A51EC1A0B2A4623463CEE4D0A7B
:100C4000F1EE10FAB8BFB0EE40DA08F0D7FC3A4641
:100C5000334608F05DFE08F0F7FB98ED010A98EDC9
:100C6000001A20EE002A3BEE022A21EE011A32EE93
:100C7000411A38EE082A22EE000A81EE000A08EE38
:100C8000100A10EE100A09F007F941EC100B07F0FA
:100C90006BFF51EC100B2A46234608F0AFFC3A4696
:100CA000334608F035FE08F0CFFB00EE100A3CEEAC
:100CB0004D1A31EE400A38EE401A88ED050A88EDEB
:100CC000061ABDEC0C8BBDE8F08108F0A9FAB0EE75
:100CD000408A67E700BF00BF00000040FB210940D9
:100CE00000000000008066400000344390F820209F
:100CF000013A012A04D8006800F11402002004E03F
:100D000000F1240201204FF480211368194311607F
:100D10007047000010B590F820E0D0F800C0AEF1A8
:100D2000010EBEF1010FDCF808E00DD81EF0E05F07
:100D300010D0CEF3016EBEF1030F11D100F12401EA
:100D400001204FF4000233E000F1240101204FF4B0
:100D500080222DE000F1240101204FF4001227E051
:100D6000012000FA0EF01860886818B14B6840EA5C
:100D7000C30001E008684005D1E9033403430CEBEC
:100D80000E10C0F88031C0F88441097D012905D1D9
:100D900000F5C2710B6843F480730B605168C0F8B2
:100DA0008C11126800F5C071C0F888210020012262
:100DB0000B681A430A6010BDB0B590F82020013AC4
:100DC000012A2FD846F20060C4F20000026842F007
:100DD00001020260026822F47C520260D1F814E041
:100DE000CC694A6A0368012C43EA022202600EF0D1
:100DF0001F024FF0010303FA02F2C3696FEA020C0B
:100E000023EA0203C36113D02CBBC36803EA0C03BB
:100E1000C360CB688C8844EA034300EBCE042364B0
:100E20000B4611E0416A41F4802141620120B0BDCE
:100E3000C3681343C3600B688C8844EA034300EB28
:100E4000CE04236401F10C038C681B8843EA04433D
:100E500000EBCE04636443688D6943EA0204D1F871
:100E600010E0096A002D08BF03EA0C0444604369DE
:100E7000BEF1000F43EA020408BF03EA0C04012993
:100E8000446102D1C1691143C161016821F00101CE
:100E900001600020B0BD00007047000090F82020E5
:100EA000013A012A84BF00207047006810220029FF
:100EB00008BF0C22805800F00300704710B590F86E
:100EC0002040013C012C0CD8D0F800C079B1DCF8EE
:100ED0001040A4070FD100F1240101204FF40012AB
:100EE00070E000F1240101204FF480226AE0DCF878
:100EF0000C40A4076AD0046804EB011CDCF8B04184
:100F00000CF5D87E14F004049460DCF8B04119BFED
:100F1000E4085460640D1460DEF80040002904F019
:100F20000204D460DCF8B44104F00F041461DCF86E
:100F3000B441C4F307249461DCF8B4414FEA14448B
:100F40005461DCF8B8211A70026802EB0112D2F881
:100F5000B8214FEA12225A70026802EB0112D2F84D
:100F6000B8214FEA12429A70026802EB0112D2F8DD
:100F7000B8214FEA1262DA70026802EB0112D2F86D
:100F8000BC211A71026802EB0112D2F8BC214FEAAF
:100F900012225A71026802EB0112D2F8BC214FEA08
:100FA00012429A71026802EB0112D2F8BC214FEA98
:100FB0001262DA71006814BF00F1100100F10C0137
:100FC000002020220B681A430A6010BD00F12401A2
:100FD00001204FF40012F5E72DE9F04F81B00446EF
:100FE00000684669D0F804908768D0F80CB0D0F853
:100FF00010A0D0F81880F10703D1002530071CD4C9
:1010000023E0F90710D00121BA07816009D47807DD
:1010100000F1AA80380700F1B080204600F018FBEC
:1010200002E0204600F016FB0025F80500F1848060
:10103000F80300F1AA80300707D51BF0100004D098
:10104000206845F400751021C160700708D51BF0B9
:10105000080005D020680821C160204600F0E8F9AA
:10106000B00706D52068C068800702D0204600F08F
:10107000E1F9700607D51AF0100004D0206845F495
:10108000806510210161B00608D51AF0080005D06E
:10109000206808210161204600F05CFAF00606D5C0
:1010A00020680069800702D0204600F055FAB0039E
:1010B00008D519F0100005D02068102141602046A5
:1010C00000F096FAF00308D519F0080005D0206862
:1010D00008214160204600F0C7FA300440F18F80BB
:1010E0005FEA497040F1888006F4807008EA1020B9
:1010F00028435FEA8871014648BF41F00201B2050A
:1011000058BF01465FEA48700D4648BF45F00405E8
:10111000700558BF0D4630056ED518F070006BD0C5
:1011200010380009052862D8DFE800F0035356594B
:101130005C5F45F008055AE020684FF48071BA05FD
:1011400081600AD4780512D4380519D4204600F0FD
:1011500083FAF8037FF56FAF17E0204600F07EFAC0
:10116000F8037FF568AF10E04FF400655DE705F523
:101170000055F8037FF55FAF07E04FF4805554E763
:1011800005F58045F8037FF556AF20684FF48031B0
:10119000BA0381600AD478030FD4380313D42046ED
:1011A00000F05EFA30073FF548AF4EE7204600F00A
:1011B00059FA30073FF541AF47E705F500453007DD
:1011C0003FF53BAF41E705F5803530073FF535AFDB
:1011D0003BE745F010050AE045F0200507E045F043
:1011E000400504E045F0800501E045F48075206885
:1011F000816921F0700181612068042141602DB175
:10120000606A284360622046FFF746FE01B0BDE8F1
:10121000F08F0000B0B5C8B1044690F8200010B9B6
:10122000204600F071F82068016841F0010101607A
:1012300000F0A4FC054600BF20684168C90707D13B
:1012400000F09CFC401B0B28F6D312E00120B0BD3F
:10125000016821F00201016000F090FC054600BF2A
:101260002068416889070DD500F088FC401B0B28D9
:10127000F6D3606A052140F400306062012084F8F2
:101280002010B0BD217E0268012922F0800208BF33
:1012900080320260617E0268012922F0400208BFAC
:1012A00040320260A17E0268012922F0200208BFBC
:1012B00020320260E17E0268012922F0100218BF8C
:1012C00010320260217F0268012922F0080208BF63
:1012D00008320260617F0268012922F0040208BF1F
:1012E00004320260D4E901C2D4E9033561691A43CA
:1012F0002A431143ACF101021143C16100200121D5
:10130000606284F82010B0BDB0B586B0006846F6C3
:101310000002C4F2000200219042CDE90411CDE99F
:10132000021101912FD046F20041C4F2000188421F
:101330007BD140F25031C2F200010A6843F640000E
:10134000C4F20200531C0B6052B9002100910168E5
:1013500041F000710160016801F000710091009995
:101360000021009150F8101C142441F0020140F8B3
:10137000101C50F8100C132500F00200009000988B
:101380004FF4407031E043F64000C4F20200009197
:10139000016841F080610160016801F080610091A5
:1013A000009940F25031C2F200010A68531C0B60F0
:1013B00052B900210091016841F00071016001689B
:1013C00001F00071009100990021009150F8101C6B
:1013D000412441F0020140F8101C50F8100C3F2548
:1013E00000F002000090009860200190022002901E
:1013F00000200390032004900920059040F2004053
:10140000C4F2020001A900F0E5FA284605210022F5
:1014100000F066FC284600F05FFC20460521002213
:1014200000F05EFC204600F057FC06B0B0BD0000A6
:10143000704700002DE9F0438BB00446006846F287
:101440000041C4F20001884202D00BB0BDE8F08335
:1014500041F6C02040F2DC21C2F20000C2F20001DD
:10146000FFF7C6F96FF4007111FA80F0032824D851
:10147000DFE800F00207131842F2E030C2F2000089
:1014800004E042F2E030C2F20000103040F2DC2111
:10149000C2F2000103F05AF90FE042F24030C2F20A
:1014A000000004E042F24030C2F20000283040F276
:1014B000DC21C2F2000103F00BF920460021FFF706
:1014C000EDFC0028C1D001A841F2E07742F2AC4621
:1014D00042F2B849051D0DF11008C2F20007C2F230
:1014E0000006C2F200090BE00399DDE90102B160D8
:1014F0007260306020460021FFF7D0FC0028A4D0A5
:1015000020460021FFF7CAFC0028F3D02046002126
:1015100042462B46FFF7D2FC0499DDE9072388B247
:10152000ADF8041039888DF8073001F50073834257
:101530008DF80620D8D001F580618142DAD1039977
:10154000DDE90102C9F80810C9F80420C9F8000053
:10155000D0E700007047000010B540F2EC2441F6DF
:10156000E820C2F20004C2F200002146FFF740F971
:101570006FF4007111FA80F1032909D8DFE801F056
:101580001C21020242F20030C2F2000020301DE0B5
:1015900080B2B0F5C26F20D040F21B11884218BF54
:1015A00010BD40F24C2040F2EC21C2F20000C2F229
:1015B0000001FFF755F910BD42F20030C2F2000001
:1015C00004E042F20030C2F20000103040F2EC21A0
:1015D000C2F2000102F030FA10BD608840F25C31C6
:1015E000C2F2000188802088A28808804A8010BD4D
:1015F00070470000B0B5044690F8200001281DD1C6
:10160000022084F820002068016821F001010160B7
:1016100000F0B4FA054600BF20684068C00713D048
:1016200000F0ACFA401B0B28F6D3606A40F400309F
:101630006062052084F820000120B0BD606A40F49B
:10164000002060620120B0BD00206062B0BD0000DB
:1016500070470000704700007047000070470000AE
:1016600070470000704700007047000070B5866D3D
:10167000044600F083FA94F83510022925D1054676
:101680002068216C026822F016020260426922F092
:101690008002426109B9A16C19B1016821F0080109
:1016A0000160016821F00101016000BF206800684D
:1016B000C0070ED000F062FA401B0628F6D32020A7
:1016C0006065032084F835000CE08020606501200F
:1016D00008E0E06D3F2101FA00F0B060012084F8DD
:1016E00035000020002184F8341070BDF0B581B0C1
:1016F00004460020009040F24810C2F20000026848
:10170000D4E9166048F2B51337680821C1F64E33A4
:1017100081403942A2FB03250CD0226813685B0785
:1017200008D5136823F004031360B160616D41F0C4
:101730000101616501218140394208D02268526966
:10174000120604D5B160616D41F0020161650421AA
:101750008140394208D022681268920704D5B160EE
:10176000616D41F00401616510218140394215D05D
:1017700020680268120711D5B1600268016852033F
:1017800006D4C90506D4016821F00801016001E012
:10179000080342D4216C09B120468847E16D20201E
:1017A00000FA01F23A4244D020680368DB0640D5D3
:1017B000B26094F835300268052B1ED122F0160273
:1017C0000260426922F080024261226C0AB9A26C76
:1017D0001AB1026822F0080202603F208840B0601F
:1017E000012084F83500216D0020002984F83400A0
:1017F00040D02046884701B0F0BD0168520310D4A4
:10180000C90512D4016821F010010160012084F89B
:101810003500002084F8340007E0A16C0029BBD11A
:10182000BCE7080301D4616C00E0E16B09B120461C
:101830008847606DF0B1606DC00717D0052084F84F
:1018400035002068A90A026822F00102026000BF88
:10185000009A01328A42009202D80268D207F7D178
:10186000012084F83500002084F83400E16C09B1CF
:101870002046884701B0F0BD2DE9F041044600F054
:101880007DF9C4B10546022084F8350000202168A6
:1018900084F83400086820F0010008602668306889
:1018A000C0070BD000F06AF9401B0528F6D90321C8
:1018B0002022032042E00120BDE8F081306848F298
:1018C0003F01CFF21001251D00EA010C2ECDD4E915
:1018D000050E41EA0C01114319432943D4E9077865
:1018E000084340EA0E01606A3943042841EA0801CE
:1018F00003D1D4E90B2311431943316071690428E2
:1019000021F0070141EA00050CD1D4E90A1045EAAB
:10191000010538B12046FFF7A9F818B1012140228E
:1019200001200BE020467561FFF782F8E16D3F2250
:1019300002FA01F18160002201210020626584F831
:101940003510BDE8F0810000B0B5044690F83400D1
:10195000012828D0012084F83400A56D94F83500C2
:1019600001281DD1022084F8350000206065204642
:10197000FFF7A4F8E26D3F23206803FA02F2216C1E
:10198000AA60026842F01602026019B1016841F0D3
:1019900008010160016841F0010101600020B0BD53
:1019A000002084F834000220B0BD0000B0B5044629
:1019B00000F0E4F8054640F26420C2F2000000782E
:1019C000611C18BF044400BF00F0D8F8401BA042BF
:1019D000FAD3B0BD2DE9F04F83B000F13E4202F1E1
:1019E000FF724FEAB22241F600470192C4F20207A9
:1019F00008224FF0010E00254FF0000A4FF00008BA
:101A0000B84208BF072200920AE000BF08F10108AF
:101A10000AF1040AB8F1100F05F1020500F0A480E4
:101A20000C680EFA08FB14EA0B09EFD04C6804F0BE
:101A3000030CACF1010EBEF1010F11D8032287682F
:101A400002FA05F6CA68B743AA403A438260426880
:101A5000C4F3001722EA0B0207FA08F73A43426080
:101A6000BCF1030F1CD0C26803238E6803FA05F78C
:101A7000BA4306FA05F73A43BCF1020FC2600FD130
:101A80006FF0030202EA580202440AF01C060F2318
:101A9000176A03FA06F40B69A743B3403B4313628A
:101AA000026803234F68AB409A4307F00303AB403F
:101AB0001A4317F4403F4FF0010E0260A6D00022F7
:101AC00043F644030292C4F202031A6843F6004448
:101AD00042F480421A601A68C4F2010402F480429F
:101AE0000292029A28F003024FF6084B2244CFF6E6
:101AF000FF7B52F80B300AF00C070F26BE4023EA9A
:101B0000060C019B009E072B38BF1E4606FA07F7FE
:101B100047EA0C0342F80B30A2684B6842EA090717
:101B200043F60C4CDE0258BF22EA0907A760C4F254
:101B3000010CDCF800209E0242EA090758BF22EAA5
:101B40000907CCF8007062689E0342EA090758BF93
:101B500022EA090767602268DB0342EA090358BFEB
:101B600022EA0903236051E703B0BDE8F08F0000CB
:101B7000002A08BF090481617047000046F2041082
:101B8000C2F200000068704740F2642046F204117F
:101B9000C2F20000C2F2000100780A681044086036
:101BA0007047000080B543F60040C4F202000168AF
:101BB00041F400710160016841F4806101600168D5
:101BC00041F480710160032000F09AF80F2000F0CA
:101BD00005F800F059F8002080BD000070B586B00F
:101BE000002543F640010195C4F202010A6804464B
:101BF00042F001020A60096801A801F001010191A7
:101C00000199694600F0ECFE049E002E18BF0126E3
:101C100000F00CFF4DF68361B040C4F21B31A0FB15
:101C200001014FF0FF3000EB914142F2E810C2F2A7
:101C300000004FF0804240F2E733C0E90021C0E9E4
:101C400002530561856101F073F90546C0B942F29E
:101C5000E810C2F2000001F0B3F9054680B91C207B
:101C600000F03AF80F2C0AD81C202146002200F080
:101C700037F840F26820C2F20000046000E001255D
:101C8000284606B070BD000080B582B0002043F643
:101C900040010190C4F202014A6842F480424A6065
:101CA0004A6802F480420192019A0090086800227A
:101CB00040F08050086008680F2100F080500090CC
:101CC00000986FF0010000F00BF802B080BD00003A
:101CD00080B505F087F880BD80B505F097F880BD28
:101CE00070B514460D46064605F0A0F82946224672
:101CF00002F058F90146304605F0A0F870BD00002A
:101D000080B505F0ADF880BD704700000268002086
:101D10005162704710B5D0F800C0DCF82400D9B18A
:101D2000DCF82830B1F1010E00EB13430CD0002198
:101D3000002000BF0CEB8101D1F804410130C1B299
:101D40008E4503EB1443F5D843EA02400CEB8E01B9
:101D5000C1F80401002010BD40EA0240CCF8280080
:101D6000002010BD80B5D0F8080503F0EFFE80BD5F
:101D700080B501EBC102D0F8083500EB8200C26CDF
:101D8000184603F04DFE80BD80B501EBC102D0F8CE
:101D9000083500EB8200D0F88C22184603F09AFE3A
:101DA00080BD000080B5D0F8080503F0D1FE80BDED
:101DB00080B501F00F0202EBC20200EB820303F1D7
:101DC0003C020906006858BF03F51F72114604F073
:101DD000D1FD80BD10B50446080601F00F0000EBF0
:101DE000C00104EB810205D402F51F71002382F8C3
:101DF0007D3204E0012302F13C0182F83D3094F889
:101E0000BC240870012A04BF022010BD20680122F2
:101E100084F8BC2404F0B6FA002084F8BC0410BD99
:101E2000B0B54268044601F00F00904284BF012023
:101E3000B0BD090609D400EBC00104EB810202F534
:101E40001F71002382F87D3208E000EBC00104EB33
:101E50008102012302F13C0182F83D3094F8BC2458
:101E60000025012A8D70087004BF0220B0BD2068D3
:101E7000012284F8BC2404F053FC284684F8BC54A6
:101E8000B0BD000001F00F0101EBC10100EB8100CA
:101E9000D0F89C0270470000B0B50546080601F076
:101EA0000F0000EBC00105EB810C05D40CF51F7190
:101EB00000248CF87D4204E001240CF13C018CF8F4
:101EC0003D404C780870002CCA600B7118BF088127
:101ED000022B04BF0020487195F8BC04012804BF00
:101EE0000220B0BD2868012285F8BC2404F08AF9DC
:101EF000002085F8BC04B0BD80B501F00F0C0CEBE0
:101F0000CC0100EB810ECEF894320023CEF89C3247
:101F10008EF87D320369CEF88C22012B8EF87CC2BC
:101F200008BFCEF8902200680EF51F71DAB2BCF13E
:101F3000000F03D004F044FC002080BD04F044FBFB
:101F4000002080BDB0B50446406801F00F05854211
:101F500084BF0120B0BD080609D401EBC10004EB29
:101F6000800000F51F71002280F87D2208E005EB5B
:101F7000C50004EB8000012200F13C0180F83D2007
:101F800094F8BC04012201288A700D7004BF02205D
:101F9000B0BD206884F8BC2404F0EAFB2DB92068A9
:101FA000217C04F2C44204F08DFB002084F8BC04C0
:101FB000B0BD000010B501F00F0C0CEBCC0100EB34
:101FC000810E714601F83CCF8B6100230B620369DF
:101FD00001244C70012B0A6108BFCEF85020006824
:101FE000DAB2BCF1000F03D004F0EAFB002010BD10
:101FF00004F0EAFA002010BD2DE9F04F83B0066826
:102000008346304604F05EFD10B103B0BDE8F08FAA
:10201000DBF8000004F084FD0028F6D0D6F80808AC
:10202000C0F30D21DBF80000CBF8FC1404F078FDC0
:10203000800705D5DBF80000416901F0020141612C
:10204000DBF8000006F5006704F06AFDC00640D525
:10205000DBF80000816921F010018161346AC4F36A
:102060004340062804F00F051CD002282BD147F668
:10207000F070044027D005EBC5000BEB8005D5F8C8
:102080008C122209304604F04FFDD5F88C02D5F8A9
:102090009C1200EB1410C5F88C0201EB1410C5F86B
:1020A0009C0210E00BF2C4413046082204F03CFDD3
:1020B00005EBC5000BEB8000D0F89C12C4F30A12AC
:1020C0001144C0F89C12DBF80000816941F0100156
:1020D0008161DBF80000CDE9017604F021FD000309
:1020E0005ED5DBF8000004F0F9FC002858D0064665
:1020F00002984FF0000900F5306440F27F25002778
:1021000017E000BF0220A0605FEA8A6044BF202081
:10211000A0605FEA8A4044BF4FF40050A0600137DE
:10212000B9EB560F4FEA560604F1200405F12405D9
:1021300036D0F007F3D0DBF800005FFA87F84146AD
:1021400004F0E6FC8246C00705D00120A060584696
:10215000394601F06BFF5FEA0A7005D50820A060E0
:102160005846394601F03CFF5FEACA6044BF102080
:10217000A0605FEA8A70C7D502984069000604D55E
:102180000199486840F4806048601BF80500012808
:10219000B8D1584641460BF8059000F00DFAB1E76A
:1021A000DBF8000004F0BCFC400372D5DBF8000053
:1021B00004F08CFC00286CD006460BF2C440009062
:1021C00002980BF13F0800F510644FF0000900275A
:1021D0000AE000BF0137B9EB560F4FEA560604F18B
:1021E000200408F1240854D0F007F3D0DBF80000F5
:1021F0005FFA87FA514604F079FC0546C00723D000
:10220000019A07F00F00516B012303FA00F021EA55
:1022100000005063A360DBF81000012810D1D8F84B
:102220000900D8F80D100844C8F80D0047B9D8F8CF
:10223000150028B9DBF80000009A012104F042FAE9
:1022400058465146FFF794FD280744BF0820A06078
:10225000E80644BF1020A060680644BF4020A0608C
:10226000A8070FD50298394604F0F6FB98F800004D
:10227000012805D15846514688F8009000F096F99B
:102280000220A0602806A5D55846394601F03AFF3D
:10229000A0E7DBF8000004F043FCDDE90198B0F1B1
:1022A000FF3F1ADCD9F8040020F00100C9F804004F
:1022B0009BF8F404012807D100208BF8F404584659
:1022C0000021FFF721FD02E0584600F075FADBF827
:1022D0000000416901F000414161DBF8000004F0B9
:1022E0001FFC00050CD5D9F80800C00702D05846DD
:1022F00000F0ACFADBF80000416901F400614161D3
:10230000DBF8000004F00CFCC00460D5D9F8040030
:10231000102120F00100C9F80400DBF8000004F0EF
:102320009BFBDBF80400F8B1DBF8041008F5106043
:1023300000224FF67F3300BF83600768013227F425
:1023400000170760C0F80832D0F800728A4227F4FC
:102350000017C0F80072D0F8007247F00067C0F8AC
:10236000007200F12000E7D3D9F81C0040F0011002
:10237000C9F81C00DBF8300040B1D9F8840040F007
:102380000B00C9F8840009F1440008E0D9F81400F2
:1023900042F22B010843C9F8140009F1100001684A
:1023A0000BF2C44241F00B010160D9F8000020F4A7
:1023B000FE60C9F80000DBF800009BF8101004F084
:1023C00081F9DBF80000416901F480514161DBF8DB
:1023D000000004F0A5FB80041CD5DBF8000003F02E
:1023E0005DFFDBF8000004F05FFBDBF80040CBF89A
:1023F0000C0000F015FB9BF80C200146204604F071
:1024000007FC584600F0C4F9DBF80000416901F40C
:1024100000514161DBF8000004F082FB000708D5A1
:10242000584600F0CFF9DBF80000416901F00801DF
:102430004161DBF8000004F073FB00061ED5D8F8FC
:10244000180020F08000C8F81800DBF8040002280B
:1024500014D3012440F2A32507E000BFDBF80400F9
:102460000134844205F1240508D21BF80500012837
:10247000F4D1E1B25846FFF79BFCEFE7DBF8000030
:1024800004F04EFBC00229D5DBF8040002281FD35C
:1024900008F512640BF164050126012708E000BF6E
:1024A000DBF8040001372034874205F124050FD200
:1024B0002068B0F1FF3FF3DC28780128F0D147F025
:1024C0008000C1B2584605F8016CFFF771FCE7E7E0
:1024D000DBF80000416901F480114161DBF8000084
:1024E00004F01EFB80023AD5DBF80400022830D34A
:1024F00008F532600BF529710122012308E000BFC5
:10250000DBF8047001332030BB4201F1240120D2FA
:102510000768B7F1FF3FF3DC0E78012EF0D1DBF84E
:10252000FC6407F4803706F00106B742E8D101F8F1
:10253000012CD8F8187047F08007C8F81870D8F840
:1025400014703F06DCD4D9F8040040F40070C9F8D8
:102550000400DBF80000416901F400114161DBF87F
:10256000000004F0DDFA400008D55846FFF7FAFBFA
:10257000DBF80000416901F080414161DBF80000B7
:1025800004F0CEFA40077FF540ADDBF80000446868
:10259000600702D55846FFF705FCDBF800004168EC
:1025A0002143416003B0BDE8F08F000080B5D0F852
:1025B000080503F02BFB80BD80B5D0F8080503F0BB
:1025C00039FB80BD2DE9F04F8BB098B30446056808
:1025D00090F8BD0428B9002084F8BC04204600F01F
:1025E00093F8032084F8BD04E86BC0055CBF0020AD
:1025F0002061206803F0E0FF206804F11C0A0A90C3
:10260000D4E90C5004F1040E9AE8C0079EE80E5875
:10261000CDE9085003A880E8C0030A988DE8005867
:10262000CDF81CA003F04AFE30B1022084F8BD04AE
:10263000012564E0012562E020680021002504F006
:1026400099FA6168C1B1616801200023002200BFCE
:1026500003EBC30304EB830787F83C20D3B20132BA
:10266000A7F84430D3B2994287F83D0087F840502C
:10267000C7E912557D65EBD8A1B1002000230022E7
:1026800003EBC30304EB830787F87C220132D3B248
:10269000994287F87D0287F88002C7E9A200C7F84F
:1026A0009402EDD8A06822680A90D4E90C5004F195
:1026B000140E04F1240AD4E903379EE840589AE83E
:1026C0000007CDE9085002A880E8005810460A9A91
:1026D000CDE90076CDE90589CDF81CA003F0BCFE5C
:1026E00020B1022084F8BD04012508E00025012066
:1026F00084F8385084F8BD04206803F09DFE284615
:102700000BB0BDE8F08F0000B0B586B000680024C3
:10271000B0F1A04F0594CDE903440294019401D097
:1027200006B0B0BD43F630050094C4F20205286837
:1027300001A940F001002860286800F00100009025
:1027400000984FF4C05001900220CDE9020403200C
:1027500004900A2005900020C4F20200FFF73AF925
:102760006868052140F08000686000946869002274
:1027700040F480406861686900F4804000900098EF
:102780004320FFF7ADFA4320FFF7A6FA06B0B0BD2D
:1027900010B50446C06828B1022818BFFEF7A8F992
:1027A000012100E00021D4F8080503F0B5FAD4F8BF
:1027B000080503F067FA10BD80B5D0F8080503F0EE
:1027C00093FA80BD80B5D0F8080503F097FA80BD74
:1027D00010B5044690F8BC04012804BF022010BDC7
:1027E000012084F8BC0484F83810206804F0F6F95D
:1027F000002084F8BC0410BD80B5D0F8082500F294
:10280000C441104603F094FA80BD000010B50446A0
:1028100090F8BC04012804BF022010BDA16A206802
:102820000122012984F8BC2406D1A169012903D021
:10283000816B41F48031816304F0E0F8206803F09B
:10284000EBFD002084F8BC0410BD000010B5044668
:10285000D0F8080503F0A8FA2068D0F8001E41F06F
:102860000101C0F8001E206A002808BF10BD4EF606
:102870001050CEF20000016841F00601016010BD69
:102880002DE9F041002800F08B8043F60808C4F2DF
:1028900002080446D8F8F8030D4600F00700884205
:1028A00007D288F8F853D8F8F80300F00700A842D8
:1028B00076D12068810717D5410705D5D8F80010D3
:1028C00041F4E051C8F80010010705D5D8F8001010
:1028D00041F46041C8F80010D8F80010A26821F057
:1028E000F0011143C8F80010C0073FD1D8F8F80331
:1028F00000F00700A84207D988F8F853D8F8F80381
:1029000000F00700A8424BD12068410707D5D8F84E
:102910000010E26821F4E0511143C8F800100007EC
:1029200008D5D8F80000216920F4604040EAC100D1
:10293000C8F8000000F09EF8D8F800104AF25C02D7
:10294000C1F30311C0F60002515C40F2481220FAB4
:1029500001F140F26820C2F200000068C2F20002F9
:102960001160FFF73BF90020BDE8F0816068811E2F
:10297000022907D258F8081C89015CBF0120BDE874
:10298000F08110E0012807D158F8081C89035CBFCA
:102990000120BDE8F08106E058F8081C890702D440
:1029A0000120BDE8F081D8F8001021F003010843B0
:1029B000C8F80000FFF7E2F8064641F2883700BF8A
:1029C000D8F80000616800F00C00B0EB810F8DD0EA
:1029D000FFF7D4F8801BB842F2D90320BDE8F0819C
:1029E0000F22026043F60802C4F20202136803F0E9
:1029F00003034360136803F0F0038360136803F478
:102A0000E053C360D2F800C04FF4E05303EADC03A4
:102A10000361D2F8F80300F0070008607047000077
:102A200040F24810C2F200000068704780B5FFF71E
:102A3000F7FF43F60801C4F2020109684AF26C028A
:102A4000C1F38221C0F60002515CC84080BD000085
:102A500080B5FFF7E5FF43F60801C4F202010968FB
:102A60004AF26C02C1F34231C0F60002515CC84028
:102A700080BD000010B543F60404C4F2020460688F
:102A800000F00C0008280AD0042819BF42F20040C8
:102A9000C0F2F40047F64000C0F27D1010BD20687F
:102AA00021682368490247F64001C0F27D1100F019
:102AB0003F02C3F388105CBF42F20041C0F2F40150
:102AC000A1FB00010023FDF7EFFB21680222C1F307
:102AD000014102EB4101B0FBF1F010BD2DE9F041E5
:102AE00082B0002800F0A2800446007843F6000679
:102AF000C007C4F2020643D0B06800F00C000428FE
:102B000005D1306880033BD56068C8BB8EE0B068F3
:102B100000F00C00082802D170684002F1D465680A
:102B2000B5F5A02F0AD0B5F5803F0BD0306820F462
:102B300080303060306820F4802006E0306840F457
:102B400080203060306840F480303060FFF716F845
:102B5000002D054611D000BF3068800310D4FFF768
:102B60000DF8401B6428F7D922E100BFFFF706F8F3
:102B7000401B64284FF0030055D830688003F5D41B
:102B8000207880071AD5B06810F00C0F09D0B06813
:102B900000F00C00082840F08A807068400200F1C4
:102BA00086803068800702D5E06801283ED1306811
:102BB000216920F0F80040EAC10030602078000769
:102BC00038D4207840074CD4A5695DB3B06800F0D4
:102BD0000C00082840F09E80012D27D07068E16924
:102BE00000F480028A4221D1216A00F03F028A4229
:102BF0001CD147F6C071626A0140B1EB821F15D14A
:102C0000A26A0023CFF6FF7303EBC23200F4403117
:102C10006FF30F02914209D1E16A00F07060B0EBEE
:102C2000016F03D1002002B0BDE8F081012002B0A5
:102C3000BDE8F0816069002840F20000C4F247203E
:102C400057D00121C0F8801EFEF798FF054600BF4F
:102C5000706F8007B5D4FEF791FF401B0228F7D9AB
:102C6000A6E0306C10F080580AD100200190306C42
:102C700040F080503064306C00F08050019001983A
:102C800047F20007C4F200073868C00524D438684A
:102C900040F480703860FEF771FF05463868C00563
:102CA0001AD4FEF76BFF401B0228F7D980E0E068DA
:102CB000002851D00020C4F2472001210160FEF716
:102CC0005DFF0546306880073FF571AFFEF756FFA0
:102CD000401B0228F6D96BE0A568052D50D0012DC8
:102CE00052D0306F20F001003067306F20F00400C8
:102CF0004DE00021C0F8801EFEF740FF054600BFF2
:102D0000706F80077FF55DAFFEF738FF401B02282C
:102D1000F6D94DE00027C4F2472700203866FEF7B9
:102D20002DFF022D05460BD13068800158D5FEF7E6
:102D300025FF401B02284FF00300F5D973E700BFC1
:102D4000306880017FF56EAFFEF718FF401B022848
:102D50004FF00300F4D966E70020C4F247200021B9
:102D60000160FEF70BFF0546306880077FF526AF50
:102D7000FEF704FF401B02284FF00300F4D952E78E
:102D8000306F40F004003067306F40F00100306772
:102D9000FEF7F4FE002D054641F2883714D000BF3F
:102DA000306F800713D4FEF7E9FE401BB842F7D915
:102DB000032002B0BDE8F081FEF7E0FE401BB84200
:102DC0004FF003003FF62FAF306F8007F4D4B8F117
:102DD000000F7FF4F9AE306C20F080503064F3E6E1
:102DE00004F11C052FCD08430021CFF6FF7140EA06
:102DF000821001EBC3316FF30F0140EA0560084315
:102E0000706001203866FEF7B9FE04463068800124
:102E10003FF508AFFEF7B2FE001B02284FF003009B
:102E2000F4D900E77047000070470000B0B590F893
:102E30003C20012A04BF0220B0BD01F108053CCDB1
:102E4000D1E900CE23F47C5322F470521A432EF4BD
:102E5000F0431A432CF4E0431A4324F4C0431A43CA
:102E60002A43C96922F4804203681143596400214E
:102E700080F83C100846B0BD10B590F83C20012AFF
:102E80004FF0020252D0012380F83C3080F83D2000
:102E90000268D2F804E0D2F808C00C682EF0700383
:102EA000234341F2FF74C4F20004A24253600DDCDC
:102EB00040F2FF73C4F200039A4215DCB2F1804F76
:102EC00029D040F20043C4F2000322E040F2FF3375
:102ED000C4F201039A4212DC41F60003C4F200037B
:102EE0009A4218D0002312E040F60003C4F2000317
:102EF0009A4210D040F60043C4F2000309E044F2C5
:102F00000003C4F201039A4205D040F20043C4F228
:102F100001039A4204D149682CF08003194391605F
:102F20000121002280F83D1080F83C20104610BDA1
:102F3000002804BF0120704710B5044690F83D00FA
:102F400028B9002084F83C00204600F01FF8022039
:102F500084F83D002068211D01F0D2FC012084F896
:102F6000460084F83E0084F83F0084F8400084F86E
:102F7000410084F8420084F8430084F8440084F857
:102F8000450084F83D00002010BD000081B00068BD
:102F90000021C4F20101884201D001B07047002035
:102FA000009043F64400C4F20200016841F00101C0
:102FB0000160006800F001000090009801B07047C7
:102FC00090F83D1001291CBF01207047022180F8B4
:102FD0003D10006841F2FF72C168C4F200029042E5
:102FE00041F00101C1600DDC40F2FF71C4F200014B
:102FF000884215DCB0F1804F29D040F20041C4F284
:10300000000122E040F2FF31C4F20101884212DCEB
:1030100041F60001C4F20001884218D0002112E0FC
:1030200040F60001C4F20001884210D040F6004191
:10303000C4F2000109E044F20001C4F20101884237
:1030400005D040F20041C4F20101884206D18168F6
:1030500001F00701062904BF00207047016841F014
:10306000010101600020704710B5044690F83C0053
:1030700001284FF0020008BF10BD012284F83C2057
:1030800084F83D0020684FF6777382689A43826027
:103090000A684F2A0FDC1F2A22DD202A23D0302A7B
:1030A00021D0402A4DD14B68CA68194601F0A4FDD1
:1030B000206840213BE06F2A17DDB2F5005F20D089
:1030C000B2F5805F2AD0702A3BD1D1E9012CCB68C0
:1030D000614601F0B9FC2068816841F077011AE08F
:1030E0000AB1102A2DD1114621E0502A18D0602AA9
:1030F00027D14B68CA68194601F090FD206860210D
:1031000015E0D1E9012CCB68614601F09DFC2068F7
:10311000816841F48041816000200BE0002009E0DB
:103120004B68CA68194601F067FD2068502101F01C
:1031300097FC0020012184F83D10002184F83C1008
:1031400010BD0120F6E700007047000010B50446EE
:1031500000680169890744BFC1685FEA817138D49A
:1031600020680169490744BFC1685FEA41713CD4E6
:1031700020680169090744BFC1685FEA017141D451
:1031800020680169C90644BFC1685FEAC16145D4CE
:1031900020680169C9071CBFC1685FEAC1714AD1D3
:1031A00020680169090644BFC1685FEA016149D42A
:1031B00020680169490644BFC1685FEA416148D49B
:1031C00020680169890644BFC1685FEA816147D40C
:1031D00010BD6FF002010161012121778069800734
:1031E00045D02046FFF7B0FF47E06FF004010161D2
:1031F00002212177806910F4407F41D02046FFF7FB
:10320000A3FF43E06FF00801016104212177C06949
:1032100080073ED02046FFF797FF40E06FF0100197
:10322000016108212177C06910F4407F3AD020461F
:10323000FFF78AFF3CE06FF001010161204600F0DA
:10324000B7F9ADE76FF0800101612046FFF7EAFDB5
:10325000AEE76FF040010161204600F0B1F9AFE741
:103260006FF0200101612046FFF7DEFD10BD204612
:1032700000F072F8204600F007F9002020776FE791
:10328000204600F069F8204600F0FEF80020207784
:103290006EE7204600F060F8204600F0F5F80020C8
:1032A00020776DE7204600F057F8204600F0ECF854
:1032B000002020776CE7000080B586B0006840F6FB
:1032C0000002C4F2000200219042CDE90411CDE9D0
:1032D000021101911ED00021C4F20101884238D1AF
:1032E0000020009043F63000C4F20200016841F073
:1032F000100101600068012100F0100000900098AA
:103300004FF4D440019040F60040C4F2020000F5B2
:10331000806015E043F630000091C4F202000168BD
:1033200041F0080101600068022100F008000090EF
:1033300000984FF48050019040F60040C4F2020023
:10334000022202920022059101A9CDE90322FEF793
:1033500041FB06B080BD000070470000B0B50446D8
:1033600090F83C00012804BF0220B0BD0D464FEA92
:10337000B2010120032984F83C0037D8DFE801F0CE
:10338000020A12222068294601F072FB206850F8D8
:10339000181F0EE02068294601F09CFB206850F8B9
:1033A000181F16E02068294601F0CAFB206850F873
:1033B0001C1F41F008010160016821F00401016057
:1033C00029690FE02068294601F0EEFB206850F8DB
:1033D0001C1F41F400610160016821F480610160FB
:1033E000296909020268114301600020002184F864
:1033F0003C10B0BD002804BF0120704710B5044642
:1034000090F83D0028B9002084F83C00204600F0E8
:103410001FF8022084F83D002068211D01F070FA99
:10342000012084F8460084F83E0084F83F0084F8C8
:10343000400084F8410084F8420084F8430084F896
:10344000440084F8450084F83D00002010BD0000D1
:1034500081B0006840F60001C4F20001884201D04A
:1034600001B070470020009043F64000C4F2020013
:10347000016841F004010160006800F00400009060
:10348000009801B0704700007047000010B5044676
:1034900041B1082909D0042914BF04F1410004F105
:1034A0003F0004E004F13E0001E004F14000007838
:1034B00001281CBF012010BD022041B1082909D0FC
:1034C000042914BF84F8410084F83F0004E084F824
:1034D0003E0001E084F840002068012201F0A2FAD9
:1034E000206841F2FF71C4F2000188420FDC40F213
:1034F000FF71C4F20001884217DCB0F1804F49D05F
:1035000040F20041C4F20001884243D049E040F259
:10351000FF32C4F20102904214DC41F60003C4F20F
:103520000003984236D0002314E040F60001C4F2B4
:10353000000188422ED040F60041C4F200018842CA
:1035400028D02EE044F20003C4F20103984221D0B7
:1035500040F20043C4F20103984222D1436C8842F6
:1035600043F400434364C2DD904207DC41F60001AE
:10357000C4F2000188420DD0002107E044F20001AE
:10358000C4F20101884205D040F20041C4F20101B9
:10359000884206D1816801F00701062904BF002096
:1035A00010BD016841F001010160002010BD000064
:1035B00080B50068B0F1804F08BFFEF7E5FA80BD26
:1035C000704700007047000010B50446006840696D
:1035D00094F83D10212915D110F0800012D000BFC1
:1035E000206850E8050F216820F0800041E80502BE
:1035F000002AF5D1606B002818BFFEF737F8204687
:1036000001F0BAFB2068406994F83E10222915D1D8
:1036100010F0400012D000BF206850E8050F21686C
:1036200020F0400041E80502002AF5D1A06B0028F7
:1036300018BFFEF71BF8204601F076FB002010BDF6
:1036400070470000002804BF0120704710B50446F1
:1036500090F83D0028B9002084F83C00204600F096
:1036600021F8242084F83D002068C16821F400512D
:10367000C160204601F08EFB2068016921F4904171
:103680000161416921F02A014161C16841F40051A1
:10369000C16000202021206484F83D1084F83E1091
:1036A00010BD00002DE9F04387B00446006844F6E1
:1036B0000001C4F2000100268842CDE90566CDE98B
:1036C0000366029671D044F20041C4F200018842C0
:1036D00040F0DF80002643F630000196C4F202007D
:1036E000016946F2280841F4003101610169C4F220
:1036F000020801F40031019101990196016841F03D
:1037000008010160006802A900F00800019001981A
:10371000602002900220CDE90306032005900720D7
:10372000069040F20040C4F2020000F50060FEF78F
:1037300051F941F6103508F16000C2F200054FF072
:1037400000674FF48069C5E900072846C5E90266AD
:10375000C5E90496C5E90666C5E90866FEF78CF872
:10376000002818BFFDF7C4F9A563AC6341F67035B6
:1037700008F17800C2F200054021C5E9000705F113
:10378000080080E842022846C5E90566C5E90766E3
:103790006E62FEF771F800286ED0FDF7A9F941F6C8
:1037A00070352626C2F2000569E043F63000019626
:1037B000C4F20200016946F2280841F48021016147
:1037C0000169C4F2020801F4802101910199019676
:1037D000016841F002010160006802A900F00200E6
:1037E000019001984FF4406002900220CDE9030659
:1037F000032005900720069040F20040C4F202002A
:10380000FEF7E8F841F6D035C2F200054FF0006748
:103810004FF480692846C5E90087C5E90266C5E915
:103820000496C5E90666C5E90866FEF725F800288E
:1038300018BFFDF75DF9A563AC6341F6304508F1AB
:103840003000C2F200054021C5E9000705F108007B
:10385000002280E806022846C5E90522C5E90722BC
:103860006A62FEF709F848B1FDF742F941F63045C2
:103870002726C2F2000502E0262600E02726304671
:10388000052100226563AC63FEF72AFA3046FEF795
:1038900023FA07B0BDE8F08310B590F83E30202B36
:1038A0000BD100294FF0010418BF002A01D1204696
:1038B00010BD90F83C30012B01D1022010BD012336
:1038C000002480F83C30046301F0D2FA204610BD99
:1038D00070470000704700002DE9F04381B00446B6
:1038E00090F83D0020280BD10E4600294FF0010032
:1038F00055D01746002A52D094F83C00012803D135
:10390000022001B0BDE8F083012084F83C004FF0B4
:10391000000921201D46C4F8409084F83D00FEF7C0
:103920002DF9A784E784A1680746B1F5805F07D128
:10393000206900281CBF30464E46B046064601E0CE
:103940004FF0000884F83C9007E000BF16F8010B28
:1039500021684860E08C0138E084E08C80B120462A
:1039600080213A462B4601F0D1FA80B9002EEDD1E4
:1039700038F8020B21686FF35F2048600026E9E702
:10398000204640213A462B4601F0C0FA18B10320E8
:1039900001B0BDE8F083202084F83D00002001B094
:1039A000BDE8F083FEE7000084B00120002103227F
:1039B000012404F0A5FB40F22008C2F20008C8F878
:1039C000140046F2201747F6813008F10C03C2F2CA
:1039D0000007C0F6000014A150220094019704F0E3
:1039E000E9FD04F06BFE42F2C44441F6E82540F2E2
:1039F0004C26C2F20004C2F20005C2F2000603AF78
:103A0000039000BFB4F90010404600F0E5FE2846E0
:103A10003146FCF743FF052004F0D8F83846022170
:103A200004F0FEF8EEE700BF76507574746F725FB5
:103A30007461736B000000000A8813BA4FEA134CDC
:103A4000A0F800C082884988C2EB134209BA0B0C67
:103A500011B2B1F57A6F438002DDC288013AC280AB
:103A600011F57A6F02DAC1880131C180B0F9061010
:103A70009FED071A0CEB413100EE101AB8EEC00AA8
:103A800020EE010A816080ED030AA0F804C07047AF
:103A90000000343D80B541F6C02046F20041C2F23C
:103AA0000000C4F200010622002380E80E0000F1AD
:103AB0000C014FF4003C4FF4001E81E80850836174
:103AC0008383FDF7A7FB002818BFFDF711F880BD21
:103AD00080B541F6E82046F60001C2F20000C4F2CB
:103AE00000010622002380E80E0000F10C014FF4D3
:103AF000003C4FF4001E81E8085083618383FDF78A
:103B000089FB002818BFFCF7F3FF80BD80B582B0A9
:103B10000020019043F63000C4F202000168002248
:103B200041F4001101600068052100F400100190CB
:103B300001980C20FEF7D4F80C20FEF7CDF80E20EB
:103B400005210022FEF7CCF80E20FEF7C5F8102064
:103B500005210022FEF7C4F81020FEF7BDF8112061
:103B600005210022FEF7BCF81120FEF7B5F802B0DF
:103B700080BD000010B588B04AF24000C0F60000D9
:103B800090E80E50D0E905400191CDE9064001A82A
:103B9000002102920393CDF810C0CDF814E003F099
:103BA000E7F941F2A871C2F20001086008B010BD47
:103BB0002DE9F04387B0002743F630000697CDE9A2
:103BC0000477CDE902770197C4F20200016800256D
:103BD00041F0800101600168C4F2020501F080013A
:103BE0000191019901970168002241F001010160F2
:103BF0000168702601F001010191019901970168A6
:103C000041F002010160016801F002010191019996
:103C10000197016841F010010160016801F0100195
:103C2000019101990197016841F008010160006864
:103C3000702100F00800019001982846FDF798FFD8
:103C400005F580642046032100224FF00308FDF7AC
:103C50008FFF029602AE4FF0010928463146CDE9AA
:103C600003970597FDF7B6FE8020CDE902072846A9
:103C700031460497FDF7AEFE20463146CDE9028974
:103C8000CDE90477FDF7A6FE07B0BDE8F08300009C
:103C900010B596B042F2A01000220021C2F200003E
:103CA000C4F20102A72344F61F641591CDE9131154
:103CB000CDE91111CDE90F11CDE90D11CDE90B11B0
:103CC000CDE90911CDE90711CDE90511CDE90311C0
:103CD000CDE90111C0E90023C0E90214C0E90411D3
:103CE0008161FFF725F9002818BFFCF701FF4FF4A9
:103CF0008050129042F2A010C2F2000012A9FFF709
:103D0000B3F9002818BFFCF7F3FE42F2A010C2F28C
:103D10000000FFF76FFB002818BFFCF7E9FE42F236
:103D2000A0100024C2F2000010A9CDE91044FFF752
:103D3000A3F8002818BFFCF7DBFE60200990642080
:103D4000CDE90A0442F2A010C2F2000009A9002243
:103D5000CDE90C44CDE90E44FFF700FB002818BF65
:103D6000FCF7C6FE00200A9042F2A010C2F200004A
:103D700009A90422FFF7F2FA002818BFFCF7B8FEE1
:103D800042F2A010C2F2000009A90822FFF7E6FAE9
:103D9000002818BFFCF7ACFE42F2A010C2F20000EF
:103DA00009A90C22FFF7DAFA002818BFFCF7A0FED9
:103DB00000200590CDE90300CDE901004FF400514A
:103DC000089042F2A0100691C2F2000001A9FFF78C
:103DD0002DF8002818BFFCF78BFE42F2A010C2F2AB
:103DE0000000FFF769FA16B010BD000010B58AB0E8
:103DF00042F2302040F600010024C2F20000C4F27A
:103E000000014FF6FF720994CDE90744CDE905445E
:103E1000CDE90344CDE90144C0E90014C0E9024200
:103E200004618461FFF7E6FA002818BFFCF760FE22
:103E300042F23020C2F2000008A9CDE90844FFF7A1
:103E40001BF8002818BFFCF753FE602001900020EB
:103E5000CDE90200059042F23020C2F2000001A933
:103E60000022FFF77BFA002818BFFCF741FE42F260
:103E70003020C2F20000FFF71FFA0AB010BD0000A8
:103E800080B542F2782044F20041C2F20000C4F250
:103E9000000100234FF00C0C4FF4E13280E80E00DB
:103EA000C0E90333C0E905C3C361FFF7CBFB0028BA
:103EB00018BFFCF71DFE80BD80B542F2BC2044F661
:103EC0000001C2F20000C4F2000100234FF00C0C0C
:103ED0004FF4E13280E80E00C0E90333C0E905C3C6
:103EE000C361FFF7AFFB002818BFFCF701FE80BDE0
:103EF00080B541F2E47040F20401C2F20000C2F267
:103F00000001002201F064FD002818BFFCF7F0FD5D
:103F100041F2E47040F24C11C2F20000C2F2000122
:103F200001F068FF002818BFFCF7E2FD41F2E470E1
:103F300040F2E811C2F20000C2F2000101F092FA70
:103F4000002818BFFCF7D4FD41F2E470C2F2000073
:103F500002F012F8002818BFFCF7CAFD80BD00006F
:103F6000FEE7000080B582B013881BBA4FEA134CFD
:103F70005388ADF800C01BBA4FEA134C9388D2881F
:103F80001BBA12BA120C1B0CADF806206A46ADF82B
:103F900002C0ADF80430FCF7C1FC02B080BD0000E7
:103FA000FEE7000000F0070080F00703042B28BFA5
:103FB00004234FF0FF3C03380CFA03F338BF002012
:103FC000994381400CFA00F022EA00000843704750
:103FD00080B541F69440C2F20000FEF70DF880BDB6
:103FE00070B50446006843F20B06056C00EB411007
:103FF000D0F8081BC4F65476B54207D311F400413B
:104000001EBF00F530604FF4004181602046FEF78E
:10401000F3FBB54209D32069012818BF70BD2068A1
:1040200004F2C442012102F04DFB70BD70B504469C
:1040300000680E4600EB4111036CD1F8082B25698E
:1040400001F53061012D27D1150737D4950650D4DD
:1040500012F0280F18BF70BD43F20B05C4F654755B
:10406000AB4202D312F4004231D106EBC60204EB9C
:104070008202D2F8983209696FF3DF41A3EB0101A4
:10408000C2F89C12AEB9D2F89432ABB3D2F88C021B
:104090000844C2F88C020CE043F20B05C4F65475D8
:1040A000FF35AB4217D1100411D4900644BF202035
:1040B0008860F1B22046FDF767FE70BD43F20B0049
:1040C000C4F65470834213D312F4004010D04FF45E
:1040D0000040886070BD3EB9D4F8941221B904F252
:1040E000C442002102F0EEFAF1B22046FDF74CFE88
:1040F00070BD2020886070BD04F2C442012102F02E
:10410000E1FAD6E72DE9F04F85B0064601EBC10094
:1041100006EB8000054655F8547F2C4654F8082FCE
:10412000974254D38346D6F800C05BF8483FBA1A8A
:104130009A4288BF1A460291CDF810C00CEB41118B
:10414000D1F8183903329BB2B3EB920F2ED300F1A2
:104150004C08029801F510615FFA80FA039100BFE4
:1041600020682968814221D9DBF80020A1EB0009F1
:104170009145D8F80010377C88BF914604981FFA03
:1041800089F35246009702F0CFFDD8F8000021686D
:104190004844C8F8000001EB09002060039809F1C9
:1041A0000301806980B2B0EB910FD9D228682168F1
:1041B000884202980BD8049B00F00F000121D3F82D
:1041C000342801FA00F022EA0000C3F8340805B0F0
:1041D000BDE8F08F90ED063A90ED032A30EEC00A6C
:1041E00090ED041A30EE033AB4EE423A80ED040A40
:1041F00080ED051AF1EE10FA80ED063AC8BF80EDA9
:10420000062A90ED063AB1EE422AB4EE423AF1EEB9
:1042100010FAB8BF80ED062A90ED002A90ED013A21
:1042200090ED065A90ED024A20EE022A23EE053A5E
:1042300030EE410A32EE032A20EE040A32EE000A82
:1042400080ED070A7047000084B004F037FA40F2AE
:10425000C404C2F2000403909FEDD58A9FEDD59A65
:1042600040F2E42504F120009FEDD3AA9FEDD3BADC
:104270009FEDD3CA9FEDD3DA42F2003940F24407F2
:1042800044F2000844F2000A40F2F426C2F20005AB
:10429000029004F1400004F1600BC2F20009C2F286
:1042A0000007CCF21C68C4F21C6AC2F2000601903E
:1042B00042F2E030C2F20000B0F9020000EE100A53
:1042C00040F21830C2F20000D0ED000AB8EEC00A89
:1042D0002046FFF77FFF94ED070A42F2E031B4EE8B
:1042E000480AF1EE10FABEBF4FF60060CCF2FF6054
:1042F000E06194ED070AC2F20001B4EE490AF1EE62
:1043000010FAC2BF4FF60060C4F2FF60E06194EDA6
:10431000070AB1F91210BDEEC00A10EE100A28808B
:1043200040F21C30C2F2000000EE101AD0ED000A7C
:104330000298B8EEC00AFFF74DFF94ED0F0A42F263
:104340004031B4EE480AF1EE10FABEBF4FF60060FD
:10435000CCF2FF60E06394ED0F0AC2F20001B4EE0C
:10436000490AF1EE10FAC2BF4FF60060C4F2FF60D6
:10437000E06394ED0F0AB1F90210BDEEC00A10EE31
:10438000100A688040F22030C2F2000000EE101ADD
:10439000D0ED000A0198B8EEC00AFFF71BFF94EDBC
:1043A000170A42F24031B4EE4A0AF1EE10FABEBFEB
:1043B0000020CCF28060E06594ED170AC2F20001A3
:1043C000B4EE4B0AF1EE10FAC4BF4FF08D40E06539
:1043D00094ED170AB1F92A10BDEEC00A10EE100ACA
:1043E000A88040F22430C2F2000000EE101AD0ED96
:1043F000000AB8EEC00A5846FFF7ECFE94ED1F0A1B
:104400004FF40071B4EE4A0AF1EE10FABEBF00207C
:10441000CCF28060E06794ED1F0A2A46B4EE4B0AA6
:10442000F1EE10FAC4BF4FF08D40E06794ED1F0A23
:10443000BDEEC00A10EE100AE88041F6C020C2F2BC
:104440000000FFF78FFDB9F9020000EE100A40F2FC
:104450002830C2F20000D0ED000AB8EEC00A38469B
:10446000FFF7B8FE97ED070AB4EE4C0AF1EE10FA2A
:10447000B8BFC7F81C8097ED070AB4EE4D0AF1EEFD
:1044800010FAC8BFC7F81CA097ED070AB9F91210B7
:10449000BDEEC00A10EE100A308040F22C30C2F29D
:1044A000000000EE101AD0ED000AB8EEC00A07F1C5
:1044B0002000FFF78FFE97ED0F0AB4EE4C0AF1EEE5
:1044C00010FAB8BFC7F83C8097ED0F0AB4EE4D0A5A
:1044D000F1EE10FAC8BFC7F83CA097ED0F0AB9F982
:1044E0002210BDEEC00A10EE100A708040F20000EB
:1044F000C2F2000000EE101AD0ED000AB8EEC00AB9
:1045000007F14000FFF766FE97ED170AB4EE4C0A7C
:10451000F1EE10FAB8BFC7F85C8097ED170AB4EE59
:104520004D0AF1EE10FAC8BFC7F85CA097ED170A64
:10453000B9F93210BDEEC00A10EE100AB08040F298
:104540003030C2F2000000EE101AD0ED000AB8EED2
:10455000C00A07F16000FFF73DFE97ED1F0A4FF418
:104560000071B4EE4C0AF1EE10FAB8BFC7F87C80C7
:1045700097ED1F0A3246B4EE4D0AF1EE10FAC8BFAD
:10458000C7F87CA097ED1F0ABDEEC00A10EE100A16
:10459000F08041F6E820C2F20000FFF7E3FC0120C2
:1045A00003F014FB03A8022103F03AFB80E600BFEE
:1045B00000FEFFC600FEFF46000080C600008046E9
:1045C00000401CC600401C46000000000000000027
:1045D000EFF30980BFF36F8F154B1A681EF0100FB1
:1045E00008BF20ED108A20E9F04F10602DE9090086
:1045F0004FF0500080F31188BFF34F8FBFF36F8FE0
:1046000003F0B0FC4FF0000080F31188BDE8090012
:1046100019680868B0E8F04F1EF0100F08BFB0EC42
:10462000108A80F30988BFF36F8F704700BF00BF07
:104630001024002080B542F2782040F23821C2F2E6
:104640000000C2F2000105224FF0FF33FFF744F9EA
:1046500080BD0000401A00EE100A0128B8EEC00A22
:1046600015DB01EE102AB8EEC11AB4EE410AF1EEE4
:1046700010FAC4BF5018704701EE101AB8EEC11AF4
:1046800031EE000ABDEEC00A10EE100A704750422B
:1046900001EE100AB8EEC11AB4EE410AF1EE10FABA
:1046A000BCBF881A7047E7E710B50024C4F20204C3
:1046B000204620210122FDF75BFA2046102101222D
:1046C000FDF756FA204640210122FDF751FA10BDB0
:1046D000B0B50A88044612BA150C05804888A3892B
:1046E00000BA4FEA104CA4F802C08888C3EB12430A
:1046F00000BA020CA280887919B2B1F57A6FA07164
:1047000002DDE0890138E08111F57A6F02DAE08993
:104710000130E081B4F90E009FED0B1A05EB40303B
:1047200000EE100AB8EEC00A206120EE010A0FFA6E
:104730008CF011B204F1180284ED050AFCF7DEF9E1
:1047400084ED020AA581B0BD0000343D0A8813BA89
:104750004FEA134CA0F800C082884988C2EB13428C
:1047600009BA0B0C11B2B1F57A6F438002DDC28831
:10477000013AC28011F57A6F02DAC1880131C18035
:10478000B0F906109FED071A0CEB413100EE101A3C
:10479000B8EEC00A20EE010A816080ED030AA0F89D
:1047A00004C070470000343D00000000000000001D
:1047B000074B19680868B0E8F04F80F30988BFF329
:1047C0006F8F4FF0000080F31188704700BF00BF6B
:1047D000102400200088704780B54269818010460F
:1047E00000210022002303F0EBFC80BDFFF780FBDB
:1047F00002F0B6FF002003F067FA00BF012002F0CC
:10480000A9FBFBE780B54FF0500080F31188BFF3A0
:104810006F8FBFF34F8F03F057FF30B14EF6045048
:10482000CEF200004FF080510160002080F311882B
:1048300080BD000070B592B006AC20463021FBF779
:10484000F0FD002543F640000595CDE90355CDE97F
:1048500001550095C4F202000168022641F0805122
:104860000160006800F080500090009847F200005E
:104870000095C4F20000016841F4804101600068C5
:1048800000F4804000900098012006904FF48030A2
:1048900007904FF480000D9019200E904FF4A870EF
:1048A000CDE90F060720119020460C96FEF716F969
:1048B00088B90F20CDE901064FF4A05004904FF4C1
:1048C0008050059001A805210395FDF7D9FF002828
:1048D00004BF12B070BDFCF70BF900004EF6885013
:1048E000CEF20000016841F47001016070470000E1
:1048F00080B542F2E810C2F20000FEF727FC80BD4E
:1049000010B540F6FF3E0368C4F2000E40F2004CC2
:104910007045C4F2010C0FDCB0F1804F19D040F2A9
:104920000042C4F20002904213D040F60002C4F2EA
:10493000000290420DD010E040F60042C4F20002A6
:10494000904206D0604504D00022C4F20102904299
:1049500003D14A6823F07003134341F6FF72C4F297
:10496000000290420DDC70451FDCB0F1804F41D059
:1049700040F20042C4F2000290423BD040F60002F6
:1049800021E043F6FF72C4F20102904220DC42F2C1
:104990000002C4F2000290422CD00022C4F20102B4
:1049A000904227D0604525D028E040F60042C4F26E
:1049B000000290421ED041F60002C4F20002904272
:1049C00018D041F60042C4F20002904212D015E025
:1049D00044F20002C4F2010290420BD044F60002FD
:1049E000C4F20102904205D044F20042C4F2010236
:1049F000904203D1CA6823F44073134323F080022A
:104A00004B69D1F800E08C681A430260C46240F43C
:104A10008062C0F828E0624504BF09690163012192
:104A2000416110BD80B501F01F014FF0010CD0F8BD
:104A300020E00CFA01F32EEA03030362036A02FA90
:104A400001F11943016280BDD0F808C011432CF474
:104A50007F4C41EA032141EA0C018160704700006C
:104A6000826822F07002114341F0070181607047B3
:104A7000B0B5026A40F2004522F001020262026A09
:104A8000D0F804E0D0F818C08C6822F0020240F49C
:104A90008063C4F20105AB4242EA040205D1CC684E
:104AA00022F00C0224F0040422430C68AB4207D12C
:104AB000D1E905532EF4407E45EA0E0545EA030E82
:104AC0002CF073032343C0F804E083614968416319
:104AD0000262B0BD70B5026A40F2004422F01002DA
:104AE0000262026AD0F804E0D0F818C08D6822F0A3
:104AF000200240F48063C4F20104A34242EA05129A
:104B000007D1CD686FF0400622F0C00206EA051515
:104B10002A430D68A34207D1D1E905642EF440630E
:104B200043EA860343EA840E2CF4E64343EA052372
:104B3000C0F804E0836149688163026270BD0000CF
:104B400070B5026A40F2004422F480720262026A86
:104B5000D0F804E0D0F81CC08D6822F4007240F454
:104B60008063C4F20104A34242EA052207D1CD6862
:104B700040F2FF462D0222F44062B5432A430D68FD
:104B8000A34207D1D1E905642EF4405343EA06134A
:104B900043EA041E2CF073032B43C0F804E0C36106
:104BA0004968C163026270BD70B5026A40F2004696
:104BB00022F480520262026A4368D0F81CE00C685A
:104BC000D1F808C040F48065C4F20106B54204D1B2
:104BD0004D6923F4804343EA85132EF4E64646EA02
:104BE00004264360C66122F40052496842EA0C324E
:104BF0000164026270BD0000D0F820C0036A23F097
:104C000001030362836923F0F00343EA02122CF0EC
:104C10000A0319438261016270470000036A23F0AE
:104C2000100303628369D0F820C023F4704343EA81
:104C300002322CF0A00343EA011182610162704745
:104C400010B5846B2068406994F83D10212907D184
:104C500010F0800004D00020E084204600F08CF8A2
:104C60002068406994F83E10222907D110F04000D6
:104C700004D00020E085204600F056F8206C40F07B
:104C8000100020642046FEF7DBFC10BD80B50168F3
:104C9000806B0968C9052FD40021C185016851E8DE
:104CA000031F026821F4807142E80313002BF5D141
:104CB000016851E8051F026821F0010142E805136F
:104CC000002BF5D1016851E8051F026821F0400171
:104CD00042E80513002BF5D1202180F83E10016B2E
:104CE000012909D1016851E8031F026821F0100170
:104CF00042E80313002BF5D1016B012903D1818D0B
:104D0000FEF760FC80BDFEF7E3FD80BD80B5806BE3
:104D1000016B012904D1818D4908FEF753FC80BD48
:104D2000FEF7D8FD80BD0000016851E8031F02684E
:104D300021F4907142E80313002BF5D1016851E88A
:104D4000051F026821F0010142E80513002BF5D18F
:104D5000016B01290AD100BF016851E8031F0268F5
:104D600021F0100142E80313002BF5D1202180F837
:104D70003E10002101637047016851E8031F02687B
:104D800021F0C00142E80313002BF5D1202180F867
:104D90003D10704710B504460068D4E902C223698B
:104DA000016921F4405111430161626943EA0C0138
:104DB000E3691143C268194349F20C639A431143F2
:104DC000C1604169A26921F4407141F2004311437D
:104DD00040F48062C4F201039A42416102D1FDF7BE
:104DE00037FE01E0FDF722FEE16963681922B1F5A3
:104DF000004FA0FB02011CD15A00DB0FFBF754FA55
:104E000048F21F51C5F2EB11A0FB01235A096FF0C4
:104E1000630302FB0300322303EBC000A0FB01018C
:104E20004FF4F87000EA111000EB0210C1F34211C8
:104E30001AE09A009B0FFBF737FA48F21F51C5F2B0
:104E4000EB11A0FB01235A096FF0630302FB03007F
:104E5000322303EB0010A0FB0101F02000EA511007
:104E600000EB0210C1F3431122680843906010BDAB
:104E700070B582B0134600260446816283850664BD
:104E8000222084F83E000A462168A06B44F68D4C2F
:104E900044F60D5E44F64145C0F6000CC0F6000E27
:104EA000C0F600050431C0E90FCEC0E91356FCF787
:104EB0004BFD0196206801680191406801900198BE
:104EC000206984F83C6048B1206850E8030F2168ED
:104ED00040F4807041E80302002AF5D1206850E8D0
:104EE000050F216840F0010041E80502002AF5D1D4
:104EF000206850E8050F216840F0400041E80502B5
:104F0000002AF5D1002002B070BD00002DE9F0416B
:104F10000446006800680840884202D10020BDE8CD
:104F2000F0811D460E4690465F1C04E02068006834
:104F30003040B042F2D0002FF8D02DB1FCF71EFE69
:104F4000A0EB0800A842F1D9206850E8030F2168BF
:104F500020F4D07041E80302002AF5D1206850E81F
:104F6000050F216820F0010041E80502002AF5D173
:104F7000202084F83D0084F83E00002084F83C00A6
:104F80000320BDE8F0810000B0B542F27820C2F203
:104F9000000000680168C90644BFC0685FEAC060DD
:104FA00000D4B0BD42F27824C2F200042046FEF7DD
:104FB0000BFB40F26835C2F20005204629461C2250
:104FC000FEF76AFC40F2FC24C2F2000420462946A7
:104FD0001C22FBF7E1F940F28430C2F200000178B4
:104FE000042940D8DFE801F003073F1016002278BB
:104FF0000D2A0CD037E061780D2908BFB0BD0A2911
:1050000031D103210170B0BDA27E0A2A2BD101311A
:105010000170B0BDE17E0D2925D154F8021F46F282
:105020002042C2F20002116046F2184C6268C2F2DD
:10503000000CA368CCF8002046F21C42C2F2000229
:10504000E568136042F20442C2F200022169156071
:1050500042F20842C2F200021160616946F2241273
:10506000C2F20002116000210170B0BDB0B542F281
:10507000BC20C2F2000000680168C90644BFC068D5
:105080005FEAC06000D4B0BD42F2BC25C2F20005A8
:105090002846FEF799FA46F2D004C2F200042846E8
:1050A00021463222FEF7F8FBA379A07EE17E227F23
:1050B000372B01D0302BE6D1637F4FF6F05402EB53
:1050C0008205CFF6FF7404EB4505202A08BF6FF078
:1050D0002F05EA18642311FB0323202940F25431E1
:1050E00018BFA3F59652C2F2000120280A8008BF1B
:1050F000B0BD0A884FF47A7310FB032000F5894095
:105100000880B0BDB0B5D0F8D42200EB8202D2F84E
:10511000C03233B301F00F058C4605EB850100EB7F
:10512000810151F8184F64B1D0F8C8E205EBC5050C
:105130000EEB8505D5F848E0B4FBFEF505FB1E45F2
:105140008DB10024C3F81442D2F8C402056935B108
:10515000D3F8080203F504716246A84700242046EC
:10516000B0BD0320B0BD00240C60614600220023C6
:1051700000F024FE2046B0BDB0B50446D0F8D402FD
:1051800004EB8000D0F8C05295B1204600F0F0FC4E
:10519000D4F8D412C5F80C0204EB8101D1F8C41282
:1051A000D5F80402CA6805F5037190470020B0BD28
:1051B0000320B0BD70B58121044600F029FC002514
:1051C00020460121258700F023FC20468221A4F8F7
:1051D000785100F01DFCD4F8D402E56404EB8000A3
:1051E000D0F8C01289B1D0F8C40240688047D4F822
:1051F000D40204F5307656F8200000F0FBFFD4F816
:10520000D40246F82050C4F8BC52002070BD000003
:1052100010B5D0F8D41200EB8100D0F8C04284B1B0
:10522000D0F8C41279B194F80002FF280BD08B6833
:1052300094F8012221469847FF2084F800020020BC
:1052400010BD032010BD002010BD0000014640F23B
:10525000C8100A22C2F200000A807047F0B581B07F
:1052600040F28417C2F2000704463846822100F05B
:1052700029FB06463846012100F024FB0546384646
:10528000812100F01FFB002E1CBF1021B171002DE9
:105290001CBF4021A98000281CBF402181804321E0
:1052A00040F28410C2F20000218001B0F0BD000085
:1052B000F0B581B040F28417C2F2000704463846C8
:1052C000822100F0FFFA06463846012100F0FAFA82
:1052D00005463846812100F0F5FA002E1CBF10214A
:1052E000B171002D1CBF4FF40071A98000281CBFB4
:1052F0004FF400718180432140F28410C2F200001B
:10530000218001B0F0BD0000F0B581B040F28417FB
:10531000C2F2000704463846822100F0D3FA06465E
:105320003846012100F0CEFA05463846812100F0CA
:10533000C9FA002E1CBF1021B171002D1CBF4021E5
:10534000A98000281CBF40218180432140F28410A5
:10535000C2F20000218001B0F0BD00002DE9F04153
:1053600004464FF4077000F047FF00284DD04FF47B
:1053700007710546FBF755F8D4F8D402402704EB33
:105380008000C0F8C052207CC4F8BC52002808BF7E
:105390004FF400772046812102223B46022600F08E
:1053A0005DFC4FF001082046012102223B46A4F893
:1053B000388000F053FC1020A4F84E0020468221D3
:1053C00003220823A4F8788100F048FCD4F8D40222
:1053D0000027C5F8047204EB8000D0F8C402A4F8DA
:1053E0004C8000688047C5F81472C5F81872D5F86B
:1053F00004223AB1207C90B120460121402300F0E4
:1054000039FC00263046BDE8F081D4F8D4020021F2
:1054100004EB8000C0F8C0120220BDE8F0812046F5
:1054200001214FF4007300F025FC0020BDE8F0815D
:1054300080B5D0F8D41200EB8101D1F8C01271B15F
:1054400090F810C0D1F8042240230121BCF1000FD4
:1054500008BF4FF4007300F00DFC002080BD032056
:1054600080BD000000290FBF0320D0F8D42200EB3C
:105470008200C0F8C41218BF00207047D0F8D422B0
:1054800000EB8200D0F8C00200280EBF0320C0F855
:105490000412002070470000D0F8D43200EB8300E3
:1054A000D0F8C00200280FBF0320C0F80812C0F8CF
:1054B000102200207047000070B582B00446D0F87A
:1054C000D4020D4604EB8000D0F8C06200218DF8B4
:1054D0000710ADF80410C6B1297811F0600216D09B
:1054E000202A2BD1EA88002A2ED0090635D46878E4
:1054F000314686F800022046402A28BF402286F81E
:10550000012200F0A3F8002660E003265EE0687840
:105510000B2844D80026DFE800F0065942424242F8
:1055200042424242303C94F89C0203283DD101A9FA
:105530002046022200F0A4F8002647E02046294633
:1055400000F07AF8032641E0D0F8C40229468368C7
:10555000687800220026984738E0D0F8C402314627
:10556000836868789847EA8820463146072A28BF2A
:10557000072200F085F8002628E094F89C02032812
:1055800019D10DF107012046012200F079F800261B
:105590001CE094F89C02032813D1002616E0204654
:1055A000294600F049F8032610E02046294600F07D
:1055B00043F803260AE02046294600F03DF803267A
:1055C00004E02046294600F037F80326304602B0B2
:1055D00070BD000080B5D0F8B8225268904700280E
:1055E00018BF032080BD000080B590F89C22013ACE
:1055F000022A09D84988012918BF80BD0021C0F8B6
:10560000A41200F04BF880BD00F016F880BD000039
:10561000002070470020704780B513460A460021DD
:1056200000F028FB002080BD80B513460A4600210B
:1056300000F0C4FB002080BD10B58021044600F0BE
:10564000A3FB2046002100F09FFB10BD80B5134650
:105650000A460321C0F894120021C0E9563300F035
:1056600009FB002080BD000080B50521C0F8941220
:1056700000210022002300F0FDFA002080BD000080
:1056800080B513460A460221C0F894120021C0E9F1
:10569000063300F093FB002080BD000080B504219C
:1056A000C0F8941200210022002300F087FB0020A4
:1056B00080BD000010B540F28834C2F200040A46F2
:1056C00002A0214600F054F9204610BD4344432077
:1056D000436F6E666967000040F2D4101222C2F276
:1056E00000000A807047000010B540F28834C2F212
:1056F00000040A4602A0214600F03AF9204610BDF7
:1057000043444320496E746572666163650000001E
:1057100040F2FC100422C2F200000A807047000030
:1057200010B540F28834C2F200040A4602A02146B5
:1057300000F01EF9204610BD53544D6963726F6529
:105740006C656374726F6E696373000010B540F22C
:105750008834C2F200040A4602A0214600F008F98B
:10576000204610BD53544D33322056697274756112
:105770006C20436F6D506F727400000040F2002087
:105780001A22C2F200000A807047000080B5C98862
:10579000012910D190F89C124A1E022A04D200223C
:1057A000014641F8082F02E0032904D1011D01221E
:1057B000FFF766FF80BDFFF73FFF80BDB0B582B049
:1057C000044648880D464FF0FF3101EB10210022BE
:1057D0000629ADF8062061D8DFE801F0041408605E
:1057E00060212A00D4F8B402026841E0C0B2052862
:1057F00054D8DFE800F003292D313539D4F8B4024C
:10580000426834E0217CD4F8B80200290CBF816AD8
:10581000C16A0DF1060088470146022012E0207C93
:10582000E0BBD4F8B802416B0DF10600884723E0D5
:10583000207C98BBD4F8B802016B0DF106008847B4
:1058400001460720487018E0D4F8B40282680EE0E0
:10585000D4F8B402C2680AE0D4F8B402026906E0DF
:10586000D4F8B402426902E0D4F8B4028269AAB161
:10587000207C0DF10601904701460120A8B1EA887D
:10588000AAB1BDF80600B8B1904238BF0246204622
:10589000ADF80620FFF7F4FE02B0B0BD2046FFF7DA
:1058A000CBFE002100200028E9D102B0B0BD204687
:1058B000FFF7F4FE02B0B0BD2046FFF7BDFE02B018
:1058C000B0BD000070B582B00446428800788242C4
:1058D0001AD90D466188ADF80600814214D90DF140
:1058E0000606204605E000BFBDF80610628891421A
:1058F0000AD2314600F01CF841780529F4D18178AC
:10590000A942F1D102B070BD002002B070BD00000C
:10591000017849B1411E00208A780130002A01F146
:105920000101F9D1C0B270470020C0B27047000039
:1059300002780B88104413440B80704780B590F8B0
:105940009C22013A022A0FD8C98802290CD1D0F82A
:10595000A4120322002908BF0122014641F80C2F9E
:105960000222FFF78DFE80BDFFF766FE80BD0000BE
:1059700070B5F0B1164605460C46FFF7C9FF022187
:1059800001EB4000308020700320607028780028F0
:1059900008BF70BD691E0222002300BFD6B2A05509
:1059A00046F00100235488780232002801F10101F9
:1059B000F4D170BD032884BF0320704740F200314A
:1059C000C000C0F2013121FA00F0C0B270470000FF
:1059D000002804BF0320704780B50023C0F8B83208
:1059E000C0F8C4320029C0F8D03218BFC0F8B412D1
:1059F000012180F89C12027000F0C0F880BD000008
:105A000080B5D0F8C802FCF70BFAFFF7D3FF80BDD2
:105A100080B5D0F8C802FCF7DDF9FFF7CBFF80BDF9
:105A2000B0B5044689B194F89C0203284FD1D4F84C
:105A3000B8024269002A4AD00020C4F8D4022046A5
:105A40009047002808BF0020B0BDD4F89402022877
:105A500036D1D4E9071081420DD90B1A20461146E0
:105A60001A46E361FFF7E0FD2046002100220023F3
:105A700000F000F924E00FD1A16981420CD3D4F8E1
:105A80009802814208D22046002100220025FFF71B
:105A9000CBFDC4F89852E7E794F89C02032808D19C
:105AA000D4F8B802C16821B10020C4F8D40220465D
:105AB00088472046802100F067F92046FFF7D4FD93
:105AC00094F8A00200281CBF002084F8A002002047
:105AD000B0BD000010B5044669B194F89C020328DB
