:020000040800F2
:10000000701D002021020008773D00085F2C0008C9
:10001000753D000859050008FD4300080000000078
:10002000000000000000000000000000890100083E
:10003000CF06000800000000CD010008294200089A
:100040003B0200083B0200083B0200083B0200089C
:100050003B0200083B0200083B0200083B0200088C
:100060003B0200083B0200083B0200088D06000826
:100070003B0200083B0200083B0200083B0200086C
:10008000990600083B020008D10300083B02000863
:100090003B0200083B0200083B0200083B0200084C
:1000A0003B020008D14200083B0200083B02000866
:1000B0003B0200083B0200083B0200086D2C0008D0
:1000C000612C00083B0200083B0200087540000854
:1000D0003B0200083B0200083B0200083B0200080C
:1000E0003B0200083B0200083B02000800F002F857
:1000F00000F03AF80AA090E8000C82448344AAF188
:100100000107DA4501D100F02FF8AFF2090EBAE885
:100110000F0013F0010F18BFFB1A43F0010318473B
:100120004867000068670000103A24BF78C878C1AB
:10013000FAD8520724BF30C830C144BF04680C60ED
:10014000704700000023002400250026103A28BF35
:1001500078C1FBD8520728BF30C148BF0B60704739
:100160001FB51FBD10B510BD00F0F8F81146FFF720
:10017000F7FF04F05FF900F016F903B4FFF7F2FFA0
:1001800003BC00F01DF90000224B19680868B0E8B4
:10019000F00F80F30988BFF36F8F4FF0000080F3FA
:1001A00011884EF00D0E70470000000006480068F0
:1001B000006880F3088862B661B6BFF34F8FBFF363
:1001C0006F8F00DF00BF00BF08ED00E0EFF3098094
:1001D000BFF36F8F0F4B1A6820E9F00F106008B55E
:1001E0004FF0500080F31188BFF34F8FBFF36F8F34
:1001F00004F098FD4FF0000080F31188BDE808403E
:1002000019680868B0E8F00F80F30988BFF36F8FB2
:10021000704700BF34000020EFF3058070470000F6
:100220000948804709480047FEE7FEE7FEE7FEE78A
:10023000FEE7FEE7FEE7FEE7FEE7FEE704480549C6
:10024000054A064B70470000CD420008ED0000084B
:1002500070170020701D00207019002070190020F8
:1002600010B5203AC0F00B80B1E81850203AA0E851
:100270001850B1E81850A0E81850BFF4F5AF5FEA85
:10028000027C24BFB1E81850A0E8185044BF18C938
:1002900018C0BDE810405FEA827C24BF51F8043BDF
:1002A00040F8043B08BF7047D20728BF31F8023B33
:1002B00048BF11F8012B28BF20F8023B48BF00F8C7
:1002C000012B70474FF000020429C0F0128010F09B
:1002D000030C00F01B80CCF1040CBCF1020F18BF22
:1002E00000F8012BA8BF20F8022BA1EB0C0100F0B5
:1002F0000DB85FEAC17C24BF00F8012B00F8012B88
:1003000048BF00F8012B70474FF0000200B51346BC
:1003100094469646203922BFA0E80C50A0E80C5025
:10032000B1F12001BFF4F7AF090728BFA0E80C50D6
:1003300048BF0CC05DF804EB890028BF40F8042BCF
:1003400008BF704748BF20F8022B11F0804F18BF3C
:1003500000F8012B7047704770477047754600F0F2
:100360002BF8AE4605006946534620F00700854647
:1003700018B020B5FFF762FFBDE820404FF000063F
:100380004FF000074FF000084FF0000B21F007017D
:10039000AC46ACE8C009ACE8C009ACE8C009ACE8C0
:1003A000C0098D46704710B50446AFF30080204663
:1003B000BDE81040FFF7E1BE00487047101700206D
:1003C00001491820ABBEFEE726000200704700007E
:1003D000014800F023BB00004007002070B5044630
:1003E00000688168C943C90717D1816821F00101FC
:1003F000816000F09DFF05460AE000BF00F098FF15
:10040000401B022804D920688068C043C00706D07A
:1004100020688068C043C007F0D0002070BDA06A8B
:1004200040F01000A062E06A40F00100E0620120AC
:1004300070BD10B50146406A826A12F0500F05D0B7
:10044000006A026BBDE8104008461047816A41F41B
:100450000071816201688968C1F3424107290CD1AA
:10046000017B51B9816A21F480718162816AC9047A
:1004700003D4816A41F00101816200F08FFA10BD5E
:1004800010B5406A816A41F040018162C16A41F061
:100490000401C16200F0C1FA10BD10B5406A00F05D
:1004A000BBFA10BDF8B500260446009600688168C6
:1004B000C943C9072DD0816841F001018160164808
:1004C00016490068B0FBF1F000E0401E00900028E3
:1004D000FBD100F02DFF054616E000BF00F028FF1D
:1004E000401B022810D920688068C043C0070BD089
:1004F000A06A40F01000A062E06A40F00100E062F3
:1005000084F824600120F8BD20688068C043C007DB
:10051000E4D10020F8BD00003000002040420F0070
:100520002DE9F0410A4D0B4E00244FF07E5700BFDD
:1005300004EB440000EBC40005EB80003246394672
:1005400003F06DFF641CE4B2032CF1D3BDE8F0812D
:100550006C16002000401C46FEE700003F483E4964
:100560003F4C404FDFF80081DFF800B100258146A5
:100570004FF0663A4160206805F0BAF95646524697
:100580003B4604F0C1FF0022434604F04DFE04F058
:1005900069FD6061606805F0ABF900F0F9F800F002
:1005A000CFF804F05FFDA061A06805F0A1F9324624
:1005B0003B4604F0A9FF0022434604F035FE04F058
:1005C00051FD0246E06160690121C4E903205A201F
:1005D00003F0EEFD02215A20626903F0E9FD0321D8
:1005E0005A20E26803F0E4FD04215A20226903F056
:1005F000DFFD4E4605215220D9F8042003F0D8FD36
:1006000007213720A26903F0D3FD706803F0ACFD29
:10061000124800F05FF8A169594514DD6D1C322DB8
:1006200011D0192D0AD1082311A20621282003F088
:1006300087FC01220821114800F074FE42F210707C
:1006400003F0A2FC97E7002508230DA2062128202D
:1006500003F076FC0022EDE700004040940000200B
:10066000F016002066660A4000FEAF4000004842D7
:10067000212154454D502121000000000008014077
:10068000202020202020202000000000014800F031
:1006900037BC000070070020014800F031BC0000AA
:1006A0000808002030B590F840500124AC40C56BDC
:1006B0006C60046863604368102B036803D0996022
:1006C0000068C26030BD9A600068C16030BD70478C
:1006D00072B6FEE72DE9F041044614480068406A0E
:1006E000134E05B26580B4F90000124F85420BDD50
:1006F000114A6168914207DC084605F0F9F8324674
:100700003B4604F0E1FC0BE085420CDA0B496068E3
:10071000884208DD05F0ECF832463B4604F0FEFF67
:1007200004F0A0FC60602580BDE8F081A4080020F2
:100730009A9999999999A93FE7FB6F41A301404084
:1007400010B500220C4B04F06FFD03F03FFC0022BB
:100750000A4B04F069FD0A4A0A4B04F0B5FC024654
:100760000B460020084904F05FFDBDE810404FF043
:100770006632064B04F0D2BF0088C34000DCAE40B6
:1007800083DBB5DCE1796B3F0000F03F661271401E
:100790002DE9F04105460E460022084B04F0B2FF59
:1007A00007460C460022064B2846314604F0ACFEB4
:1007B0003A462346BDE8F04104F036BD00FEAF40A6
:1007C0000088C340F8B500250446009590F8240041
:1007D00001280BD0012084F824002046FFF7FEFDFD
:1007E0002046FFF75FFE060002D050E00220F8BD71
:1007F000A06A20F4885040F00200A062022001F0BC
:1008000063FA25490968B1FBF0F0400000E0401EA2
:1008100000900028FBD12068816841F008018160C8
:1008200000F086FD074608E000F082FDC01B0A28A4
:1008300003D920688068000715D420688068000705
:10084000F2D42068816841F00401816000F070FDFD
:10085000074612E000F06CFDC01B0A280DD9206885
:100860008068400709D5A06A20F0020040F010001F
:10087000A06284F824500120F8BD206880684007F9
:10088000E8D4A06A20F0020040F00100A06284F8E1
:1008900024503046F8BD00003000002070470000B2
:1008A000F8B50024009490F824202546012A12D09F
:1008B000012280F824204A681F23072A0DD20668E7
:1008C000776B521E02EB820293409F430B6893406A
:1008D0001F43776319E00220F8BD06680D2A0AD28B
:1008E000376BD21F02EB820293409F430B68934009
:1008F0001F43376309E0F76A0D3A02EB8202934027
:100900009F430B6893401F43F7620A6807230668FA
:100910000A2A0AD3F7680A3A02EB420293409F433D
:100920008B6893401F43F76008E0376902EB42028F
:1009300093409F438B6893401F4337610A68102A96
:1009400001D0112A20D1124B02689A4217D1936824
:100950001B0219D4936843F40003936009681029BB
:1009600012D10C490C4A0968B1FBF2F101EB81018B
:10097000490000E0491E00910029FBD104E0816A92
:1009800041F020018162012480F824502046F8BD06
:10099000002401403000002040420F002DE9F041CA
:1009A000194A016891422DD100F00CFA184D174FE9
:1009B0000024A5F1580800BF07EB4406F08B05F0B2
:1009C0003BF901461248843803F04BF82860308C1C
:1009D00005F032F90146404603F043F86860708C38
:1009E00005F02AF90146404603F03BF8E41CE4B266
:1009F000A8600E2CE0D3BDE8F041762203490548FB
:100A000000F05AB9BDE8F081002401409C040020A8
:100A1000F0160020400700207047704770B504466C
:100A2000006806684568A90625D5B10723D5A16ADF
:100A3000C90603D4A16A41F40071A1628168C1F3BF
:100A40004241072910D1217B71B9416821F0200171
:100A50004160A06A20F48070A062A06AC00403D440
:100A6000A06A40F00100A0622046FFF797FF2168CE
:100A70006FF01200086028062ED570072CD5A06AEA
:100A8000C00603D4A06A40F40050A06220688168C8
:100A9000C1F30231072909D04168490515D481689D
:100AA000C1F34241072910D1217B71B9416821F07E
:100AB00080014160A06A20F48050A062A06AC00555
:100AC00003D4A06A40F00100A0622046FFF7E6FED2
:100AD00021686FF00C00086068060CD5F0070AD09A
:100AE000A06A40F48030A062204600F093F82168AC
:100AF0006FF00100086070BD2DE9F0414FF0000774
:100B000004003D467ED0A06A002628B9E66284F83B
:100B10002460204600F080F82046FFF75FFCA16AC1
:100B2000C90600D420B1A06A40F01000A06269E0BC
:100B3000A16A21F4885141F00201A1626268E16971
:100B4000237B0A4347EA43010A43A1684FF48077B5
:100B5000B94209D0012907D05FF0000194F814C010
:100B6000BCF1010F02D00AE03946F7E7F3B1A36AFE
:100B700043F02003A362E36A43F00103E3622368C6
:100B8000D3F804C02CF4694C4CEA010CC3F804C03F
:100B900021688B68DFF870C003EA0C0313438B6095
:100BA000A168B9420BD0012909D00CE0DFF85CC084
:100BB000A3690CEB43330B4343F40061DFE7218A65
:100BC0000D05A5F580152168CB6A23F470032B432E
:100BD000CB62216889680E4B1940914208D1E662C8
:100BE000A16A21F0020141F00101A162BDE8F0819A
:100BF000A06A20F0020040F01000A062E06A40F01D
:100C00000100E0620120F1E7FDF7E1FF00E0FFFFF6
:100C1000FE0E1FFF7047000070B586B00025064627
:100C2000009501950295039500681E49884236D1CA
:100C30001D49886940F400708861886900F400707B
:100C40000490886940F0040088618869694600F072
:100C5000040004901520009003200190134800F038
:100C600071FA144C1248C4E900058020C4E902500E
:100C7000400020618000C4E90505C000E061204615
:100C800000F0E8F908B1FFF723FD346200220521E6
:100C90001220666200F0E6FF122000F0D5FF06B0D9
:100CA00070BD000000240140001002400008014017
:100CB00008000240700700202DE9F04789460446ED
:100CC0003B4900683B4F0E1D9046884201D0B84218
:100CD00007D1306810F4702F03D001252846BDE8F5
:100CE000F08794F8240001280CD0012084F8240017
:100CF0002046FFF7D7FB05004FF0000004D084F832
:100D00002400EBE70220EAE7A16A40F60162914382
:100D100041F48071A1622168B94218D1326812F49D
:100D2000702F14D0A16A41F48011A1623168490585
:100D300005D5A16A21F4005141F48051A162A16A54
:100D4000C9040AD5E16A21F00601E16206E0A26A5F
:100D500022F48012A2624968E9E7E06284F8240084
:100D6000216A15488862216A1448C862216A1448B9
:100D7000086321686FF0020008602068816841F410
:100D800080718160216843464A464C31206A00F0F8
:100D90008FF920688168C1F342410729816803D037
:100DA00041F48011816099E741F4A001FAE7000065
:100DB0000024014000280140330400089B0400087F
:100DC0008104000810B5044690F82400012807D0DB
:100DD000012084F824002046FFF700FB10B113E047
:100DE000022010BD21688A6822F480728A60216A1C
:100DF00091F82120022A07D1084600F00EF8A16AD6
:100E000030B141F04001A162002184F8241010BDEE
:100E100021F4885141F00101F5E710B590F8211057
:100E20000022022905D00421816380F820200120BE
:100E300010BD01680B6823F00E030B6001680B689E
:100E400023F001030B6090F84030C46B012101FADC
:100E500003F3636080F8211080F82020104610BD55
:100E600010B590F821100024022903D004218163D9
:100E700001243DE001680A6822F00E020A60016860
:100E80000A6822F001020A601A4A0168914201D1FF
:100E9000012121E0174A1432914201D110211BE0B7
:100EA000144A2832914201D1891515E0114A3C3289
:100EB000914201D189140FE00E4A5032914202D181
:100EC0004FF4803108E00B4A6432914202D14FF472
:100ED000801101E04FF08071064A083A516001210B
:100EE00080F82110002180F82010416B01B1884763
:100EF000204610BD0800024090F821007047000015
:100F00002DE9F05FC16B0C6801680B68D0F840C038
:100F1000042202FA0CF2494DDFF824A1494E4A4F4F
:100F2000DFF828B1DFF828E122422CD05A072AD571
:100F30000A68920603D40A6822F004020A60016873
:100F4000A94201D1042219E0514501D1402215E006
:100F5000B14202D14FF4806210E0B94202D14FF4A5
:100F600080420BE0594502D14FF4802206E07145E2
:100F700002D14FF4800201E04FF080622F4908391E
:100F80004A60C16A3BE04FF0020808FA0CF818EA20
:100F9000040F4FF000094FF0010235D05FEA83786B
:100FA00032D50B689B0605D40B6823F00A030B604F
:100FB00080F821200168A94201D1022219E051459F
:100FC00001D1202215E0B14202D14FF4007210E0AD
:100FD000B94202D14FF400520BE0594502D14FF40F
:100FE000003206E0714502D14FF4001201E04FF0EB
:100FF0000072124908394A6080F82090816A0029FD
:101000001AD0BDE8F05F0847082505FA0CF525421F
:1010100012D01B0710D50B6823F00E030B6090F85D
:101020004010C36B02FA01F15960826380F82120FD
:1010300080F82090016BE2E7BDE8F09F08000240D5
:101040001C000240300002404400024058000240B0
:101050006C00024030B528B308C813491422194463
:10106000B1FBF2F18900C16310498163022141772C
:101070001A6843F6F0718A43D0E900142143D0E99D
:1010800002452C4321430469214344692143846977
:101090002143114319600021416301224277017706
:1010A000084630BD012030BDF8FFFDBF0000024002
:1010B00070B5044690F82000002501280CD00120CE
:1010C00084F8200094F821600020012E06D084F8D6
:1010D00020000225284670BD022070BD022684F83B
:1010E0002160A0632068066826F00106066020469D
:1010F000FFF7D8FAE06A00282068016802D041F0C2
:101100000E0106E021F0040101602068016841F051
:101110000A0101602068016841F001010160D9E71E
:1011200070B5044600F004F90546601C02D004487E
:101130000078044400F0FCF8401BA042FAD370BDD4
:10114000240000202DE9F84FDFF8B8910024A9F120
:10115000040B23460F2709F1040AABF1040EC9E082
:101160000125A5402A40AA427DD1674ED1F804C08E
:10117000ACEB0608B44532D014DCBCF1030F3AD016
:1011800009DCBCF1000F2AD0BCF1010F1CD0BCF16E
:10119000020F31D11DE0BCF1110F17D0BCF1120FBD
:1011A0002AD119E0B8F5881F19D006DCB8F5803FC0
:1011B00015D0B8F5801F1FD111E0B8F5001F0ED073
:1011C000B8F5041F18D10AE0CB6815E0CB681B1DE9
:1011D00012E0CB6808330FE0CB680C330CE08B686F
:1011E0002BB1012B4FF0080303D0456104E0042329
:1011F00002E0056100E00023FF2A01D8064601E075
:1012000000F104064FEA840501D9A5F12005D6F8BE
:10121000008007FA05FC28EA0C0803FA05F548EAFD
:101220000508C6F800804D68ED0062D5374DAE69FF
:1012300046F00106AE61AD6924F0030605F0010534
:101240000095334D06EB050CDCF80850A607360F69
:1012500007FA06F825EA0805DFF8B880404503D10B
:101260004FF0000817E044E0DFF8AC80404502D1C1
:101270004FF001080FE0DFF8A480404502D14FF0A5
:10128000020808E0DFF89880404502D14FF00308DB
:1012900001E04FF0040808FA06F848EA0508CCF81F
:1012A00008804D68D9F80060ED024D4601D516431F
:1012B00000E096432E604D68DAF80060AD025546B6
:1012C00001D5164300E096432E604D68DBF80060C0
:1012D000AD035D4601D5164300E096432E604D6890
:1012E000DEF80060ED03754601D5164300E0964335
:1012F0002E60641C0D682A46E5407FF431AFBDE8DE
:10130000F88F000008040140000011100010024096
:101310000000014000080140000C014000100140A5
:10132000001401400AB1016170470904FBE70000A5
:101330000148806870470000240000207047704713
:101340002DE9F041016804464A694E6890F83E0074
:101350000025D743FA050BD4F243D20508D46FF425
:10136000807201254A6121680A6842F400420A60DD
:10137000B90508D4F143C90505D422686FF400719A
:1013800045F002055161790525D4F143C90522D400
:10139000638D94F83D10226B202808D13BB9212998
:1013A00010D029290ED0282901D1212A0AD022685B
:1013B0006FF48061516145F00405102806D0402883
:1013C00004D008E0204602F059F904E020680168E2
:1013D00041F400710160380508D4F043C00505D41C
:1013E00021686FF4006045F008054861002D07D0C2
:1013F000206C284320642046BDE8F04101F042BD46
:10140000BDE8F0812DE9F047026800215368C66A03
:1014100090F83E4090F83D50102C12D0402C10D047
:10142000046C002C7DD05469E443A6077AD4DE43D3
:10143000B60577D4036C03B19169BDE8F04702F0BB
:10144000F9B8976951694FF42A0CC9435FEAC1782A
:101450004FF02A4904D066452AD04E4528D010E0E6
:10146000DE43B6050DD4C16A614501D1012103E017
:10147000C16A494501D10821C162BDE8F04701F0C8
:10148000EBBF0E0716D4DE43B60513D4416CC9B2C8
:101490001161416B09B1896A29B9816B002907D0B3
:1014A000896A002904D00068416841F40061416004
:1014B000BDE8F0878E0706D4DE43B60503D4BDE849
:1014C000F04701F01DBFFE43526876074FEA025213
:1014D0001DD4002AECDB0A0608D4DA43520505D4F1
:1014E000490705D5BDE8F04701F0AEBE4907DFD496
:1014F000D9438905DCD4212D05D0402CD8D1BDE8B5
:10150000F04701F0EFBFBDE8F04701F05BBE002AF5
:10151000CEDB4A060BD4DA43520508D4490708D576
:1015200001E00DE00EE0BDE8F04701F0D7BD49074E
:10153000BED4D9438905BBD4BDE8F04701F065BDF1
:10154000916970E7E10606D4D943890503D4BDE863
:10155000F04702F0DBB82821212D27D0292D25D0F6
:10156000650655D4DD436D0552D4640752D590F815
:101570003D30448D002C9BD01269446A2270426A2F
:10158000521C4262428D521E4285428D002A8FD1EA
:101590002A2B8DD10268536823F480635360222282
:1015A000026380F83D1000F0C9FA81E7250623D4D4
:1015B000DD436D0520D4640720D590F83D30448D7F
:1015C000002CF2D0446A24781461426A521C4262B0
:1015D000428D521E4285428D002AE6D1292BE4D14C
:1015E0000268536823F4806353602122026380F809
:1015F0003D1000F0A4FA5BE76107D6D4D943890512
:10160000D3D4418D0029D0D0416A097811610AE014
:101610006107CAD4D9438905C7D4418D0029C4D0F4
:101620001169426A1170416A491C4162418D491E2B
:1016300041853DE77047000070B5040025D094F85F
:101640003D00002520B984F83C50204600F01EFAE9
:10165000242084F83D002068016821F00101016028
:101660002068016841F4004101602068016821F4AC
:101670000041016000F0A6FC4D4A6168914201D82A
:101680004C4900E04C49884201D2012070BD4B49D1
:101690002368B0FBF1F15E6826F03F060E435E6002
:1016A0006368934206D94FF4967359434FF47A73A3
:1016B000B1FBF3F12368491C1E6A26F03F06314353
:1016C00019626168914210D84900401EB0FBF1F2E6
:1016D000521CC2F30B02042A01D2042022E0B0FB08
:1016E000F1F0401CC0F30B001CE0A268F2B301EB68
:1016F000C10303EB0116431EB3FBF6F35B1C43F47B
:1017000080431B0549D092B301EBC10202EB0111EA
:10171000401EB0FBF1F0401CC0F30B0040F48040D1
:1017200040F400402168CA694CF6FF739A431043A5
:10173000C861D4E9071001432068026822F0C002A2
:1017400011430160D4E9030101432068826848F233
:10175000FF339A4311438160D4E9050108432168AE
:10176000CA6822F0FF021043C86001E00EE016E0F4
:101770002068016841F0010101602564202084F89F
:101780003D00256384F83E50002070BD01EB41060A
:10179000431EB3FBF6F35B1CB3E70120C2E701EB8A
:1017A0004101401EB0FBF1F0401CC0F30B00B7E755
:1017B000A086010080841E0000093D0040420F0009
:1017C0007047704770477047704700002DE9FF4F22
:1017D00083B09A46DDE9119793460446DDF84080D0
:1017E000FFF7A6FD054694F83D0020287FD1192378
:1017F000012240492046009502F062F8002876D187
:1018000094F83C00012872D0012084F83C00206844
:101810000168C90703D1016841F001010160206836
:10182000016821F400610160212084F83D0040201E
:1018300084F83E0000262664C4F82480A4F82A9088
:10184000608D20852C48E062CDE9007553465A46EC
:101850002046049901F09AFE70B930E02A463946D4
:10186000204602F0D3F858B1206C042804D1206837
:10187000016841F400710160012007B0BDE8F08FFC
:10188000606A216800780861606A401C6062218D8E
:10189000491E89B22185628D521E62852268536974
:1018A000DB435B070BD469B100781061606A401CB0
:1018B0006062208D401E2085608D401E6085208DD9
:1018C0000028CBD12A463946204601F0CDFF00281A
:1018D000CAD154F83D0B016841F400710160202029
:1018E00004F81E09E67766770020C6E7FFE70220C6
:1018F000C3E70000020010000000FFFF2DE9FC5FBD
:101900000025984691468A460446DDF830B0009599
:10191000FFF70EFD074694F83D00202828D15748D0
:1019200046F2A81120260068B0FBF1F000EBC001E0
:1019300001EB001000900098401E009010D020682D
:101940008069C0438007F6D594F83C0001280FD089
:10195000012084F83C0020680168C9070BD00EE024
:1019600044F8305F6673A573206940F02000206161
:101970000220BDE8FC9F016841F001010160206880
:10198000016821F400610160212084F83D004020BD
:1019900084F83E002564C4F824B00D986085608DFD
:1019A00020853748E062C4F844A0C4F84890C4F8E1
:1019B0004C802565208DE8B3606BF0B131498162C0
:1019C000616B31480863606BC562606B4563226878
:1019D000238D1032616A606BFFF76AFBB0B184F847
:1019E0003D6084F83E5054F8400F40F0100000BFB6
:1019F00044F8040925700120BBE784F83D6084F8B1
:101A00003E5054F8400F40F08000F1E72320CDE92C
:101A1000000743464A465146204601F0B7FD98B1BB
:101A2000606BFFF71DFA606B85622068016821F426
:101A3000806100E019E00160258565852068016806
:101A400021F001010160D6E72068416981690091B8
:101A500084F83C50416841F48071416020684168DD
:101A600041F400614160002083E784F83D6084F820
:101A70003E5054F8400F40F04000B9E730000020DD
:101A80000000FFFF6B2D0008352D000870B586B0F3
:101A900000250646009501950295039500682249A8
:101AA00088423ED1214CA06940F00800A061A069A5
:101AB000694600F008000490C020009012200190B8
:101AC000032003901A48FFF73DFBE06940F4001043
:101AD000E061E069184C00F40010049015482060A3
:101AE0001020C4E901058020C4E903056561A561F2
:101AF0002046E561FFF7AEFA08B1FEF7E9FD746331
:101B0000002205211F20666200F0ACF81F2000F0C3
:101B10009BF800220521202000F0A4F8202000F0EE
:101B200093F806B070BD0000005400400010024061
:101B3000000C01406C00024008080020704770470C
:101B400002488168027811448160704724000020B7
:101B5000074810B5016841F010010160032000F052
:101B6000A1F80F2000F006F800F04AF8002010BDA0
:101B70000020024030B505461C4887B0816941F419
:101B800000618161806906A900F40060009001A8ED
:101B900000F0F8F900F026FA1549164AB0FBF1F109
:101BA0001548491E0260416040F2E7320021C0E959
:101BB00003218160816100F0D5FD040012D10E483F
:101BC00000F012FE04000DD1192000F03DF8102D98
:101BD00007D200222946192000F044F80748056082
:101BE00000E0012407B0204630BD00000010024094
:101BF00040420F00002C0140340900202800002042
:101C00000F4808B5816941F001018161816901F0E6
:101C100001010091C16941F08051C161C069002298
:101C200000F0805000900F21901E00F01BF8054836
:101C3000416821F0E06141F00071416008BD0000A1
:101C40000010024000000140002809DB00F01F02E4
:101C5000012191404009800000F1E020C0F800110E
:101C600070470000F0B40E4B1B680C46C3F3022310
:101C7000C3F10705042D00D90425191D072901D238
:101C8000002300E0DB1E012606FA05F1491E214073
:101C900099409E40761E16403143F0BC02F0AFBB27
:101CA0000CED00E0064900F0070208684FF6FF035C
:101CB000184040EA0220034A1043086070470000C1
:101CC0000CED00E00000FA0510B501460020234CA1
:101CD000012922D0022939D010291DD1616822683A
:101CE000D20119D51E48C1F38342C903805C0AD5CD
:101CF00061681B4AC1F34041921E515C194AB2FB14
:101D0000F1F1484301E0184948436168490203D4AE
:101D100040000321B0FBF1F010BD226AC2F30121A3
:101D2000012903D1920701D5C80310BD022905D1AD
:101D3000626A920702D549F6404010BD0329FCD1E2
:101D400021688903F9D54FF2244010BD00F04AF90B
:101D50006168C1F38131491C4900DBE70010024092
:101D60003468000800127A0000093D002DE9F843AC
:101D700005460078354CC00754D0E0690026C00005
:101D800008D4E06940F08050E061E069012600F08D
:101D9000805000902E480168C90512D40168804621
:101DA00041F480710160FFF7C3FA074605E000BF08
:101DB000FFF7BEFAC01B642823D8D8F80000C0057E
:101DC000F6D5206A10F4407021D0A98801F4407142
:101DD00081421CD0206A1F49012220F440700A6011
:101DE00000220A602062C00711D0FFF7A1FA07465F
:101DF00041F2883808E000BFFFF79AFAC11B41455D
:101E000002D90320BDE8F883206A8007F4D5206A50
:101E1000696820F44070084320621EB1E06920F038
:101E20008050E0612878800705D56068A96820F4B3
:101E30004040084360602878C00605D56068E968BE
:101E400020F48000084360600020DBE700100240BF
:101E500000700040400442422DE9F0470F46050063
:101E600061D0434E306800F00700B84209D23068B4
:101E700020F0070038433060306800F00700B842B7
:101E800051D128683B4C810712D5400703D56068C3
:101E900040F4E06060602878000703D5606840F493
:101EA000605060606068A96820F0F00008436060DE
:101EB0002878C00728D06868012810D02168022837
:101EC00010D0890700292EDA616821F0030101434F
:101ED0006160FFF72DFA804641F288390DE02168F4
:101EE0008903EFE78901EDE7FFF722FAA0EB08018C
:101EF000494502D90320BDE8F0876068696800F0B1
:101F00000C00B0EB810FEFD1306800F00700B84251
:101F10000BD9306820F0070038433060306800F09B
:101F20000700B84201D00120E5E72878400705D531
:101F30006068E96820F4E060084360602878000782
:101F400006D56068296920F4605040EAC1006060ED
:101F500000F058F86168084AC1F30311515CC840A9
:101F60000649086006480068FFF704FE0020C2E743
:101F700000200240001002404468000830000020A9
:101F8000280000200F2202600C4A536803F003036C
:101F90004360536803F0F0038360536803F4E06325
:101FA000C36052684FF4E06303EAD202026104485E
:101FB000006800F007000860704700000010024051
:101FC000002002400448054900684968044AC1F3FA
:101FD0000221515CC84070473000002000100240D0
:101FE000546800080448054900684968044AC1F378
:101FF000C221515CC84070473000002000100240F0
:10200000546800080E4A51680E4801F00C03042B76
:1020100011D0082B0FD10C48C1F38343C903C05C16
:102020000AD55168084AC1F34041921E515C054AE5
:102030005043B0FBF1F0704704494843704700003B
:102040000010024000127A002268000800093D00DA
:102050002DE9F84F040070D02078C04DC00749D05A
:102060006868C0F38100012807D06868C0F3810068
:10207000022809D16868C00306D52868800339D5CD
:1020800060680028E7D035E06068B0F5803F0BD08D
:1020900010B1B0F5A02F11D0286820F4803028604E
:1020A000286820F4802002E0286840F4803028600E
:1020B000606890B1FFF73CF906460AE0286840F4F2
:1020C00080202860F0E700BFFFF732F9801B64280A
:1020D00073D828688003F7D50CE0FFF729F9064686
:1020E00005E000BFFFF724F9801B6428F0D82868BA
:1020F0008003F7D420789A4E80074FF001094FF003
:10210000000839D5686810F00C0F07D06868C0F374
:102110008100022809D16868C00306D428688007B6
:1021200014D52069012808D110E02069B0B1C6F8A3
:102130000090FFF7FDF8074605E00AE1FFF7F8F821
:10214000C01B0228C4D828688007F7D528686169B1
:1021500020F0F80040EAC10028600DE0C6F80080D9
:10216000FFF7E6F8074604E0FFF7E2F8C01B022895
:1021700023D828688007F7D4207800072CD5794821
:10218000A169D9B1C0F80090FFF7D2F8074604E082
:10219000FFF7CEF8C01B02280FD8686A8007F7D572
:1021A00071484FF4FA510068B0FBF1F0009000BFA5
:1021B0000098411E0091FAD20EE080E0C0F8008045
:1021C000FFF7B6F8074604E0FFF7B2F8C01B022895
:1021D00075D8686A8007F7D42078400760D5E86929
:1021E0000027C00008D4E86940F08050E861E86941
:1021F000012700F0805000905C480168C90513D4A5
:102200000168834641F480710160FFF791F88246CE
:1022100006E000BFFFF78CF8A0EB0A0064284ED858
:10222000DBF80000C005F5D5E06801280AD008B148
:10223000052813D0286A20F001002862286A20F0BF
:10224000040002E0286A40F001002862E06841F2E0
:10225000883B98B1FFF76CF882460BE0286A40F0A3
:1022600004002862EEE700BFFFF762F8A0EB0A0166
:1022700059455AD8286A8007F6D50CE0FFF758F878
:10228000824605E0FFF754F8A0EB0A0159454CD807
:10229000286A8007F6D41FB1E86920F08050E86111
:1022A000E06988B36968C1F38101022944D002283A
:1022B000C6F8608004D0FFF73BF8044638E034E00D
:1022C000FFF736F8074604E0FFF732F8C01B022894
:1022D0002BD828688001F7D4206AB0F5803F05D15B
:1022E0006868A16820F4003008436860D4E90801F8
:1022F0000843696821F4741108436860C6F8609067
:10230000FFF716F8044606E025E000BFFFF710F8D7
:10231000001B022809D828688001F7D51BE000BF00
:10232000FFF706F8001B022802D90320BDE8F88F4A
:1023300028688001F4D40EE00128F7D06868226A8A
:1023400000F48031914204D1616A00F47010884237
:1023500001D00120EAE70020E8E700000010024079
:1023600000004242800442423000002000700040E1
:102370007047000038B50446006842688168C94368
:102380004B0606D5CB0704D1D3435B0601D4216CA1
:1023900005E08B0708D4D3431B0605D4616C01B05C
:1023A0002046BDE8304008478B0601D54B0646D491
:1023B000D3439B0643D44B060AD494F85130032BE5
:1023C0003ED0636D43F004036365C3688368009384
:1023D000890609D4616D41F0010161658168009150
:1023E000016821F040010160606D002827D020685D
:1023F000416821F0E0014160012084F8510090071C
:1024000022D02068416821F003014160104DE06C4A
:1024100040B14563E06CFEF723FD18B1606D40F0FC
:1024200040006065A06C002809D04563A06CFEF7F1
:1024300017FD002803D0606D40F04000606538BD96
:10244000C1688068009038BD2046FFF791FF38BD15
:102450008140000870B5040009D0606A002540B1D1
:1024600025616561A56294F8510040B10CE001203E
:1024700070BD6068B0F5827FF4D0E561F2E784F862
:102480005050204600F040F8022084F851002068A7
:10249000016821F040010160A088218900F4827068
:1024A00001F404410843A18901F400610843217C3F
:1024B00001F002010843217D01F001010843218B55
:1024C00001F400710843217F01F03801084394F8BA
:1024D000201001F080010843218D01F400510843D0
:1024E00021680860A069042101EA10402168486061
:1024F0002068C16921F40061C1616565012084F82B
:102500005100002070BD000030B585B0002400945B
:102510000194029403940068184988422BD118480A
:10252000816941F480518161816901F48051049194
:10253000816941F0040181618069124D00F004005D
:102540000490A0200090022001900320039069468F
:102550002846FEF7F7FD4020CDE9000469462846ED
:102560000294FEF7EFFD002205212320FFF77AFBFE
:102570002320FFF769FB05B030BD000000300140AB
:1025800000100240000801402DE9F84F044690F881
:1025900050000026984615468A4601280CD001278F
:1025A00084F85070FEF7C4FE814694F85100B3469B
:1025B000012804D002269AE00220BDE8F88FBAF183
:1025C000000F6FD0002D6DD0032084F85100C4F8A7
:1025D00054B0C4F830A0A586E586C4F838B0A4F895
:1025E0003CB0A4F83EB0C4F844B0C4F840B0A06811
:1025F000B0F5004F09D12068016821F04001016069
:102600002068016841F48041016020680168490642
:1026100003D4016841F040010160E068B0F5006F4B
:10262000606803D058B3012D29D049E008B1012DCD
:102630001FD1206B21680088C86006E0206881688F
:10264000890709D5216B0988C160206B801C206334
:10265000E08E401EE0860CE0FEF76AFEA0EB09016A
:10266000414503D3B8F1FF3F03D006E0B8F1000FB6
:1026700003D0E08E0028E1D125E0032635E0206B71
:1026800021680078087306E02068816889070AD508
:10269000216B09780173206B401C2063E08E401E83
:1026A000E0860DE01FE0FEF743FEA0EB0901414587
:1026B00003D3B8F1FF3F03D0DFE7B8F1000FDCD060
:1026C000E08E0028E0D14A464146204601F0E0FC79
:1026D00008B120206065A06818B92068C1688068CA
:1026E0000090606D08B1012601E084F8517084F813
:1026F00050B0304661E770477047000070B590F801
:102700003C20012A26D0012480F83C40022280F897
:102710003D2003685A689D6822F070060A683243BB
:102720005A600D4B02689A4208D0B2F1804F05D032
:102730000A4B9A4202D00A4B9A4204D1496825F0CA
:1027400080031943916080F83D40002180F83C10DF
:10275000084670BD022070BD002C014000040040FE
:102760000008004010B5040003D094F83D0010B1FB
:1027700007E0012010BD002084F83C00204600F056
:102780001FF8022084F83D00211D206801F0A6FDFD
:10279000012084F8460084F83E0084F83F0084F865
:1027A000400084F8410084F8420084F8430084F833
:1027B000440084F8450084F83D00002010BD00006E
:1027C00008B500680649884208D10648C16941F049
:1027D0000201C161C06900F00200009008BD000064
:1027E000000400400010024090F83D10012901D083
:1027F00001207047022180F83D100168CA6842F04C
:102800000102CA6000680B49884208D0B0F1804FCD
:1028100005D00949884202D00849884204D181681C
:1028200001F00701062903D0016841F001010160B0
:1028300000207047002C01400004004000080040C8
:1028400070B5044690F83C000025012817D00126F9
:1028500084F83C60022084F83D002068826822F001
:10286000770222F47F4282600868502838D00DDC5D
:1028700020284FD005DC90B3102811D14AE0022067
:1028800070BD302846D040280AD13BE060282FD0C8
:1028900070280DD0B0F5805F03D0B0F5005F12D086
:1028A000012584F83D60002084F83C00284670BD76
:1028B000CB68D1E90121206801F053FD20688168CF
:1028C00041F0770109E0CB68D1E90121206801F0EE
:1028D00048FD2068816841F480418160E1E719E0AA
:1028E000CA684968206801F04EFD5021206806E062
:1028F000CA684968206801F057FD6021206801F02E
:102900003AFDCEE7CA684968206801F03CFD4021E5
:102910002068F4E7226801461046F0E72DE9F0410F
:102920000D46040003D094F83D0018B108E00120E2
:10293000BDE8F081002084F83C00204600F040F81B
:10294000022084F83D002068816844F20702914328
:102950008160211D206801F0C1FC226890689169A6
:10296000166A2B68AF69034340F20330814341EAA2
:102970000721A868EF6908434FF6FC418843E968DE
:1029800040EA0720014328692F6A000140EA073026
:10299000084369686D6926F0220646EA0515294351
:1029A00093602268906154F8460B0162012004F89C
:1029B0001F09E0752076E0762077A0750020B7E744
:1029C00010B586B00024009401940294039400682A
:1029D000B0F1804F30D11948C16941F00101C161A6
:1029E000C16901F001010491816941F00401816133
:1029F000816901F004010491816941F0080181615C
:102A00008069694600F0080004904FF4004000908F
:102A10000B48FEF797FB0820CDE9000469460948FA
:102A20000294FEF78FFB0849486820F4407040F09C
:102A3000E06040F48070486006B010BD00100240B5
:102A400000080140000C01400000014070B590F802
:102A50003E60044690F83F5090F8423090F8432092
:102A6000022021B104290ED0012E1BD114E0012E29
:102A700018D1012B16D184F83E0084F842000122BF
:102A80000021206820E0012D0CD1012A0AD184F810
:102A90003F0084F8430014E0012D03D1012B01D144
:102AA000012A01D0012070BD84F83E0084F83F0067
:102AB00084F8420084F8430001220021206801F0DC
:102AC00043FC01220421206801F03EFC20680168DB
:102AD00041F001010160002070BD704770B50446EF
:102AE000006801694FF00005C943890715D4C16822
:102AF000C943890711D4E91E0161012020772068AC
:102B000080698007204602D0FFF7E7FF04E000F06D
:102B100098F8204600F096F8257720680169C943A7
:102B2000490717D4C168C943490713D46FF004019A
:102B30000161022020772068806910F4407F2046E0
:102B400002D0FFF7CAFF04E000F07BF8204600F057
:102B500079F8257720680169C943090716D4C16847
:102B6000C943090712D46FF00801016104202077DE
:102B70002068C0698007204602D0FFF7AEFF04E05E
:102B800000F05FF8204600F05DF8257720680169C5
:102B9000C943C90617D4C168C943C90613D46FF025
:102BA00010010161082020772068C06910F4407F7F
:102BB000204602D0FFF791FF04E000F042F82046E3
:102BC00000F040F8257720680169C943C90708D19A
:102BD000C168C943C90704D1891E0161204600F0BC
:102BE00033F820680169C943090609D4C168C9439B
:102BF000090605D46FF0800101612046FFF77BFDD7
:102C000020680169C943490609D4C168C943490616
:102C100005D46FF040010161204600F01FF82068E4
:102C20000169C94389060BD4C168C943890607D421
:102C30006FF0200101612046BDE87040FFF75CBDE8
:102C400070BD70477047000000680349884201D199
:102C5000FEF776BF70470000002C01407047FEE78A
:102C60000148FEF76DBB0000B40700200148FEF7E5
:102C7000C9BB0000B407002038B5406A002190F8B5
:102C80003D202B4B46F2A8141B68B3FBF4F3C3EBB7
:102C9000C30303EB830300933BB15B1E0093036804
:102CA0001B689B0505D5009BF6E7036C43F02003EA
:102CB0000364436B03B19962836B03B19962036848
:102CC0001C6824F480641C604185436B03B1596324
:102CD000836B03B1596303681C6824F001041C6012
:102CE00090F83D402023602C0BD0282434EA0202C7
:102CF0000FD080F83D3080F83E1000BFFEF79AFC00
:102D000038BD80F83D3080F83E100164FEF716FBB8
:102D100038BD0268136843F001031360026813684A
:102D200043F480631360016380F83D40E6E70000F0
:102D30003000002010B5406A0021426B02B1916260
:102D4000826B02B191620268136823F4806313609E
:102D50004185202280F83D2080F83E10016C41F032
:102D600010010164FEF766FC10BD2DE9F041446AD4
:102D700094F83D2094F83E50E16A2068436823F4BB
:102D800040734360636B002003B19862A36B03B18F
:102D90009862212333EA02074FF022060CD036EA6C
:102DA000020701D1202D07D094F83E20002A21D01F
:102DB000628D012A20D024E021684D6825F4006549
:102DC0004D6060852820292A02D02A2A07D00CE0ED
:102DD000236384F83D002046FEF7B1FE05E026633C
:102DE00084F83D002046FEF7A9FE2068416841F4C2
:102DF00040714160BDE8F0812268136823F480636C
:102E000013602268536823F44073536011F5803FC8
:102E100006D0082904D0B1F12A4F01D0202904D1CD
:102E200021680A6842F400720A6021684A6822F444
:102E300080524A6021684A6822F400624A606085D4
:102E4000216C19B12046FEF7F5FBD3E7202184F869
:102E50003D1094F83E1084F83E00402905D0122021
:102E600020632046FEF7ADFCC4E720632046FEF752
:102E7000AAFCBFE700684169C943090601D40021E3
:102E80000161704770B5044690F83D0094F83E101B
:102E9000102901D0402906D1222804D121680A68CE
:102EA00022F400620A60282131EA00024FF0000596
:102EB0004FF0200626D021684968090505D460280E
:102EC00003D084F83D6084F83E5025632068416853
:102ED000090537D5416821F400614160606B90F8C5
:102EE00021203C49012A11D04163606BFDF7B8FFF6
:102EF00038B32068016821F00101016084F83D6069
:102F0000606B1CE0256384F83D10DFE7A06B416334
:102F1000A06BFDF7A5FFA0B120684169C943490630
:102F200005D40069616A0870606A401C60622068AC
:102F3000016821F00101016084F83D60A06B416BE4
:102F4000884710E094F83D10602910D04169C943CA
:102F5000490605D40069616A0870606A401C6062B5
:102F60002046FEF767FB206CC1071CD115E084F8F2
:102F70003D6025644169C943490605D40069616A19
:102F80000870606A401C60622068016821F00101DD
:102F900001602046FEF7D2F9E5E7810703D4410737
:102FA00001D4000704D52068416821F4E061416044
:102FB00094F83D00216C49070BD5282809D1064813
:102FC000E062256384F83D6084F83E502046FEF7B9
:102FD000F7FB70BD792C00080000FFFF01684A690B
:102FE000D24352050FD46FF480624A61002140F849
:102FF000301F202242738173026942F00402026191
:103000000173012070470020704710B5C26A438DDC
:103010000168042B06D0438D032B08D0438D022B6F
:103020001DD012E04A6822F480624A600CE04B68CE
:1030300023F480634B60042A06D0022A04D001687E
:103040000A6822F480620A6001680969426A1170A4
:10305000416A491C4162418D491E418510BD012ACA
:1030600030D0102A2ED0042A30D0022A2ED00A685E
:1030700042F400720A6001680969426A1170416A8B
:10308000491C4162428D521E4285026812690A70D3
:10309000416A491C4162418D491E418501684A6867
:1030A00022F440724A60202180F83D1090F83E20C2
:1030B0000021402A80F83E100CD012210163FEF757
:1030C00080FB10BD0A6822F48062D3E70A6842F4EC
:1030D0008062CFE70163FEF776FB10BD38B590F84C
:1030E0003D1022290FD1418D03290DD901680969AD
:1030F000426A1170416A491C4162418D491E4185F5
:10310000418D032906D038BDC26A022A02D00129A6
:1031100006D029B10068416821F48061416038BD62
:10312000274946F2A81300220968B1FBF3F101EB2D
:103130008101009101682023009C641E009422D02C
:103140000C68A405F8D40C6824F480640C60016851
:103150004C6824F4E0644C6001680969446A217099
:10316000416A491C4162418D491E418580F83D30CC
:1031700090F83E1080F83E2040291DD012210163B6
:10318000FEF71FFB38BD046C44F0200404644C6857
:1031900024F4E0644C6001680969446A2170416A62
:1031A000491C4162418D491E418580F83D3080F8BF
:1031B0003E20FEF73FFA38BD0263FEF704FB38BD40
:1031C0003000002010B5C26A90F83D1021290BD1C3
:1031D000418D51B1416A026809781161416A491C07
:1031E0004162418D491E418510BD20230021082ADE
:1031F00013D0202A11D012F5803F0ED002685468F7
:1032000024F4E06454601122026380F83E1080F8D8
:103210003D3000BFFEF7D6FA10BD0268546824F4B2
:10322000E06454600268146844F40074146001633C
:1032300080F83D3090F83E2080F83E10402AE9D1D9
:10324000FEF7C2FA10BD000010B590F83D1090F8DE
:103250003E30C26A048DB4B1212903D0402B11D174
:1032600022290FD1418DE1B390F83E10402942D080
:10327000416A026809781161416A491C4162418DC5
:10328000491E418510BD2129E8D120230021082AAB
:1032900013D0202A11D012F5803F0ED00268546856
:1032A00024F4E06454601122026380F83E1080F838
:1032B0003D3000BFFEF786FA10BD0268546824F462
:1032C000E06454600268146844F40074146001639C
:1032D00080F83D3090F83E2080F83E10402AE9D139
:1032E00000E002E0FEF770FA10BD0068416821F4CA
:1032F0008061416010BDBDE8104000F0F3B80000EF
:1033000078B590F83E50C26A046B90F83D60002397
:103310000168222E73D1066D0EB9402D6FD0056D58
:103320001DB90569B5F5404F1BD0458D95B3468D48
:10333000484D012E20D0448D022C4DD00C6844F411
:1033400080640C6001684C68240579D5AA4273D06A
:10335000012A71D0082A6FD0102A6DD0202A6BD094
:103360006EE04A698A6900920A6842F480720A60D3
:10337000016D491C016578BDAA4214D10A6822F486
:1033800080620A6001684A68120504D50A6822F45E
:10339000806217E0FFE74A698A6900920A6842F48E
:1033A00000720A6050E0082A10D0202A0ED0122C99
:1033B0000AD0042A03D0022A01D0102AE6D10A68D2
:1033C00042F480620A603BE0012ADFD00A6822F4FE
:1033D00080620A600168DEE7042A11D0022A0FD059
:1033E000102A0DD00C6844F400640C6001684C692C
:1033F0008C6900940C6824F480640C6008E025E07B
:103400000C6844F480640C6001684C69896900911F
:1034100001684C68240517D5AA4207D0012A05D0B7
:10342000082A03D0102A01D0202A0DD14A6842F47C
:1034300080524A6008E0FFE74A6842F480524A60DE
:1034400001684A6989690091036578BD486988699E
:10345000009078BD0000FFFF90F83E10402910D08A
:103460000169B1F5804F19D0016DA9B3016D012932
:1034700010D1416C5FF0F10201F4407142EAD111C8
:1034800006E0016D0029416C05D0C9B241F001018F
:1034900000680161704701F0FE01F9E790F83D1006
:1034A0002129416C09D0C9B241F0010102681161C2
:1034B000416B29B1896A49B902E001F0FE01F5E7E3
:1034C000816B0029E6D0896A0029E3D00068416851
:1034D00041F4006141607047FFE7416CF02201F464
:1034E0004071CBE710B590F83D10026D4AB1026D06
:1034F000012A14D0026D022A16D0BDE81040FFF751
:10350000B9BCC16C0129816C02D0C1F3072108E06C
:103510000268C9B21161016D891C016510BD816C21
:10352000C9B20268116123E022291CD0428D0AB180
:10353000212920D0428D002AF0D12129EED1016825
:103540004A6822F4E0624A6001680A6842F4007244
:103550000A6000210163202280F83D2080F83E109F
:10356000FEF732F910BD01680A6842F480720A6001
:10357000016D491CD1E7416A026809781161416A0D
:10358000491C4162418D491E418510BD2DE9F8431A
:10359000044600680D46DDE908970168984616461E
:1035A00041F4807101604B4600224FF0011120462A
:1035B000009700F085F948B120680068C00502D581
:1035C0004FF4007020640320BDE8F883216805F003
:1035D000FE0008613B464A461549204600F0B8F90E
:1035E00088B920684169806900903A46494620467A
:1035F00000F00CFA48B1206C042804D1206801685E
:1036000041F4007101600120DEE7F5B2B8F1010F6D
:1036100009D02168300A08613A464946204600F040
:10362000F5F90028E7D1206805610020CCE700000B
:103630000200010038B50C4690F83D2000212825F5
:10364000954302680B4605D051699169009180F855
:103650003C3038BD556825F480655560E243540719
:1036600000D50121120601D5828900E0028B80F885
:103670003C3092B2FDF763FE38BD00002DE9F04109
:1036800090F83D300446C26A002120261E4F006893
:103690006FF48065082A01D0202A01D1282B04D09C
:1036A000212B17D04561BDE8F081E762426822F422
:1036B000E0624260206845612068026822F480620E
:1036C0000260216384F83D6084F83E102046FEF7D6
:1036D00077F8E8E7E7622122226384F83D6084F806
:1036E0003E10416821F4E061416020684561206836
:1036F000016821F4806101602046FFF7BBFB204692
:10370000FEF71DFACFE700000000FFFFF8B590F8C4
:103710003D6004460068416821F4E0614160206832
:10372000002541690091016841F0010101602068B4
:10373000016821F48061016020684168090520D595
:10374000474F222E48D02A2E46D0616B096849681F
:103750006185618D19B1216C41F0040121644168DA
:1037600021F400614160606BFDF7C6FB012808D0C1
:10377000606B4763606BFDF773FB10B1606B416B6F
:103780008847608D08B320684169C943490708D458
:103790000069616A0870606A401C6062608D401E4A
:1037A000608520684169C943490608D40069616A97
:1037B0000870606A401C6062608D401E6085608D8C
:1037C00018B1206C40F004002064206C00B3204647
:1037D000BDE8F840FFF756BBA16B096849686185F1
:1037E000618D19B1216C41F004012164416821F41B
:1037F00000614160A06BFDF77FFB0128C1D0A06B89
:103800004763A06BFDF72CFB0028BAD0A06BB6E78E
:103810002A2E06D12563282084F83D002046FEF795
:103820008DF994F83D10202028290DD0216B2229F4
:1038300001D0222E07D1256384F83D0084F83E5044
:103840002046FEF77BF9F8BD0649E162256384F85E
:103850003D0084F83E502046FDF7B2FFF8BD000061
:10386000792C00080000FFFF70B516460D4604468F
:103870001EE02046FFF7B2FB08B1012070BD681CB6
:1038800016D0FDF755FD801BA84200D885B92068E9
:103890004069C04340070BD5002044F8300F202179
:1038A0006173A073216941F0200121612073E4E775
:1038B00020684069C0434007DBD4002070BD000091
:1038C0002DE9F047984617460D460446C1F30746D2
:1038D000DDF820902AE000BFB8F1FF3F26D0FDF7C9
:1038E00027FDA0EB0901414502D8B8F1000F1DD119
:1038F0002068012E16D0806925EA00000004000C23
:1039000012D00020B84211D1002044F8300F2021FD
:103910006173A073216941F02001216120730120AE
:10392000BDE8F0874069E7E70120EBE72068012E5A
:103930000AD0806925EA00000004000C06D00020AF
:10394000B842C9D00020EBE74069F3E70120F7E770
:103950002DE9F047984616460D4604464FF00009FB
:103960004FF0200AC1F3074723E020684069C043B5
:10397000400515D42068016841F400710160216898
:103980006FF480604861C4F8309084F83DA084F8FA
:103990003E90216C41F00401216484F83C9021E0C8
:1039A000701C06D0FDF7C4FCA0EB0800B04203D8A1
:1039B00016B1012F1FD021E02068012F15D080699A
:1039C00025EA00000004000C18D000BF44F8309F26
:1039D00084F80DA084F80E90216941F02001216146
:1039E00084F80C900120BDE8F087406925EA0000CA
:1039F0000004000CEAD12068406901E02068806979
:103A000025EA00000004000CAFD1ECE770B51646C3
:103A10000D4604461EE02046FFF7E0FA08B10120FB
:103A200070BD681C16D0FDF783FC801BA84200D82F
:103A300085B920684069C04300060BD5002044F8D2
:103A4000300F20216173A073216941F020012161B1
:103A50002073E4E720684069C0430006DBD40020FF
:103A600070BD2DE9F0418846C669044601683046BC
:103A700002F0F6F8606005463046616902F0F0F841
:103A8000216A01F061FFE0600746616A01F05CFFB6
:103A90000146384601F0BAFF0646A0612946404675
:103AA00002F0B4F9314602F0DBF8294601F04CFF90
:103AB0000546A06031464FF07E5002F0A7F9394626
:103AC00002F0CEF82061256060612846BDE8F081F3
:103AD000FEB500241B48009401941949029401602A
:103AE0008915816001250573047503260661C902E5
:103AF0004460C161FDF700F808B1FCF7E9FD06205C
:103B00000094CDE9015069460E48FCF7C9FE08B1A2
:103B1000FCF7DEFD02200090019069460948FCF7A1
:103B2000BFFE08B1FCF7D4FD0420CDE900066946CC
:103B30000448FCF7B5FE002801D0FCF7C9FDFEBD26
:103B400000240140400700200D4808B5416941F0BC
:103B5000010141614069002200F00100009005214F
:103B60000B20FEF77FF80B20FEF76EF800220521F0
:103B70001020FEF777F8BDE808401020FEF764B883
:103B80000010024000B587B01C2206496846FCF7C9
:103B900067FB0021684600F0B1FC0349086007B0EC
:103BA00000BD0000046800082000002030B585B08A
:103BB000002418480094019402940394816941F010
:103BC00020018161816901F020010491816941F046
:103BD00004018161816901F004010491816941F06E
:103BE0000801816180690C4D00F0080004900022FA
:103BF0000A212846FDF796FB0A2000900120CDE916
:103C000001040220039069462846FDF79BFA05B09F
:103C100030BD000000100240000801400D4810B502
:103C20000B4901600C494FF48042C0E901120021A8
:103C3000C0E9031241618161C1610162FDF7FCFCD1
:103C4000002803D0BDE81040FCF742BD10BD0000C5
:103C500000540040B4070020801A0600104810B538
:103C60000E4901604FF48271416000218160C160A2
:103C70004FF400720161C0E905120822C0E9072172
:103C8000416281620A21C162FEF7E4FB002803D091
:103C9000BDE81040FCF71CBD10BD00000030014025
:103CA0004C08002010B58CB024216846FCF72CFB92
:103CB0000024154809944FF080410A94C0E900148B
:103CC0004FF6FF71C0E90241046184610120CDE932
:103CD0000004CDE902040494CDE905400794694647
:103CE00009480894FEF71AFE08B1FCF7F1FC0994A4
:103CF00009A905480A94FEF701FD002801D0FCF748
:103D0000E7FC0CB010BD0000A408002010B586B080
:103D100000241748009401940294039404941349D6
:103D2000059401604721C0E9011440F2E731C0E980
:103D300003148461FEF716FD08B1FCF7C9FC4FF4CB
:103D40008050009069460A48FEF77AFD08B1FCF7FA
:103D5000BFFC2020CDE9040404A90548FEF7CEFCF1
:103D6000002801D0FCF7B4FC06B010BD00040040F0
:103D7000EC080020FEE7FEE74FF480610148FCF705
:103D8000A1BA00009C0000200EB5C820FDF7C8F9BC
:103D9000054864221C218DE80700012300227821B8
:103DA0000248FDF713FD0EBD04000020B4070020FB
:103DB000034A02EBC1110844024908607047000041
:103DC0009C000020000000202DE9F041203A002452
:103DD0000D468046D6B27F2803D900208D1C804630
:103DE000EDB2102B29460FD0FFF7E2FF164906EB84
:103DF000460001EB4005285D00F0BEF8641CE4B20B
:103E0000062CF8D3BDE8F081FFF7D2FF0F4F00BFBB
:103E100004EB0610385C00F0AFF8641CE4B2082C28
:103E2000F6D36D1CE9B24046FFF7C2FF5FF0000415
:103E300004EB06103844007A00F09EF8641CE4B2EB
:103E4000082CF5D3DEE70000E65F000814620008E6
:103E50002DE9F04700261D4691468A4680463446A5
:103E6000089F20E0281B401EC1B20A2000F032FB50
:103E7000B9FBF0F00A21B0FBF1F201FB120026B908
:103E8000691E8C4201DA90B101263030C2B2102F87
:103E900018D0062101FB0480C0B23B465146FFF713
:103EA00093FF641CE4B2AC42DCD3BDE8F087102F72
:103EB00006D0062101FB0480C0B23B462022EDE77C
:103EC0000821F7E70821E5E72DE9F04700261D4620
:103ED00091468A4680463446089F20E0281B401EB3
:103EE000C1B20A2000F0F6FAB9FBF0F00A21B0FBEB
:103EF000F1F201FB120026B9691E8C4201DA90B181
:103F000001263030C2B2102F18D0062101FB0480E8
:103F1000C0B23B465146FFF757FF641CE4B2AC42C7
:103F2000DCD3BDE8F087102F06D0062101FB04800A
:103F3000C0B23B463022EDE70821F7E70821E5E76C
:103F40002DE9F041984617460E46044600250DE03F
:103F5000434631462046FFF737FF0834E4B2782C59
:103F600002D90024B61CF6B26D1CEDB27A5D002AAF
:103F7000EED1BDE8F0810000024A116801F8010BA2
:103F800011607047000000202DE9FC410546FDF757
:103F9000CFF904464FF480660A4F07E0FDF7C8F9F1
:103FA000401BA04202D90020BDE8FC81CDE900768B
:103FB0000123402278210448FDF7A0FC0028EDD120
:103FC0000120F1E79C000020B40700202DE9F04714
:103FD000DFF89490064688460F2400224B4601F0F5
:103FE00073F805460F4600224B463046414601F025
:103FF00095FB2A463B4601F017F901F033F880465D
:10400000014601F02DFE82461F251848184901F08F
:1040100029F801465046AD1E01F022FE01F068FC71
:1040200007460E46284601F057FA02460B46002086
:10403000494601F0F9F83A46334601F045F801F0F7
:1040400011F8641E002CE4DC01F052FC05460C461D
:10405000404601F04DFC012201F07FFF2A46234635
:10406000BDE8F04701F050BA0000F03F841042086C
:104070002184A03F0148FEF77DB900004C080020D4
:1040800010B5406A0021C187C186FEF771F910BDE5
:1040900038B50B46009204460022802100F008F853
:1040A000002804D0606D40F020006065032038BD1A
:1040B0002DE9F8431E46914688460446089DFDF7C3
:1040C00037F9401B351AFDF733F9074625480068D4
:1040D000C0F3CB30684338E0701C37D0FDF728F9C7
:1040E000C01BA84203D215B1009860B32CE0206831
:1040F000416821F0E00141606068B0F5827F0BD13A
:10410000A068B0F5004F02D0B0F5806F04D12068F0
:10411000016821F040010160A06AB0F5005F09D19B
:104120002068016821F4005101602068016841F4B1
:1041300000510160012084F85100002084F85000F3
:104140000320BDE8F8830025401E009020688168A8
:1041500038EA010004D000214945BDD10020F0E734
:104160000121F9E73000002038B500240D4901F0A5
:104170004DFE214601F04AFC01F026FD0A4C8DF867
:104180000000012202212046FDF7CCF80A2301227B
:1041900069460648FEF7F8F9002202212046FDF79D
:1041A000C1F838BD17D97E3F000801404C080020F7
:1041B000F8B504460F461646104601F0E9FC01F03A
:1041C00023FD314601F018FE114901F049FD054675
:1041D000304601F0F9FC024601260223394620460A
:1041E0000096FFF735FE04F10C00C0B201232E2229
:1041F0003946FFF7E9FD284601F0E6FC0246123495
:10420000E0B2022339460096FFF75EFEF8BD0000DB
:104210000000C84200F0DAF8002000F0EFFC0120B6
:1042200000F060F9F6E7000010B5502080F3118827
:10423000BFF34F8FBFF36F8F00F04EFE18B10449EC
:104240004FF080500860002080F3118810BD0000FE
:1042500004ED00E030B593B028216846FCF754F82F
:1042600014210AA8FCF750F8002501200F9510959D
:104270001195010412958DE8230004904FF4E0108D
:10428000CDE90810022407946846FDF7E1FE08B165
:1042900072B6FEE70AA90F2081E831004FF4806072
:1042A000CDE90D0502210AA8FDF7D6FD08B172B6C9
:1042B000FEE74FF4004011900F940FA8FDF756FD54
:1042C000002801D072B6FEE713B030BD7047000081
:1042D0000148FEF703BC000034090020F0B5026875
:1042E000164B174C174D4FF08047984205D0B842F7
:1042F00003D0A04201D0A84203D122F070064A6840
:104300003243984205D0B84203D0A04201D0A8421F
:1043100003D122F44074CA6822434C6922F080021F
:10432000224302608A68C2620A688262984201D1AE
:104330000969016301214161F0BD0000002C0140C9
:10434000000400400008004010B501F01F030121E7
:10435000046A99408C430462016A9A4011430162E5
:1043600010BD10B5846842EA032224F47F440A4356
:104370002243826010BD826822F070020A4342F03C
:1043800007018160704710B5036A046A24F00104D4
:104390000462846924F0F00444EA021423F00A025F
:1043A0000A438461026210BD10B5036A046A24F0F6
:1043B00010040462846923F0A00324F4704444EAE6
:1043C000023243EA01118261016210BD1CB5002175
:1043D0000520CDE900010B464FF4807202A106488A
:1043E00000F022FD1CBD0000436F6D7061726556C8
:1043F0006F6C7461676500005D050008FEE70907E2
:10440000090E002804DB00F1E02080F8001470475A
:1044100000F00F0000F1E02080F8141D7047002329
:1044200003604361C0E908124FF07E51C1614360EF
:1044300081627047FDF78CFBFFF70CFFFFF7B6FBBF
:10444000FFF782FBFFF744FBFFF7E8FBFFF75EFC9B
:10445000FFF728FCFFF702FC15480068016841F0EF
:104460000101016013480068016841F040010160EA
:104470001148FCF7A7F91148FEF7B6F95022104988
:104480000D48FCF719FCFCF74BF83C210D48FEF7F2
:10449000DDFAFFF779FCFFF76FFC00F079FA3220C4
:1044A000FFF772FDFFF76EFB00F023F8FEE7000058
:1044B000B40700204C08002040070020EC08002032
:1044C0009C040020A408002001460020842900D07C
:1044D000C81C70470246012000E05043491EC9B283
:1044E000FBD2704710B500B9012000F061FB00203D
:1044F00010BD10B500F0D8FB002010BD7FB50D46F3
:1045000004464169B0F9080081B1A16971B1FFF7B2
:10451000DBFFD4E905128DE80700D4E900102B4633
:10452000226900F0AEFC039004B070BDFFF7CCFF31
:1045300003A9CDE90001208A2B4682B2D4E90010FC
:1045400000F072FC012801D00020EDE70398EBE7B2
:104550002DE9F041184C0F46054666692068001D9C
:1045600000F062FA38B9206890F82C1001208840D9
:10457000A1698143A161681C07D137B12168BDE8F9
:10458000F0410E48091D00F093BA20683544B54249
:104590004560216805D2A068BDE8F041091D00F022
:1045A0006FBA6068091D00F06BFA206B854200D27B
:1045B0002563BDE8F081000034000020580A002087
:1045C0002DE9F041054600F07FFA2E4C2069401C91
:1045D000206120682C4F10B1E06940B32DE02560C8
:1045E0002069012829D1002606EB860007EB800010
:1045F00000F038FA761C072EF6D323488C3000F0F2
:1046000031FA2148A03000F02DFA1F48B43000F0F4
:1046100029FA1D48C83000F025FA1B48DC3000F0AC
:1046200021FA19488C3060601430A06005E02068E1
:10463000E96AC06A884200D82560E06A401CE062EE
:10464000E96A0120A26988401043A06101EB810062
:1046500007EB8000291D00F02BFA00F055FAE06905
:1046600000280CD02068E96AC06A884207D207494E
:104670004FF080500860BFF34F8FBFF36F8FBDE8DE
:10468000F0810000340000207C09002004ED00E0EF
:1046900010B5044690F8510058B101280CD00228FA
:1046A0000FD0502080F31188BFF34F8FBFF36F8F6F
:1046B000FEE7206B00F03CFA2046BDE8104000F019
:1046C00037BA10BD10484FF44061420706D0C01DF4
:1046D0000D4920F00700411AC1F540610B4A002343
:1046E0000144C2E900030839103A21F007011160C2
:1046F0004B600B600B1AC0E9001393604FF0004051
:104700005360D060704700006C0A002080000020D9
:10471000144E154CA6F1C8074FF08058DFF84C90A6
:1047200012E000BF00F0D0F9F068C568281D00F065
:104730007BF92069401E2061E068401EE06000F0C7
:10474000E3F92846FFF7A4FFE0680028EAD13868BB
:104750000128F9D9C9F80080BFF34F8FBFF36F8FDD
:10476000F2E70000440A00203400002004ED00E0DD
:104770002DE9F0479A46DDE9098481466FF003038D
:10478000206B03EB82021044089D20F0070670079F
:1047900007D0502080F31188BFF34F8FBFF36F8F86
:1047A000FEE723180A5C83F834200A5C12B1401C2F
:1047B0001028F6D3002784F84370072D00D3062570
:1047C000E562C4E91157201D00F057F904F1180003
:1047D00000F053F92461C5F107006462A061E76449
:1047E00084F8507052464946304600F0BFF82060C9
:1047F000B8F1000F01D0C8F80040BDE8F087000014
:1048000030B5114900E011460A688242FBD34B687B
:104810005C18844203D140681844486008464368E5
:104820001C18944209D1084C103C2468A24209D0BB
:1048300052681A4442600A6812680260814200D0DD
:10484000086030BD0460F9E7800000200648416838
:10485000096829B14168C968C96849680163704736
:104860004FF0FF31FAE700003400002008484068AC
:10487000401C4FF0500080F3118804D0BFF34F8FDD
:10488000BFF36F8FFEE7BFF34F8FBFF36F8FFEE76E
:10489000880000202DE9F0410546002700F03AFA93
:1048A000314E306808B9FFF70DFFF06805424BD173
:1048B000C5B3083568070ED005F00700C0F1080041
:1048C0000544680707D0502080F31188BFF34F8F4D
:1048D000BFF36F8FFEE72DB37068854234D822484E
:1048E000103001460C6801E020460C466168A94280
:1048F00002D221680029F7D131688C4224D00768A0
:104900002168016060680837411B10290FD96019C0
:10491000420708D0502080F31188BFF34F8FBFF3B8
:104920006F8FFEE710E041606560FFF769FF616827
:104930007068401A7060B268904200D2B060F0684F
:1049400001430020C4E9000100F02AFB780707D0EA
:10495000502080F31188BFF34F8FBFF36F8FFEE7B6
:104960003846BDE8F08100007000002010B5031F3C
:104970004FF080741C601B1F21F001011960191F8A
:10498000024B0B60143940380A6010BD6D480008B6
:1049900010B501210B2315A20846FFF7D1FA052314
:1049A00015A202213020FFF7CBFA0B2314A203211A
:1049B0000120FFF7C5FA05230FA204213020FFF7DD
:1049C000BFFA0A2311A205210120FFF7B9FA052336
:1049D00011A206210120FFF7B3FA04230721BDE845
:1049E00010400FA20120FFF7ABBA0000566F6C28F1
:1049F00056293A28494E2900284F555429000000CD
:104A00004375722841293A28494E290045785F5656
:104A10006F6C285629000000416C61726D00000027
:104A200054656D7000000000D0E9013201699A60A0
:104A3000D0E901235A604A68824201D182684A6003
:104A4000002202610868401E086008687047000084
:104A5000034B036003F1540008608020106070472E
:104A6000EC04002000F108014FF0FF32C0E9011210
:104A7000C160016100210160704700210161704740
:104A800030B50B685A1C02D000F1080202E002693E
:104A900004E02246546825689D42FAD953684B6069
:104AA00099608A60516008610168491C016030BDED
:104AB00042684A6093688B609368596091600861AE
:104AC0000168491C01607047502080F31188BFF3D2
:104AD0004F8FBFF36F8F0A494868401C4860012818
:104AE0000CD10848006810F0FF0F07D0502080F369
:104AF0001188BFF34F8FBFF36F8FFEE77047000041
:104B00008800002004ED00E00849486828B1401EF4
:104B1000486001D180F311887047502080F31188DC
:104B2000BFF34F8FBFF36F8FFEE7000088000020B8
:104B300070B5002827D0144DA0F108046168E8681A
:104B4000014207D1502080F31188BFF34F8FBFF38C
:104B50006F8FFEE722683AB1502080F31188BFF3CF
:104B60004F8FBFF36F8FFEE78143616000F0D2F893
:104B700060686968084468602046FFF741FEBDE848
:104B8000704000F00DBA70BD700000204FF0E020C2
:104B900000210161816105494FF47A720968B1FB16
:104BA000F2F1491E41610721016170473000002088
:104BB00010B5020014D00F48806B38B1502080F33C
:104BC0001188BFF34F8FBFF36F8FFEE700F0A2F89D
:104BD00000211046FFF7BCFC00F0E2F9002807D1E5
:104BE00005494FF080500860BFF34F8FBFF36F8FC0
:104BF00010BD00003400002004ED00E070B5054653
:104C0000FFF762FF254C05B92568281DFFF70CFF4B
:104C100058B9E86A224A00EB800152F8211021B904
:104C200001218140A0698843A061A86A18B105F1FB
:104C30001800FFF7F9FEE06A401CE0622068854238
:104C400008D11748291DC830FFF732FFE068401C23
:104C5000E06007E02069401E20612846FFF718FD4C
:104C6000FFF7F4FDFFF750FFE069002814D020683B
:104C7000854211D1A06B38B1502080F31188BFF369
:104C80004F8FBFF36F8FFEE706494FF080500860EB
:104C9000BFF34F8FBFF36F8F70BD00003400002053
:104CA0007C09002004ED00E010B586B000240394D8
:104CB00005AA04A903A80494FFF7CAFEDDE90301CD
:104CC0000094CDE9011000230EA11048059A00F0D0
:104CD000D8F80F490028486311D0502080F311887C
:104CE000BFF34F8FBFF36F8F4FF0FF30086301208A
:104CF000C8614C6106B0BDE8104000F041B806B094
:104D000010BD000049444C45000000001147000858
:104D1000340000200248816B491C81637047000009
:104D2000340000201448816B11B1012141627047A9
:104D3000002141628169B1FA81F1C1F11F0101EBEA
:104D400081020E4951F822306BB101EB820101F171
:104D500008034A6852684A609A4201D152684A6020
:104D6000D16801607047502080F31188BFF34F8FE6
:104D7000BFF36F8FFEE70000340000207C090020A5
:104D80001CB5264908780190FF20087008788DF836
:104D900000009DF800009DF8002000F0F000904217
:104DA00007D0502080F31188BFF34F8FBFF36F8F70
:104DB000FEE79DF800001A4B00F050001870072025
:104DC000986005E09DF8002052008DF80020401EFC
:104DD0009DF800201206F5D49860032807D05020D3
:104DE00080F31188BFF34F8FBFF36F8FFEE74FF44F
:104DF00040709860019808700A48016841F4700199
:104E00000160016841F070410160FFF7BFFE0020C2
:104E10005860FBF7CBF900201CBD000000E400E067
:104E20008800002020ED00E02DE9FF5F8346DDE9EA
:104E30000E87994616468A469000FFF72BFD05001F
:104E40001CD05420FFF726FD040014D00020256359
:104E500084F85100CDE90240CDE900874B46324647
:104E600051465846FFF784FC2046FFF7A9FB012076
:104E700004B0BDE8F09F2846FFF75AFE4FF0FF3020
:104E8000F6E7F0B585B0DDE90B640A9DA6B1DCB1AB
:104E9000542700972663022684F85160002604AF49
:104EA000CDE90246CDE90057FFF762FC2046FFF747
:104EB00087FB049805B0F0BD502080F31188BFF344
:104EC0004F8FBFF36F8FFEE7502080F31188BFF341
:104ED0004F8FBFF36F8FFEE72DE9F0412E4C002777
:104EE000A06B40B1206A401C2062606A00B10127BB
:104EF0003846BDE8F0816669761C666113D160684A
:104F0000006838B1502080F31188BFF34F8FBFF392
:104F10006F8FFEE76068A1686160A060A06A401CB6
:104F2000A062FFF793FC206BDFF87080864209D304
:104F30006068006880B16068C068C568686886425B
:104F40000DD220632068C06A00EB800158F8210070
:104F50000128CAD90127C8E74FF0FF30F1E7281D23
:104F6000FFF762FDA86A18B105F11800FFF75CFDB4
:104F7000E86A0121A26981401143A16100EB80012F
:104F800008EB8100291DFFF793FDE86A2168C96AD3
:104F90008842CDD30127CBE7340000207C090020D4
:104FA0002DE9F0472C4D00242746A86B38B1FFF7B8
:104FB0008BFDA86B401EA863A86B40B146E0502053
:104FC00080F31188BFF34F8FBFF36F8FFEE729691E
:104FD000224E0120D1B3A6F1B40980463068E8B171
:104FE000F068C46804F11800FFF71EFD201DFFF7EC
:104FF0001BFDE06AAA6908FA00F11143A96100EB00
:10500000800109EB8100211DFFF752FDE06A29684C
:10501000C96A8842E2D3C5F82480DFE70CB1FFF704
:1050200015FC2C6A44B14646FFF756FF00B16E628C
:10503000641EF9D100202862686A38B10849012746
:1050400038070860BFF34F8FBFF36F8FFFF75CFD2A
:105050003846BDE8F087000034000020300A002008
:1050600004ED00E021F00042A2F16052B2F5801F91
:1050700001F0004328BFD2F17F6C0BD95FEA001C1E
:1050800043EAC20242EB507018BF704728BF20F0BD
:1050900001007047B2F5801FBCBF184670474FEA49
:1050A000410C1CF5001F02D2084600F0A0BE70B5EE
:1050B00000F0D4FA00000089FFF7F6BF4FF000407F
:1050C000A0F580007047000010B591EA030F48BFBB
:1050D00083F0004300F12A83841A71EB030C05D29C
:1050E000121943EB0C03001B61EB0C01DFF824E108
:1050F0004FEA1154A4EB135C1EEA430F18BF9EEA5B
:10510000445F73D023EA0E03DCF1200E21EA045140
:1051100043F4801332D322FA0CFE10EB0E0023FA74
:105120000CFE41EB0E01CCF1200E03FA0EFE10EB4B
:105130000E0051F10001B1F5801FCCF1200E32D2EA
:1051400001EB045112FA0EF2BDE8104058BF70474F
:10515000401C38BF5FEA420218BF7047002814BFE6
:1051600020F0010041F100014FEA410313F5001F57
:1051700038BF7047A1F1C04100F0BEBA012A43EB2D
:105180000302ACF1200CDCF11F0E32BF4FF0000E19
:1051900023FA0CF310EB030041EB0451B4EB115F65
:1051A000D0D0A1EB045101F5801149085FEA30002D
:1051B00001EB04510ED350F1000038BF12FA0EFE7D
:1051C00008D1BDE81040C9E7401C38BF5FEA420281
:1051D000CAD1C3E7BDE810404FEA410313F5001FF1
:1051E00038BF7047A1F1C04100F086BA9EEA445F23
:1051F00008D011EA5E0FBDE8104004BF01F0004185
:1052000000207047BDE8104070B500F027FA00BFDD
:1052100064FBBE3E0000E0FF02494FF0000000F0DA
:105220006ABE00BF0000F87F2DE9C04130B4DFF84E
:10523000A0C23CEA111418BF3CEA131400F0EC8041
:1052400081EA03051CEA111444EAD57418BF1CEA6C
:10525000131500F0C780A4EB05044FF0004545EAA4
:10526000C12145EAC32341EA505143EA525304F1B4
:105270007F74994204F500344FEAC0204FEAC222FD
:1052800008BF904200F09C804FEA13650FF2401671
:10529000765D4FEA134506FB05F7C7F1807706FBFD
:1052A00007F74FEAD737A7FB03687642C8F580387F
:1052B000A7FB06CE38BFA8F1010807FB08E64FF0B0
:1052C000000EA6FB028CE6FB03CEDCF1000CCEF157
:1052D000004E38BFAEF1010EA6FB0C584FF0000790
:1052E0004FF00005E6FB0E87A1FB08C6A0FB07CE2A
:1052F00016EB0E0645F10005E1FB076515F1E04EE2
:105300007EBFA4F580345FEA46066D4116F1800742
:1053100045F100054FEA17274FEA066647EA056799
:10532000A6F1DE46B6F1805F4FEA15251FD9384653
:1053300024F0010C05EBC471BCF1FE6F01EB0C1104
:1053400002D8F0BCBDE8008124425CBF01F5801E9C
:105350009EEAC47F02D4F0BCBDE80081244238D468
:10536000F0BCA1F1C041BDE8004100F0C5B94FEA71
:10537000D22242EA43524FEAD323A7FB02864FEAE6
:10538000D02040EA415007FB03661EEA0E0F4FEAA9
:10539000D12105FB026658BFA6EB0056B6EB0056BE
:1053A0004FEA520E4EEAC37E18EB0E0E56EB530E2A
:1053B000BDD518EB02085E417F1C55F10005B6E72C
:1053C0004FF480154FF000074FF000064FF0000833
:1053D000ADE7F0BC4FF0000001F1C04101F0004129
:1053E000BDE8008111EA0C1F0CEA131500D00CE097
:1053F00013EA0C1F00F025804FF00000F0BC81EA9A
:10540000030101F00041BDE80081F0BCBDE80041AE
:1054100081EA030100F070B9F0BCBDE8004170B54D
:1054200000F01CF9097EFC3E00F007B881EA030198
:105430004FF0000001F00041704781EA030100F0E5
:105440005BB9F0BCBDE800414FF000002149704756
:10545000FFFDFBF9F7F5F4F2F0EEEDEBE9E8E6E439
:10546000E3E1E0DEDDDBDAD8D7D5D4D3D1D0CFCDC0
:10547000CCCBCAC8C7C6C5C4C2C1C0BFBEBDBCBBF9
:10548000BAB9B8B7B6B5B4B3B2B1B0AFAEADACABF4
:10549000AAA9A8A8A7A6A5A4A3A3A2A1A09F9F9ECE
:1054A0009D9C9C9B9A999998979796959594939380
:1054B000929191908F8F8E8E8D8C8C8B8B8A898917
:1054C000888887878685858484838382828181809A
:1054D0000000FF070000F87F10F0004248BF404284
:1054E000B0FA80F310FA03F10AD0C3F11D0303F5FB
:1054F00080634FEA415002EB035202EBD121704727
:105500004FF0000070470000DFF848C170B51CEA9A
:10551000111E1EBF1CEA13159EEA0C0F95EA0C0F14
:1055200000F06F8081EA030423EA4C134EEAD47E34
:1055300021EA4C1141F4801143F48013AE44A1FBE5
:10554000024CA0FB0365AEF17F7E361955EB0C05CE
:10555000A1FB034C4CF10003A0FB021C16EB0C0654
:10556000654153F10003094218BF46F0010613F4E8
:10557000007F0BD14FEA03314FEA0530340341EA93
:10558000155140EA16506FF003020AE04FEAC321BA
:105590004FEAC520F40241EA555140EA56506FF0F7
:1055A000020202EB2E4201EB025585EACE710AD0CF
:1055B0005FEA440C18BF24F0004450F1000041F1B0
:1055C000000120EAD47040F2FE7C624500D270BD3A
:1055D000A84214BF4FF080444FF04044002E08BF53
:1055E0000024BEF1806FA8BFA1F1C041BDE87040AA
:1055F00080F282804FF0000001F1C04101F00041D3
:1056000070479EEA0C0F0CEA131518BF95EA0C0FB1
:1056100006D04FF0000081EA030E0EF0004170BD8D
:1056200000F01CF88900013E00F007B800F009B84E
:105630004FEA430C5FEA5C5C08D081EA030100F0AA
:105640005BB84FEA410C5FEA5C5CF6D14FF00000BA
:10565000014970470000FF070000F87F0EF1020EBD
:105660002EF0030E5EF8046B364205D4012A43EB9C
:10567000030515F5001F12D8012841EB010C1CF59C
:10568000001F0CD80ED14FEAD17C15F5001F0CEB92
:105690004C0C0CF1020C08BF4CEBD37C04E04FF037
:1056A000080C01E04FEAD37C0CEB4C0526FA05F61A
:1056B00006F00706B6F1040C06D20EEB860CBDE828
:1056C00070404CF0010C6047DFE80CF0090B02025F
:1056D0004FF000414FF00000A1F5002170BD1946C8
:1056E0001046012851EB010418BFD4F5001484BF03
:1056F000002001F0004170BD0808A0F500114FEA3C
:105700003101704791EA030F10B581F000413FF578
:10571000E3AC83F0004300F009B8000010B591EA53
:10572000030F48BF83F000433FF5D6AC841A71EBFA
:10573000030C07D212198CF0004C43EB0C03001B36
:1057400061EB0C01DFF8A4E14FEA1154A4EB135C08
:105750001EEA430F18BF9EEA445F00F0B08023EAC0
:105760006E03524221EA0451C3EB6E0338BF5B1E45
:10577000DCF1200E25D322FA0CFE10EB0E0043FACA
:105780000CFE41EB0E01CCF1200E03FA0EFE10EBE5
:105790000E0051F10001CCF1200E29D412FA0EF2C4
:1057A00001EB0451BDE8104058BF7047401C1CBFBE
:1057B000B2F1004F704700280CBF491C20F00100D7
:1057C000704712EB020E43EB030218BF4FF0010EBD
:1057D0004EEA4202ACF1200CDCF11E0E54D943FA21
:1057E0000CFE10EB0E0051F1FF31CCF11E0ED5D5A1
:1057F0000EF1010E12FA0EFE404141EB010101EBE8
:10580000445C5FEA5C5C10D910EBDE7001EB045184
:1058100038BFBEF1004FBDE8104018BF70470028E8
:105820000CBF491C20F00100704730D24FEAD42C45
:1058300011F5001124F400641BD0B1FA81F20B3A87
:10584000A41AA41ED2F12003914030FA03F31943A5
:10585000904001EBCC71002C01EB0451BDE81040ED
:10586000A8BF704701F1C0414FF0000001F00041B6
:105870007047B0FA80F310FA03F100D110BDE41ABA
:10588000173C4805C90AE4E701EB045110BD491073
:1058900001EB0451BDE810404FEA300002E04FF048
:1058A000000170474A0008BF0042F8D0B2F5001F5F
:1058B00028BF704701F000414FF0000070479EEA9A
:1058C000445F07D011EA5E0FBDE8104004BF00211D
:1058D00000207047BDE8104070B5FFF7BFFE00BF65
:1058E00040DFF63E83F00041104670470000E0FFC5
:1058F00043004FEAD30C4FEA3C0C43401FBF400724
:105900000CF1605113F0FE4F70471CF0006F03D193
:1059100000200CF0004170470CF0004343EA507047
:1059200010B540EACC0000F01CFA00BF0000009265
:105930004FEA0001FFF7E0BE4FF000414FF00000DA
:10594000A1F500217047000090EA010F48BF81F0E7
:10595000004100F16282421A3CBF801A89184FEA66
:10596000D0524FF07F4C1CEA410FA2EBD15318BF2D
:105970009CEA026F00F03B804FF0004C4CEA0020A4
:105980004CEA012121FA03FC10EB0C0C1ED202F1AF
:10599000FF325FEA1C2040EBC25038BF70471CF05A
:1059A0007F0F4FEA400C18BFBCF17F4F38BF7047E4
:1059B000C3F12003994008BF20F00100BCF17F4FE4
:1059C00038BF7047A0F1C04000F011BA4FEA3C0068
:1059D000000A40EBC25028BF1CF0FF0F4FEA400CFA
:1059E000E6D018BFBCF17F4F38BF7047EAE79CEAAA
:1059F000026F05D010EA5C0F08BF00F0004070474E
:105A000010B500F0AEF900BF64FBBE3E4FF47F0C52
:105A10001CEAD0121EBF1CEAD11392EA0C0F93EAC3
:105A20000C0F00F0858090EA010F48BF42F48072AD
:105A300040F4000C41F400002CF07F4120F07F4046
:105A400000B58142A2EB03020FF2081CACEB504EF2
:105A5000C0F100009EF800E04FEA4E0E00FB0EFC85
:105A600038BF49004FEA2C1C02F5FA020CFB0EF37A
:105A70004FEACE1E4FEA112C4FEAC1210EEB635EB6
:105A800042EB22420EFB0CFC4FEA1C5300FB0311BD
:105A90004FEA112C4FEA01310EFB0CFC4FEADC4CB3
:105AA00000FB0C11C14228BF09184CEB03335DF811
:105AB00004EB10EB410143EBC250B2F57C0F38BF51
:105AC000704729D512F0F00F1CBF00F1C04000F064
:105AD00000407047008182838485868788898B8C0B
