:020000040800F2
:10000000006500202903000825310008DF2C0008C6
:10001000212F0008FD05000811580008000000000D
:10002000000000000000000000000000690200085D
:100030005508000800000000C502000885330008CC
:100040004303000843030008430300084303000878
:100050004303000843030008430300084303000868
:100060004303000843030008430300084303000858
:1000700043030008A50700084303000843030008E2
:100080004303000843030008430300080D0600086B
:100090000106000843030008430300084303000867
:1000A0004303000843030008430300084303000818
:1000B00059340008430300084303000843030008C1
:1000C00043030008430300084303000843030008F8
:1000D00043030008430300084303000843030008E8
:1000E00043030008430300084303000843030008D8
:1000F00043030008430300084303000843030008C8
:1001000043030008430300084303000843030008B7
:100110008135000843030008430300084303000837
:100120004303000843030008430300084303000897
:1001300043030008430300084303000825060008A2
:10014000430300081906000843030008293100088A
:100150004303000843030008430300084303000867
:100160004303000843030008430300084303000857
:100170004303000843030008430300080000000095
:10018000430300084303000800F002F800F05CF8A5
:100190000AA090E8000C82448344AAF10107DA45E2
:1001A00001D100F051F8AFF2090EBAE80F0013F0D8
:1001B000010F18BFFB1A43F001031847BC6D000084
:1001C000DC6D00000A444FF0000C10F8013B13F006
:1001D000070408BF10F8014B1D1108BF10F8015BA0
:1001E000641E05D010F8016B641E01F8016BF9D193
:1001F00013F0080F1EBF10F8014BAD1C0C1B09D1EA
:100200006D1E58BF01F801CBFAD505E014F8016B5B
:1002100001F8016B6D1EF9D59142D6D370470000ED
:100220000023002400250026103A28BF78C1FBD8FF
:10023000520728BF30C148BF0B6070471FB506F09A
:10024000E5FC1FBD10B510BD00F0AAF91146FFF77F
:10025000F5FF05F01FFC00F0C8F903B4FFF7F2FF4B
:1002600003BC05F015FC00002C4B19680868B0E8C9
:10027000F04F80F30988BFF36F8F4FF0000080F3D9
:10028000118870470000000008480068006880F38B
:1002900008884FF0000080F3148862B661B6BFF39F
:1002A0004F8FBFF36F8F00DF00BF00BF08ED00E08E
:1002B000DFF80C00016841F470010160704700BF75
:1002C00088ED00E0EFF30980BFF36F8F134B1A68DE
:1002D0001EF0100F08BF20ED108A20E9F04F1060CB
:1002E00009B44FF0500080F31188BFF34F8FBFF374
:1002F0006F8F05F0EDFF4FF0000080F3118809BC0F
:1003000019680868B0E8F04F1EF0100F08BFB0EC95
:10031000108A80F30988BFF36F8F70473C0000207C
:10032000EFF30580704700000948804709480047FF
:10033000FEE7FEE7FEE7FEE7FEE7FEE7FEE7FEE795
:10034000FEE7FEE704480549054A064B70470000F2
:100350004934000889010008005F00200065002082
:10036000006100200061002053EA020C00F0698067
:100370002DE9F04B4FF00006002B1FBFB3FA83F5B9
:1003800003FA05F424FA05F65E4012BF1643B2FAEA
:1003900082F502FA05F4C5F120051EBF22FA05FC1C
:1003A00044EA0C04203556EA044C4FEA144418BFC2
:1003B000641C4FF000084FF00009904271EB030CF1
:1003C00039D3002919BFB1FA81F701FA07F6B0FA5B
:1003D00080F700FA07F6C7F120071EBF20FA07FCD6
:1003E00046EA0C062037B6FBF4FCA7EB0507103FE6
:1003F00007F01F0BCBF120060CFA0BFB2CFA06F6CC
:1004000044BFB3460026202FA4BF5E464FF0000B2A
:100410005BEA060C08BF4FF0010B19EB0B09ABFBB5
:10042000027C48EB0608C01B06FB02CC0BFB03CC8E
:1004300071EB0C01C1E70B46024641464846BDE858
:10044000F08B13B54FF000004FF00001AFF30080C8
:10045000BDE81C407047032A40F2308010F0030CC6
:1004600000F0158011F8013BBCF1020F624498BF07
:1004700011F801CB00F8013B38BF11F8013BA2F1A4
:10048000040298BF00F801CB38BF00F8013B11F01F
:10049000030300F02580083AC0F0088051F8043BBF
:1004A000083A51F804CBA0E80810F5E7121D5CBF2C
:1004B00051F8043B40F8043BAFF30080D20724BF5F
:1004C00011F8013B11F801CB48BF11F8012B24BFF3
:1004D00000F8013B00F801CB48BF00F8012B704742
:1004E00010B5203AC0F00B80B1E81850203AA0E8CF
:1004F0001850B1E81850A0E81850BFF4F5AF5FEA03
:10050000027C24BFB1E81850A0E8185044BF18C9B5
:1005100018C0BDE810405FEA827C24BF51F8043B5C
:1005200040F8043B08BF7047D20728BF31F8023BB0
:1005300048BF11F8012B28BF20F8023B48BF00F844
:10054000012B70474FF0000200B5134694469646C3
:10055000203922BFA0E80C50A0E80C50B1F12001D6
:10056000BFF4F7AF090728BFA0E80C5048BF0CC084
:100570005DF804EB890028BF40F8042B08BF7047E2
:1005800048BF20F8022B11F0804F18BF00F8012B54
:100590007047704770477047004870479C5E002066
:1005A0007546FFF7F9FFAE4605006946534620F051
:1005B0000700854618B020B5FFF7C4FEBDE820400F
:1005C0004FF000064FF000074FF000084FF0000B0F
:1005D00021F00701AC46ACE8C009ACE8C009ACE8C2
:1005E000C009ACE8C0098D46704710B50446AFF3AA
:1005F00000802046BDE81040FFF72FBEFEE7000058
:10060000014800F06ABA00008C040020014800F0A4
:1006100064BA00008C040020014800F05EBA0000BB
:10062000B4040020014800F058BA0000B4040020CF
:100630001CB507A4D4E90034CDE900340A708DF864
:10064000002049886A4641F0010100F045F81CBDD0
:1006500000555555555555551CB505A3D3E90023EF
:10066000CDE9002349886A4600F036F81CBD000039
:1006700055555555555555551CB5B1F90420134BD5
:100680009A4202DB5B429A4200DD8B80B1F9042082
:10069000002A00DA52420EA38A80D3E90023CDE972
:1006A00000238A88120A8DF800200A798DF801202B
:1006B0000A89120A8DF802200A7A8DF803204988E7
:1006C0006A4641F0040100F007F81CBD78ECFFFF1A
:1006D000000000005555555570B588B015460C46BC
:1006E0000646182207496846FFF7FAFE00200690E2
:1006F00006AB2A4669460094304600F0FFF808B081
:1007000070BD0000186C000804284FF0000070470E
:100710000020704710B500220449054803F074FB1F
:100720000449034803F062FB002010BD984F0020ED
:10073000BC4200209847002070B504460D46214673
:10074000054803F053FB044803F020FB29462046EC
:1007500005F013F9002070BDBC4200200020704756
:1007600030B58BB000210122CDE906120E23009195
:100770000191029109930391084D0468AC4201D1A3
:1007800005910491064C0168A14201D1CDE90423F1
:100790006946089200F01AF90BB030BD00640040C1
:1007A00000680040014800F045BC0000240500201E
:1007B00001681823CAB2103AB2FBF3F2054B6FF38B
:1007C0000901032A9B5CC36500D9091D81650846A0
:1007D000704700004C6F000810B5014600208B697F
:1007E0008A6A4FF0C07453B1B3F5005F15D072B18F
:1007F000012A0CD0022A0AD0032A09D104E01AB136
:10080000012A06D0022A03D1C96AC90100D50120F4
:1008100010BDC96AA142FAD010BD002AF7D0012A42
:10082000F2D0022AF3D0032AF3D010BD30B5046809
:10083000256825F480252560046863608368402B63
:10084000036803D099600068C26030BD9A60006898
:10085000C16030BD704705F0F1F8012005F07EFC65
:10086000F9E772B6FEE7704710B500210160FFF7A7
:10087000FAFF10BD10B558B1084C491E0BD310F843
:10088000013B5340DBB234F8133083EA1222F4E721
:100890004FF6FF7010BD104610BD0000306D00080F
:1008A00070B50B480168001D0568001D006808440C
:1008B00000280CD0074C0822A11C02F011FA04F108
:1008C00012012846BDE87040042202F009BA70BD4A
:1008D000107AFF1FD800002090F82020012A07D0AE
:1008E000022A05D0416A41F480214162012070470B
:1008F000006842690A43426100207047F0B590F8F1
:1009000020500468A468012D05D0022D03D0416A4F
:1009100041F4802157E014F0406F01D1E5004FD53C
:10092000C4F301640125A5401D608D684FF4C073B8
:100930009DB1CE6835434E6845EAC605066803EBAF
:100940000417F5514FF4C275076805EB04150E69DD
:100950007E51097D012905D009E00E88CD6845EA60
:100960004655EBE701684E5946F480764E511179B1
:10097000D579567941EA056195792D0445EA062530
:1009800029434FF4C676056806EB0416A951117881
:10099000D57841EA0561957852782D0445EA02221E
:1009A00011434FF4C475026805EB041551510068FA
:1009B00003EB0411425842F0010242500020F0BD06
:1009C000416A41F4001141620120F0BD10B590F878
:1009D0002020012A07D0022A05D0416A41F4802153
:1009E0004162012010BD3B48D0F8002242F00102D4
:1009F000C0F80022D0F8002222F47C52C0F8002275
:100A0000D0F800224B6A42EA0322C0F800220A7D95
:100A100002F01F0301229A40D0F81C329343C0F821
:100A20001C32CB69B3B9D0F80C329343C0F80C3206
:100A30008C894B6864F31F434C6900EBC404C4F811
:100A400040320C890B6864F31F434C6900EBC4040B
:100A5000C4F84432CB69012B16D1D0F80C321343C1
:100A6000C0F80C320C884B6864F31F434C6900EBF0
:100A7000C404C4F840320C89CB6864F31F434C694A
:100A800000EBC404C4F844328B69002BD0F8043264
:100A90000ED01343C0F804320B69002BD0F8143287
:100AA00008D01343C0F81432096A012904D008E0C1
:100AB0009343EFE79343F5E7D0F81C121143C0F8D6
:100AC0001C12D0F8001221F00101C0F80012002021
:100AD00010BD00000064004070472DE9F05F05463E
:100AE000006800244669D0F804908768D0F80CB0FC
:100AF000D0F810A0D0F81880F10748D0F90714D02A
:100B000001218160B80703D5284600F032FA0CE0D5
:100B1000780702D54FF4006407E0380702D54FF498
:100B2000805402E0284600F023FAF80516D529681B
:100B30004FF480708860B80503D5284600F01BFA92
:100B40000CE0780502D544F4005407E0380502D5DE
:100B500044F4804402E0284600F00CFAF80316D56D
:100B600029684FF480308860B80303D5284600F028
:100B700004FA0CE0780302D544F4004407E038039B
:100B800002D544F4803402E0284600F0F5F930073D
:100B900007D55FEACB6004D52968102044F40074BF
:100BA000C86070074FF0080707D55FEA0B7004D5DF
:100BB0002868C760284600F0A9F9B00706D528685C
:100BC000C068800702D0284600F0A1F9700607D55A
:100BD0005FEACA6004D52968102044F48064086183
:100BE000B00607D55FEA0A7004D528680761284671
:100BF00000F08EF9F00606D528680069800702D05B
:100C0000284600F086F9B00308D55FEAC96005D52B
:100C1000296810204860284600F07CF9F00307D5C9
:100C20005FEA097004D528684760284600F0A6F9F5
:100C3000300446D55FEA497040D5F00504D55FEA37
:100C4000C87001D044F00104B00504D55FEA887093
:100C500001D544F00204700504D55FEA487001D55F
:100C600044F00404300529D518F0700F26D008F0A0
:100C70007000402815D006DC102809D020280AD0A2
:100C8000302816D10AE050280ED0602811D10EE08D
:100C900044F008040DE044F010040AE044F020049D
:100CA00007E044F0400404E044F0800401E044F430
:100CB00080742868816921F07001816129680420AD
:100CC0004860002C05D0686A204368622846FFF718
:100CD00003FFBDE8F09F70B5040003D094F8200036
:100CE00010B104E0012070BD204600F081F82068BA
:100CF000016841F00101016000F01EFC0546052677
:100D000004E000F019FC401B0A2811D82068406854
:100D1000C007F6D02068016821F00201016000F0F0
:100D20000BFC05460BE000F007FC401B0A2806D927
:100D3000606A40F40030606284F82060D2E7206886
:100D400040688007EFD4207E0128206801683DD0EC
:100D500021F080010160607E01282068016838D0A0
:100D600021F040010160A07E01282068016833D095
:100D700021F020010160E07E0128206801682ED06A
:100D800041F010010160207F01282068016829D00E
:100D900021F008010160607F01282068016824D0EB
:100DA00021F004010160D4E902010843D4E90412EE
:100DB000114308436168491E08432168C861002047
:100DC0006062012084F82000002070BD41F08001A5
:100DD000C0E741F04001C5E741F02001CAE721F03A
:100DE0001001CFE741F00801D4E741F00401D9E751
:100DF000F0B587B0044614216846FFF7A3FB3E4BCD
:100E00003E48DFF8F0E01968D4F800C03B4A0325FB
:100E10000226092710300024491CF4452AD1196004
:100E2000012907D1016841F000710160006800F0FC
:100E300000700590106840F0080010601068CDE95F
:100E4000005600F00800CDE9047069462C48CDE951
:100E5000024500F073FA00220521132000F00AFC7D
:100E6000132000F0F9FB00220521142000F002FC01
:100E700014203AE0DFF88CE0F44538D1D0F800C017
:100E80004CF0806CC0F800C0D0F800C001290CF014
:100E9000806CCDF814C0196007D1016841F0007171
:100EA0000160006800F000700590106840F00200DA
:100EB0001060106802AB00F0020005906020CDE9E0
:100EC000000683E8B00069460F4800F037FA0022B8
:100ED00005213F2000F0CEFB3F2000F0BDFB0022AB
:100EE0000521412000F0C6FB412000F0B5FB07B012
:100EF000F0BD0000006400402800002030380240AF
:100F0000000C024000680040000402407047704737
:100F1000704770477047000070B5044690F8200095
:100F2000012804D0606A40F40020606218E00220CA
:100F300084F820002068016821F00101016000F0C0
:100F4000FBFA05460EE000BF00F0F6FA401B0A2847
:100F500008D9606A40F400306062052084F82000FF
:100F6000012070BD20684068C007EDD1606270BD8F
:100F700070477047704770477047704770472DE95A
:100F8000F0410446876D00F0D7FA064694F8350024
:100F90000025022806D08020606584F834500120A6
:100FA000BDE8F0812068016821F016010160206829
:100FB000416921F080014161206C08B9A06C20B129
:100FC0002068016821F0080101602068016821F0B3
:100FD000010101600CE000F0AFFA801B052807D981
:100FE00020206065032084F8350084F83450D7E76A
:100FF00020680068C007EED194F85C103F2088405C
:10100000B860012084F8350084F834500020C7E728
:1010100090F83510022903D08021416501207047E6
:10102000052180F835100068016821F00101016098
:10103000002070472DE9F84304464FF00009CDF831
:10104000009063484FF41651A56D0068B0FBF1F7AE
:101050002E6894F85C10082000FA01F131420FD09C
:1010600021680A6852070BD50A6822F004020A6058
:1010700094F85C108840A860606D40F001006065E5
:1010800094F85C104FF0010808FA01F0304208D0E3
:1010900021684969090604D5A860606D40F0020026
:1010A000606594F85C1004208840304208D02168C4
:1010B0000968890704D5A860606D40F00400606588
:1010C00094F85C1010208840304218D021680968DC
:1010D000090714D5A86020680168490304D5006891
:1010E000000308D5A16C07E00168C90503D40168B5
:1010F00021F008010160216C09B12046884794F86D
:101100005C1020208840304231D021680968C9062F
:101110002DD5A86094F8350005282068016806D010
:10112000490347D5006800031DD4616C1CE021F021
:10113000160101602068416921F080014161206C45
:1011400008B9A06C20B12068016821F00801016095
:1011500094F85C103F208840A86084F8358084F8BB
:101160003490216D1FE0E16B09B120468847606D26
:1011700000282BD0606DC00714D0052084F83500FE
:101180002068016821F0010101600098401C009076
:10119000B84203D820680068C007F6D184F83580CB
:1011A00084F83490E16C002910D001B02046BDE8ED
:1011B000F04308470168C905D5D4016821F0100142
:1011C000016084F8358084F83490CCE7BDE8F8837A
:1011D000380000202DE9F041044600F0ADF9064644
:1011E0005CB1022084F83500002584F83450206872
:1011F000016821F0010101600DE00120BDE8F081EE
:1012000000F09AF9801B052805D92020606503208D
:1012100084F83500F2E720680068C007F0D1226842
:10122000116820480140D4E901031843D4E903368A
:101230003343184363691843A3691843E3691843A8
:10124000236A18430843616A042903D1D4E90B13C4
:1012500019430843106020684069666A20F007015E
:1012600030460E43012704280CD1A06A0643E06AE9
:1012700040B12046FFF7B0FA20B14020606584F805
:101280003570BAE7206846612046FFF791FA94F876
:101290005C203F2191408160656584F835700020B5
:1012A000ACE700003F8010F02DE9F0410446866D68
:1012B00090F83400002501280DD0012084F8340076
:1012C00094F835700020012F07D084F834000225EF
:1012D0002846BDE8F0810220FBE7022784F835703C
:1012E00060652046FFF7A2FA94F85C103F20884022
:1012F000B0602068016841F016010160206C20B1E7
:101300002068016841F0080101602068016841F02F
:1013100001010160DCE7000070B5044600F00CF943
:101320000546601C02D004480078044400F004F92B
:10133000401BA042FAD370BD2C0000202DE9F84FCD
:10134000DFF8BCA10022012503264FF00F090AF1A6
:10135000040BAAF1040E00BF0B6805FA02F4234047
:10136000A34270D10F7907F00307012F01D0022F9C
:1013700016D187684FEA420806FA08FC27EA0C07EC
:10138000D1F80CC00CFA08FC4CEA070CC0F808C0F5
:101390004768A7430C79C4F3001494403C4344606D
:1013A0000C79E443A4070AD0C4684FEA420C06FA59
:1013B0000CF7BC438F6807FA0CF72743C7600C791A
:1013C00004F00304022C12D1D40800EB840CDCF8E6
:1013D00020405707FF0E09FA07F824EA0804D1F85D
:1013E000108008FA07F848EA0408CCF8208004685E
:1013F0004FEA420C06FA0CF7BC430F7907F00307DB
:1014000007FA0CF7274307604C6814F4403F70D08C
:101410003C4C276847F480472760246822F0030784
:1014200004F480440094384C07EB040CDCF80848C2
:1014300097074FEA177809FA08F7BC43334FB842C9
:1014400002D1002724E054E0314FB84201D10127F6
:101450001EE0304FB84201D1022719E02E4FB842AA
:1014600001D1032714E02D4FB84201D104270FE02A
:101470002B4FB84201D105270AE02A4FB84201D1CB
:10148000062705E0284FB84201D1072700E00827CA
:1014900007FA08F72743CCF80878DAF800405746EF
:1014A000D1F804C09C435FEACC2C00D51C433C60BF
:1014B000DBF800405F46D1F804C09C435FEA8C2C07
:1014C00000D51C433C60DEF800407746D1F804C0EC
:1014D0009C435FEA8C3C00D51C433C60084F083FAE
:1014E0003C68D1F804C09C435FEACC3C00D51C4367
:1014F0003C60521C102AFFF42FAFBDE8F88F0000AB
:10150000083C0140443802400030014000000240E5
:101510000004024000080240000C0240001002409B
:101520000014024000180240001C02400AB1816110
:1015300070470904FBE7000001488068704700001D
:101540002C000020024881680278114481607047B5
:101550002C0000200B4810B5016841F400710160B7
:10156000016841F480610160016841F480710160AB
:10157000032000F09FF80F2000F006F800F050F86C
:10158000002010BD003C024030B50546204887B021
:101590000024016841F001010160006806A900F023
:1015A0000100009001A800F04BFE0498B0B100F0DB
:1015B0006DFE400017494FF08042B0FBF1F1164834
:1015C000491E026040F2E732C0E90324C0E9011479
:1015D000846101F065F8040003D015E000F056FEC8
:1015E000E8E70D4801F08AF804000DD11C2000F056
:1015F00033F8102D07D2002229461C2000F03AF8BB
:101600000648056000E0012407B0204630BD000018
:101610004038024040420F00840500203000002086
:101620000C4882B0016841F480410160006800F418
:10163000804000900748001F016841F08051016020
:101640000068002200F0805000900F21901E02B030
:1016500000F010B844380240002809DB00F01F02F7
:10166000012191404009800000F1E020C0F8001104
:1016700070470000F0B40E4B1B680C46C3F3022306
:10168000C3F10705042D00D90425191D072901D22E
:10169000002300E0DB1E012606FA05F1491E214069
:1016A00099409E40761E16403143F0BC04F0E0B9EC
:1016B0000CED00E0064900F0070208684FF6FF0352
:1016C000184040EA0220034A1043086070470000B7
:1016D0000CED00E00000FA05704700684162002050
:1016E0007047F0B50368586A39B19C6A4FF4827646
:1016F00000EB144400204D1E0AE040EA02409862CC
:101700000FE006EB8007DF59401C04EB1744C0B222
:10171000A842F6D344EA02404FF4807202EB810102
:1017200058500020F0BDD0F8E00402F05FBF01EB9C
:10173000C10200EB8202D0F8E004126A02F080BE1F
:1017400001EBC10200EB8202D0F8E004D2F8602283
:1017500002F0E4BED0F8E00402F04ABF0A0601F04D
:101760000F0101EBC10100EB810101D5143101E052
:1017700001F51571006803F099BE70B504460B06BB
:1017800001F00F0000EBC00104EB81014FF00102FA
:101790004FF0000502D54A75143103E081F8555227
:1017A00001F51571087094F89404012808D084F8A4
:1017B0009424206803F098FB84F89454002070BDB2
:1017C000022070BD70B5044601F00F0022799042EE
:1017D00001D9012070BD0B0601F00F0101EBC10121
:1017E00004EB81014FF001024FF0000502D54A756C
:1017F000143103E081F8555201F515718D700870B0
:1018000094F89404012808D084F89424206803F004
:10181000DDFC84F89454002070BD022070BD01F0FE
:101820000F0101EBC10100EB8100D0F868027047A5
:101830002DE9F04104460F0601F00F0000EBC00156
:1018400004EB81014FF001064FF0000502D54E7503
:10185000143103E081F8555201F5157108708A6062
:101860000B714A7802B14883022B00D14D7194F874
:101870009404012809D084F89464206803F086FA5F
:10188000284684F89454BDE8F0810220FBE710B5A7
:1018900001F00F0404EBC40100EB8101C1E99823BE
:1018A0000023C1F8683281F8553281F854428379B7
:1018B00001F51571012B00D1CA618279006803F02E
:1018C000DDFC002010BD70B504460D4601F00F0090
:1018D0002179884201D9012070BD29064FF0000608
:1018E0004FF0010206D500EBC00104EB81014A75FF
:1018F000143107E005EBC50104EB810181F8556265
:1019000001F515718A70087094F89404012807D0C5
:1019100084F89424206803F085FC280702D007E0AF
:10192000022070BDA17904F29C42206803F022FCE1
:1019300084F89464002070BD10B501F00F0404EB2E
:10194000C40100EB8101C1E9082300238B6201235C
:101950004B7501F8144F8379012B00D1CA6182794C
:10196000006803F08BFC002010BD00002DE9FC5F37
:1019700005680446284603F035FE00287DD120681E
:1019800003F05CFE002878D0D5F80808C0F30D20DD
:10199000C4F8D404206803F051FE800704D5206801
:1019A000416901F002014161206803F047FEC10670
:1019B00004F29C40009034D52068816921F0100128
:1019C00081612F6A07F00F0000EBC00004EB800676
:1019D000C7F3434006F51576022802D0062811D039
:1019E0001AE047F6F070074216D0C7F30A121746FE
:1019F0002846F16803F026FEF0683844F06070690C
:101A0000384408E008222846009903F01BFE70695C
:101A1000C7F30A11084470612068816941F0100120
:101A20008161206803F00AFE00034FF0080B4FF0BD
:101A3000000A4FF001097CD50026206803F0DDFD87
:101A4000074674E0F80770D0F1B2206803F0EEFDAD
:101A50008046C00707D005EB4611C1F8089B314608
:101A6000204601F067FB5FEA087024D505EB4611BC
:101A7000C1F808BB2068016C00E023E200EB4610CF
:101A80000191D0F8082BFB4B994205D9110403D5DD
:101A90004FF40041C0F8081B204600F0F7FAF54962
:101AA0000198884207D9A079012804D12068012132
:101AB000009A03F05FFB5FEAC86004D505EB4611AE
:101AC0001020C1F8080B5FEA88701DD56869000610
:101AD00005D5D5F8040840F48061C5F8041806EB74
:101AE000C60004EB800090F8571200F5157001292C
:101AF00005D180F803A0F1B2204600F0E9F905EB2A
:101B000046110220C1F8080B5FEA886004D505EB96
:101B100046102021C0F8081B5FEA884005D505EB78
:101B200046104FF40051C0F8081B7F08761C002FA8
:101B300088D1206803F082FD40036ED5206803F051
:101B400055FD0746002666E0F80762D0F1B220682E
:101B500003F05AFD8046C00723D006F00F01D5F8E8
:101B6000342809FA01F18A43C5F8342805EB4611F7
:101B7000C1F80899A07901280FD106EBC60004EB43
:101B80008000D0E907211144016236B9606A20B9AA
:101B900020680121009A03F0EDFAF1B22046FFF728
:101BA000C6FD5FEA087003D505EB4611C1F808B918
:101BB0005FEAC86004D505EB46111020C1F808099A
:101BC0005FEA486004D505EB46104021C0F80819CB
:101BD0005FEA887016D53146284603F0D8FC06EB3C
:101BE000C60004EB8000C17D1430012905D180F8C6
:101BF00003A0F1B2204600F067F905EB4611022080
:101C0000C1F808095FEA086003D53146204601F0B3
:101C1000F7FA7F08761C002F96D1206803F00EFD9E
:101C2000002811DAD5F8040820F00101C5F80418DD
:101C300094F8CC0401282BD0204600F00CFA206840
:101C4000416901F000414161206803F0F7FC0005A3
:101C50000BD5D5F80808C00702D0204600F03EFAA0
:101C60002068416901F400614161206803F0E6FCED
:101C7000C00467D5D5F8040820F00100C5F80408B1
:101C80001021206803F083FC00214FF67F3220E012
:101C900084F8CCA400212046FFF71EFDCFE700BF4B
:101CA00005EB4110C0F80829D0F8003923F40013DF
:101CB000C0F80039C0F8082BD0F8003B23F400131B
:101CC000C0F8003BD0F8003B43F00063C0F8003B95
:101CD000491C20798842E3D8D5F81C0840F001114E
:101CE000C5F81C18E07B002828460DD0D0F88408E1
:101CF00040F00B01C5F88418D5F8440840F00B01FA
:101D00002846C5F844180DE0D0F8140842F22B011B
:101D10000843C5F81408D5F8100840F00B01284610
:101D2000C5F81018D0F8000820F4FE61C5F80018B6
:101D3000A1792068009A03F01DFA2068416901F436
:101D400080514161206803F079FC800415D520683A
:101D500003F05CF8206803F038FCE07100F090FAC2
:101D60000146E279206803F0CBFC204600F05CF9E4
:101D70002068416901F400514161206803F05EFC74
:101D8000000707D5204600F06AF92068416901F094
:101D900008014161206803F051FC000616D5A869CE
:101DA00020F08001A96101260DE000BF06EBC6000E
:101DB00004EB800090F85702012803D1F1B22046CD
:101DC000FFF7CCFC761C2079B042EFD8206803F0F6
:101DD00035FCC0021FD501264F4614E005EB461026
:101DE000D0F8001906EBC60004EB8002107E012833
:101DF00008D1002906DAF0B240F08001D7752046FC
:101E0000FFF7ACFC761C2079B042E7D82068416926
:101E100001F480114161206803F010FC800234D588
:101E200001204A4629E000BF05EB4011D1F8001B14
:101E300000EBC00304EB830393F85862012E1BD11F
:101E4000002919DA94F8D46401F4803106F001060F
:101E5000B14211D183F85722A96941F08003AB61E7
:101E60006969090608D4D5F8040840F40070C5F87B
:101E7000040805E00A30544F401C21798142D3D830
:101E80002068416901F400114161206803F0D6FB2C
:101E9000400007D52046FFF746FC2068416901F065
:101EA00080414161206803F0C9FB40070AD52068E2
:101EB0004568680702D52046FFF74CFC206841685A
:101EC00029434160BDE8FC9FD0F8E00402F0E4BB88
:101ED000D0F8E00402F0F5BBF8B5040005D094F8A2
:101EE00095042668002510B106E00120F8BD84F8AD
:101EF0009454204600F056F8032084F89504B6F177
:101F0000A04F00D1A571206803F02EF9207C8DF838
:101F1000000094E80F0002F087FF0226B8BB002102
:101F2000206803F0AEFB90BB002001270DE000BF4E
:101F300000EBC00104EB81014F750875C8850D7673
:101F4000CD610D62401CC0B24D6221798142EFD853
:101F5000002011E000EBC00104EB810181F8555233
:101F600081F8540281F85852C1F85C52C1F86052AD
:101F7000401CC0B2C1F8645221798142EAD8207C69
:101F80008DF8000094E80F0003F030F810B184F8E9
:101F90009564AAE7657484F89574206803F018F8CE
:101FA0000020F8BD00B587B0002102910391049193
:101FB000059106910068B0F1A04F2BD11648016839
:101FC00041F001010160006800F0010001904FF450
:101FD000C050029002200390032005900A20069032
:101FE00002A90E48FFF7AAF90D48016841F08001E7
:101FF00001600C48016841F480410160006800F410
:1020000080400190002205214320FFF733FB43204D
:10201000FFF722FB07B000BD30380240000002404D
:10202000343802404438024070B504460125E07956
:1020300000280ED0022801D0FEF713FC2946D4F860
:10204000E00402F0AFFBD4F8E004BDE8704002F019
:1020500062BB0025F2E7D0F8E00402F08CBBD0F8B8
:10206000E00402F092BB10B5044690F894040128F5
:102070000AD0012084F894046174206803F02FFBD7
:10208000002084F8940410BD022010BDD0F8E02494
:1020900000F29C41104602F091BB10B50446006866
:1020A00094F89414012909D0012184F89414C1688A
:1020B000490609D5617B012902D005E0022010BD47
:1020C000816B41F480318163206803F03EFA20681F
:1020D00002F070FF002084F8940410BD10B504468F
:1020E000D4F8E00402F0AEFB2068D0F8001E41F006
:1020F0000101C0F8001EE07A002804D002480168FF
:1021000041F00601016010BD10ED00E02DE9F0473F
:102110000E46050065D0DFF81481D8F80000F7B24C
:1021200000F00700B04207D288F80070D8F800002D
:1021300000F00700B04254D128683D4C810712D509
:10214000400703D5206840F4E0502060287800075D
:1021500003D5206840F4604020602068A96820F022
:10216000F000084320602878C0072DD03049686807
:102170000839012812D0022813D0032811D0096889
:10218000890700292DDA216821F00301014321602C
:10219000FFF7D2F9814641F2883A0EE009688903D7
:1021A000EFE709688901ECE7FFF7C6F9A0EB090141
:1021B000514502D90320BDE8F0872068696800F026
:1021C0000C00B0EB810FEFD1D8F80010404601F0C1
:1021D0000701B14207D90770006800F00700B0425C
:1021E00001D00120E7E72878400705D52068E96895
:1021F00020F4E050084320602878000706D52068C6
:10220000296920F4604040EAC100206000F05EF8D7
:102210002168084AC1F30311515CC84006490860AF
:1022200006480068FFF7B0F90020C4E7003C024010
:1022300008380240546F00083800002030000020A9
:102240000F2202600C4A136803F003034360136813
:1022500003F0F0038360136803F4E053C360126873
:102260004FF4E05303EAD20202610448006800F030
:10227000070008607047000008380240003C024038
:1022800001480068704700003800002004480549F4
:1022900000680968044AC1F38221515CC840704754
:1022A0003800002008380240646F000804480549DF
:1022B00000680968044AC1F34231515CC840704764
:1022C0003800002008380240646F0008154810B537
:1022D000006810F00C02144813D01449042A0FD0DF
:1022E000082A0ED10F4C241F2268236802F03F02F7
:1022F0005B0207D52068C0F38810A0FB010106E04F
:10230000084610BD2168C1F38811A1FB000100231C
:10231000FEF72AF82168C1F30141491C4900B0FBCE
:10232000F1F010BD083802400024F40040787D012F
:102330002DE9F84F04006ED02078DFF84C93C007E9
:10234000A9F104054AD009F104000168C1F3810133
:10235000012908D00068C0F3810002280AD1D9F809
:102360000000400206D52868800337D56068002841
:10237000E1D033E06068B0F5803F10D0B0F5A02F19
:10238000286810D020F480302860286820F480204D
:1023900028606068A8B1FFF7CFF806460DE028680E
:1023A00040F48030F4E740F480202860F7E700BF75
:1023B000FFF7C2F8801B642873D828688003F7D51C
:1023C0000CE0FFF7B9F8064605E000BFFFF7B4F8E8
:1023D000801B6428F0D828688003F7D42078DFF8C1
:1023E000AC8280074FF0000A3ED5A748001D016867
:1023F00011F00C0F08D00068C0F3810002280BD147
:10240000D9F80000400207D42868800716D5E06894
:10241000012800D112E033E1E068B8B10120C8F82A
:102420000000FFF789F8064605E000BFFFF784F8D3
:10243000801B0228C0D828688007F7D52868216942
:1024400020F0F80040EAC10028600DE0C8F800A0C4
:10245000FFF772F8064604E0FFF76EF8801B0228CB
:102460001FD828688007F7D42078000722D5864F28
:1024700087486169703771B101210160FFF75CF82D
:10248000064604E0FFF758F8801B022809D8386890
:102490008007F7D50EE0C0F800A0FFF74DF806461C
:1024A00005E082E0FFF748F8801B02287DD83868F5
:1024B0008007F7D42078400768D5DFF8CCB1002733
:1024C0000BF13C0BDBF80000C0000BD4DBF8001074
:1024D00041F08051CBF80010DBF80000012700F03C
:1024E000805000906B4E3068C00510D4306840F4C6
:1024F00080703060FFF720F8009005E0FFF71CF8CF
:102500000099401A022850D83068C005F6D55E4EB2
:10251000A0686C3601280FD00528306810D020F054
:1025200001003060306820F004003060A068B8B16D
:10253000FFF702F800900FE0306840F00100F4E788
:1025400040F004003060F7E7FEF7F6FF0099411A0B
:1025500041F28830814266D830688007F4D50EE0B9
:10256000FEF7EAFF009007E0FEF7E6FF0099411A48
:1025700041F28830814256D830688007F4D42FB1B8
:10258000DBF8001021F08051CBF80010A069C8B32F
:102590003D49091D0968C1F3810102294AD0022879
:1025A000504607D0C8F8600000E03CE0FEF7C4FFEA
:1025B00004463BE04746C8F86000FEF7BDFF06460C
:1025C00005E000BFFEF7B8FF801B02282BD8286863
:1025D0008001F7D4D4E907010843A16A2E4A4908CB
:1025E00002EB0141626A41EA8211084394F82C101F
:1025F00040EA0161C9F8001001203866FEF79CFF2F
:10260000044606E03EE000BFFEF796FF001B0228EE
:1026100009D828688001F7D534E000BFFEF78CFFA9
:10262000001B022802D90320BDE8F88F286880012A
:10263000F4D427E00128F7D0D9F80000E26900F4CB
:10264000800191421CD1226A00F03F01914217D1D2
:1026500047F6C071626A0140B1EB821F10D1A26AD5
:102660004FF0FF3300F4403103EB5202B1EB024F65
:1026700006D194F82C1000F07060B0EB016F01D01F
:102680000120D1E70020CFE7043802400000474294
:10269000800E4742007000400000FFFF7047704707
:1026A00010B5040003D094F83D0010B107E00120FC
:1026B00010BD002084F83C00204600F01EF80220E7
:1026C00084F83D00211D206800F0CCFE012084F834
:1026D000460084F83E0084F83F0084F8400084F807
:1026E000410084F8420084F8430084F8440084F8F0
:1026F000450084F83D00002010BD704790F83D1063
:10270000012901D001207047022180F83D100168A5
:10271000CA6842F00102CA6000681149884214D0B8
:10272000B0F1804F11D00F4988420ED00E49884237
:102730000BD00E49884208D00D49884205D00D497A
:10274000884202D00C49884204D1816801F0070117
:10275000062903D0016841F00101016000207047A3
:10276000000001400004004000080040000C004050
:1027700000040140004001400018004070472DE96E
:10278000F04104460068C66805694FF00007A907D4
:1027900013D5B10711D5F91E0161012020772068FA
:1027A00080698007204602D0FFF7E8FF04E000F0D0
:1027B0007EF8204600F07CF82777680716D570076A
:1027C00014D521686FF0040008610220207720688A
:1027D000806910F4407F204602D0FFF7CFFF04E06D
:1027E00000F065F8204600F063F82777280715D534
:1027F000300713D521686FF00800086104202077A6
:102800002068C0698007204602D0FFF7B7FF04E0C8
:1028100000F04DF8204600F04BF82777E80616D573
:10282000F00614D521686FF01000086108202077A9
:102830002068C06910F4407F204602D0FFF79EFF59
:1028400004E000F034F8204600F032F82777E8077B
:1028500008D0F00706D021686FF00100086120461B
:1028600000F027F8280608D5300606D521686FF055
:10287000800008612046FFF711FF680608D5700642
:1028800006D521686FF040000861204600F018F876
:10289000A8060AD5B00608D521686FF020000861A7
:1028A0002046BDE8F041FFF7FABEBDE8F081704771
:1028B00070470068B0F1804F01D1FEF743BE70470A
:1028C0007047704710B504460068406994F841109D
:1028D000C0F3C010212911D180B12068143050E814
:1028E000001F21F0800140E80012002AF5D1A06B02
:1028F00008B1FEF744FB204600F036FF206840692F
:1029000094F84210C0F38010222911D180B12068C0
:10291000143050E8001F21F0400140E80012002A66
:10292000F5D1E06B08B1FEF72AFB204600F0F5FE7A
:10293000002010BD70470000F8B501680446086823
:10294000CA684B6910F00F0F4FF0000559D003F023
:10295000010602F49077374365D0C10705D0D10551
:1029600003D5616C41F001016164410705D5D907C8
:1029700003D0616C41F002016164810705D5D9077C
:1029800003D0616C41F004016164010707D502F0D6
:102990002001314303D0616C41F008016164616C36
:1029A00000293AD0800604D5900602D5204600F0D2
:1029B000E9FE20684069616CC0F38010090700D40B
:1029C00060B3204600F0A9FE20684069400621D58A
:1029D0002068143050E8001F21F0400140E8001248
:1029E000002AF5D1E06BA8B16E490165E06BFEF7F6
:1029F0000FFB002811D0E06B016D01B0BDE8F04085
:102A0000084783060FD593060DD52046BDE8F8404C
:102A100000F0B8BE2046FFF78DFFF8BD2046FFF757
:102A200089FF6564F8BD266B2023012E7DD1C60683
:102A30007BD5D60679D508684868009048694FF07C
:102A40000206400641D5E16B086840680004000CAE
:102A5000E8D0A28D8242E5D9E085C869B0F5807FD3
:102A60002DD020680C3050E8001F21F4807140E820
:102A70000012002AF5D12068143050E8001F21F020
:102A8000010140E80012002AF5D12068143050E816
:102A9000001F21F0400140E80012002AF5D184F81F
:102AA0004230256320680C3050E8001F21F01001EF
:102AB00040E80012002AF5D1E06BFEF760FA666389
:102AC000A08DE18D401A81B22AE0A08DE18D401ADF
:102AD00081B2E08D0028A5D00029A3D022680C3255
:102AE00052E8000F20F4907042E80007002FF5D163
:102AF0002068143050E8002F22F0010240E800273F
:102B0000002FF5D184F84230256320680C3050E85E
:102B1000002F22F0100240E80023002BF5D166635D
:102B20002046FFF7CEFEF8BDFFE705062BD51506BC
:102B300029D594F841002128F5D1A068B0F5805F2F
:102B400001D12069B0B1206A411C2162216800785E
:102B50004860E08C401E0004000CE084E3D1206853
:102B6000C16821F08001C1602068C16841F0400166
:102B7000C160D8E7206A0088C0F308004860206A76
:102B8000801C2062E5E74006CDD55006CBD5CA684B
:102B9000204622F04002CA6084F8413000F09EF8DE
:102BA000C1E700001D36000870B5040004D094F899
:102BB0004100002510B106E0012070BD84F84050AE
:102BC000204600F023F8242084F841002068C168E2
:102BD00021F40051C160204600F036FE20680169F2
:102BE00021F4904101612068416921F02A0141618D
:102BF0002068C16841F40051C1606564202084F8F8
:102C0000410084F842006563002070BD70B586B055
:102C1000064614216846FDF795FC23493068884232
:102C20003FD122480025016841F40021016000687D
:102C300000F4002005901D481038016841F004019F
:102C400001600068694600F0040005904FF44060A0
:102C500000900220CDE90105032003900820049094
:102C60001348FEF76BFB144C124820604005C4E982
:102C700001054014C4E903506561A561E561256261
:102C800020466562FEF7A6FA08B1FDF7EAFDF46397
:102C9000002205213420A663FEF7ECFC3420FEF769
:102CA000DBFC06B070BD0000004C00404038024024
:102CB00000080240406002402405002090F84230A5
:102CC000202B01D00220704721B11AB100230363E9
:102CD00000F040BE01207047704770477047FEE724
:102CE000F0B40023002A18D90A24302537269C4640
:102CF000B4EB107F04D905EB107701F8137003E0F3
:102D000006EB107701F81370000101EB430787F819
:102D100001C05B1CDBB29342EAD3F0BC70470000F9
:102D20000F4810B50D4901600621416000214FF4A4
:102D300000328160C0E903121201426101764176DE
:102D40008176C17601774177FDF7C5FF002803D072
:102D5000BDE81040FDF785BD10BD000000640040D7
:102D60008C0400200F4810B50D4901600621416018
:102D700000214FF400328160C0E903121201426168
:102D8000017641768176C17601774177FDF7A3FF21
:102D9000002803D0BDE81040FDF763BD10BD000062
:102DA00000680040B4040020094808B5016841F4F7
:102DB000001101600068002200F40010009005215D
:102DC0000D20FEF757FCBDE808400D20FEF744BC7F
:102DD0003038024000B587B01C2206496846FDF72E
:102DE0007FFB0021684602F09CFE0349086007B0A3
:102DF00000BD0000306F00082400002030B587B00F
:102E000014216846FDF79EFB20480024016841F02C
:102E100080010160016801F080010591016841F0C5
:102E200004010160016801F004010591016841F0AD
:102E300001010160016801F001010591016841F0A3
:102E400008010160016801F008010591016841F085
:102E50000201016000680E4D00F0020005900022A2
:102E600001212846FEF762FB012206212846FEF7D3
:102E70005DFB072000900120CDE90104694628464A
:102E80000394FEF75BFA07B030BD00003038024013
:102E9000000802400C4810B50A4901604FF4E131C6
:102EA0004160002181600C22C160C0E9041281618F
:102EB000C161FFF779FE002803D0BDE81040FDF79F
:102EC000D0BC10BD004C0040DC04002010B5002236
:102ED0000F49104801F08EFA08B1FDF7C2FC0E4907
:102EE0000C4801F0DEFC08B1FDF7BBFC0B490948BA
:102EF00000F070FF08B1FDF7B4FC064801F0A6FD34
:102F0000002803D0BDE81040FDF7ABBC10BD0000A9
:102F1000A4000020BC42002060010020F40000203A
:102F2000FEE700002DED088B84B04FF00009734DD3
:102F3000734C05F1180605F13008724F787AC00716
:102F400015D0FA20FEF7E8F9A06810B101280ED1DB
:102F500004E0012020600022A06004E0C4F800909A
:102F60000122C4F8089001216748FEF7DFFA787A59
:102F7000800715D5FA20FEF7CFF9E06810B10128D7
:102F80000ED104E0012060600022E06004E0C4F89B
:102F900004900122C4F80C9002215B48FEF7C6FAA7
:102FA0002068002870D0594FB7F9040003F02FFCB7
:102FB00082469FED578B009153EC182B03F03EFC9B
:102FC00041EC190BB7F90000029003F020FC834696
:102FD00053EC182B019103F031FCB7F9027041EC6E
:102FE0001A0B384603F013FC9FED4BBB53EC1B2B25
:102FF00003F024FC53EC1A2B03F032FB53EC192B97
:1030000003F02EFB03F0D4FB2881009953EC182B1E
:1030100041EC10AB51EC100B03F010FC41EC190B20
:10302000019953EC182B41EC10BB51EC100B03F041
:1030300005FC41EC1A0B784203F0E9FB53EC1B2B27
:1030400003F0FCFB53EC1A2B03F00AFB53EC192B97
:1030500003F006FB03F0ACFB3081009953EC182B16
:1030600041EC10AB51EC100B03F0E8FB41EC180BFA
:103070000298404203F0CBFB53EC182B03F0F0FA1C
:1030800003F096FBA8F80800606828B1A5F808903E
:10309000A6F80890A8F808902069B0F5FA7F17D133
:1030A000B5F90810FA22002000F0FBF82881B6F9E3
:1030B0000810FA22002000F0F4F830814346B8F9F5
:1030C0000810FA22002000F0ECF81881C4F81090E3
:1030D0000A491348FDF7D0FA084911481831FDF79D
:1030E000CBFA06490E483031FDF7C6FA2069401C7C
:1030F00020610A2003F032F81FE70000B001002031
:1031000008000020F8010020000802401002002002
:10311000000000000000E03F83C0CAA145B6EB3FBD
:10312000B4040020FEE700000148FEF71FBC0000C9
:10313000B85900202DE9F04103680D4604461E6C85
:1031400003EB4511D1F8080B94F806E04FF4004763
:103150004FF0200C04F29C42BEF1010F09D0DFF8C1
:1031600098E0764539D1020432D500BFC1F8087B1A
:103170003FE0224B5FEA007E04D59E4239D900042D
:10318000F4D436E05FEA806E02D5C1F808CB30E0B7
:1031900010F0280F2DD19E4201D90004E6D405EB92
:1031A000C50004EB8000D1F8101BD0F87432C1F3D5
:1031B0001201591AC0F8681200F51570ADB903690B
:1031C0001BB1C2681144C1600FE0012120680AE010
:1031D00080060AD5C1F808CB07E035B9D4F86402F7
:1031E00018B90021184601F0C5FFE9B22046FEF7E4
:1031F000A7FA0020BDE8F0810A31544F0A30544F3D
:103200002DE9F84F0E4601EBC60100EB8104814623
:103210000568D4E909101434884202D90120BDE8B8
:10322000F88F081AA168814200D20846C01C87089E
:1032300005EB46181BE000BFA0EB010AA068504553
:1032400000D282460AF10300870899F80600009030
:103250001FFA8AF3F2B22846E16802F0C5FAE16883
:1032600001EB0A00E060616901EB0A006061D8F8D7
:10327000180980B2B84205D3D4E90401814201D2D1
:103280000028D9D1D4E90401884208D806F00F01FA
:1032900001208840D5F834188143C5F8341800203F
:1032A000BDE7401A00EE100AB8EEC00AB5EEC00A3B
:1032B000F1EE10FA15DD00EE902AF8EEE00AB4EE19
:1032C000E00AF1EE10FA01DD8818704700EE901A5E
:1032D000F8EEE00A30EE800ABDEEC00A10EE100AE9
:1032E0007047504200EE900AF8EEE00AB4EEE00AB1
:1032F000F1EE10FAEAD2881A70470000FFF7E6FDF7
:103300001C4910201C4A488020201C4B5080302033
:10331000588040F6C4108880908098801848FDF747
:103320009BF915491648FDF797F914491448FDF71C
:1033300093F94FF4FA742046FDF7EEFF03220D498E
:103340000F48FDF775F903220B490D48FDF770F999
:1033500003220A490A48FDF76BF92046FDF7DCFF16
:1033600002F084FE00F0EAF802F0A0FE002002F075
:103370001BFFF5E7B0010020C8010020E00100209C
:10338000B404002010B5502080F31188BFF34F8F94
:10339000BFF36F8F03F09CF818B104494FF08050D1
:1033A0000860002080F3118810BD000004ED00E0EB
:1033B00030B593B030216846FDF7C4F814210CA84D
:1033C000FDF7C0F81E480025016841F080510160FA
:1033D000006800F0805011901A48016841F4804163
:1033E00001600068022400F48040119001200090E8
:1033F000000401908001CDE90640192008904FF4A7
:10340000A870CDE9090407200B906846FEF790FFED
:1034100008B172B6FEE70CA90F2081E831004FF425
:10342000A0500F904FF48050109005210CA8FEF78B
:103430006DFE002801D072B6FEE713B030BD00006B
:1034400040380240007000400248016841F47001B9
:103450000160704788ED00E00148FFF790B9000077
:1034600084050020F0B50268294C2A4D2A4E2B4FC6
:103470002B4B4FF0804CA04209D0604507D0A842AA
:1034800005D0B04203D0B84201D0984204D122F016
:10349000700E4A6842EA0E02A0421BD0604519D065
:1034A000A84217D0B04215D0B84213D0984211D0DC
:1034B0001C4DA8420ED01C4DA8420BD01B4DA8425B
:1034C00008D01B4DA84205D01A4DA84202D01A4D73
:1034D000A84203D122F44075CA682A434D6922F0FC
:1034E00080022A4302608A68C2620A688262A0423D
:1034F00001D0984201D1096901630121416101694B
:10350000C90703D0016921F001010161F0BD00008C
:10351000000001400004004000080040000C004092
:1035200000040140004001400044014000480140C7
:1035300000180040001C0040002000407CB5002521
:1035400005242B46802207A10948CDE9004502F059
:1035500067FF0023402207A10848CDE9004502F09B
:103560005FFF7CBD4D6F746F725461736B00000020
:10357000252F000846656564446F670057080008FA
:10358000204810B500680168C90635D5C068C00676
:1035900032D51C48FFF796F915221B491948FFF749
:1035A0008DFB194C20785A2826D11848FDF75CF974
:1035B000002204211648FDF7B9FF1321204602F02E
:1035C00004FAB4F81310884216D115222146114886
:1035D000FCF741FF0F48B0F80310A1F2FF714A4217
:1035E0000D494A8030F8012FA2F2FF720A808088CC
:1035F000A0F2FF7040428880BDE810400148FFF70C
:103600009BB90000DC040020200200201C000020E8
:1036100000080240F80100201002002010B5806B65
:103620000021C185C184FFF785F910BD70B5846B99
:103630002068406994F84110C0F3C010002521298A
:1036400004D118B1E584204600F08EF82068406966
:1036500094F84210C0F38010222904D118B1E585F6
:10366000204600F05AF8606C40F01000606420467C
:10367000FFF760F970BD10B50146806B09680968F5
:103680004FF00002C9052ED4C28501680C3151E803
:10369000003F23F4807341E80034002CF5D1016829
:1036A000143151E8003F23F0010341E80034002CBD
:1036B000F5D10168143151E8003F23F0400341E89F
:1036C0000034002CF5D1202180F84210016B012933
:1036D00009D101680C3151E8003F23F0100341E8A3
:1036E0000034002CF5D14263016B012902D0FFF7B1
:1036F000F3FA10BD818DFFF7E4F810BD10B5806BB3
:1037000001214163016B012902D0FFF7E6FA10BDE8
:10371000818D4908FFF7D5F810BD01680C3151E8DB
:10372000002F22F4907241E80023002BF5D10168AC
:10373000143151E8002F22F0010241E80023002B50
:10374000F5D1016B012909D101680C3151E8002F35
:1037500022F0100241E80023002BF5D1202180F84F
:10376000421000210163704701680C3151E8002FBD
:1037700022F0C00241E80023002BF5D1202180F87F
:103780004110704708B590F84210222901D002205C
:1037900008BD82684FF480539A4201D1016921B17A
:1037A000816A9A421BD04AB10AE00268816A526873
:1037B000C2F308020A80816A891C08E0026972B1BA
:1037C0000268526802F07F020A70816A491C8162B5
:1037D000C18D491E0904090CC18503D01BE0026894
:1037E0005268F1E70168CA6822F02002CA600168E5
:1037F000CA6822F48072CA6001684A6922F0010234
:103800004A61202180F8421000214163026B012AA5
:1038100003D0FFF761FA002008BD016301680C3195
:1038200051E8002F22F0100241E80023002BF5D1CF
:1038300001680A68D20602D50A6849680091818D3C
:10384000FFF73FF8E7E7000070B50446006801693C
:10385000E26821F44051114301612169A068E269E5
:1038600008436169114308432168CA6849F20C633F
:103870009A430243CA6020684169A26921F44071F9
:103880001143416131492068884202D03049884261
:1038900002D1FEF70BFD01E0FEF7F8FCE269002320
:1038A000192164253226B2F5004F626828D0A0FBAA
:1038B0000101930F9200FCF757FD0146B0FBF5F0B4
:1038C0006FF01802504301EB800006EB0010B0FBD4
:1038D000F5F000F0F002B1FBF5F002EB0012B1FBE5
:1038E000F5F06FF01803584301EB800006EB001071
:1038F000B0FBF5F000F00F0021681044886070BD47
:10390000A0FB010192185B41FCF72EFD0146B0FBC4
:10391000F5F00201B1FBF5F06FF01803584301EB2D
:10392000800006EBC000B0FBF5F000F0F80002EB01
:103930004002B1FBF5F0584301EB800006EBC000FC
:10394000B0FBF5F000F00700D6E7000000100140E2
:103950000014014038B58162044682850020134678
:103960006064222284F84220E56B1B4AEA63E56B1F
:103970001A4A2A64E56B1A4AEA64E26B10650A4641
:103980002168E06B091DFDF78FFC20680168406825
:103990000090206948B120680C3050E8001F41F4C5
:1039A000807140E80012002AF5D12068143050E8F8
:1039B000001F41F0010140E80012002AF5D1206803
:1039C000143050E8001F41F0400140E80012002A86
:1039D000F5D1002038BD000077360008FD3600081C
:1039E0002D36000870B5D0F8C822D0F8D43200EBDC
:1039F0008303D3F8C032002B28D001F00F0C0CEB5E
:103A00008C0400EB84050026AC6954B10CEBCC0CA3
:103A100002EB8C02D2F81CC0B4FBFCF20CFB12428D
:103A2000B2B1C3F81462D0F8D42200EB8200D0F80F
:103A3000C402D0F810C0BCF1000F05D00A4603F54F
:103A40000471D3F80802E047002070BD032070BD68
:103A5000AE6100231A4600F002FFF5E770B5044698
:103A6000D4F8D40204EB8000D0F8C052002D12D05C
:103A7000204600F0CDFDC5F80C02D4F8D412D5F8DC
:103A8000040204EB8101D1F8C412CA6805F5037180
:103A90009047002070BD032070BD000070B5044643
:103AA000224D2046297800F0C2FC2878002600F03C
:103AB0000F0000EB800004EB8000868469782046CC
:103AC00000F0B5FC687800F00F0000EB800004EB1C
:103AD0008000A0F86461A978204600F0A8FCA878CE
:103AE00000F00F0000EB800004EB80008684C684A9
:103AF000D4F8D40204EB8000D0F8C01299B1D0F809
:103B0000C40240688047D4F8D40204EB8000D0F8A7
:103B1000C00201F036F9D4F8D40204EB8000C0F8FA
:103B2000C062C4F8BC62002070BD00000C0100201F
:103B300010B5D0F8D41200EB8100D0F8C042002CB0
:103B400010D0D0F8C41259B194F80002FF2807D061
:103B50008B6894F8012221469847FF2084F80002E0
:103B6000002010BD032010BD0A21018000487047CD
:103B70001001002070B5064682210C4800F0BAFB07
:103B800005460121094800F0B5FB0446812107489C
:103B900000F0B0FB0DB11021A971402104B1A1804A
:103BA00000B1818043203080004870BD1C0100209E
:103BB00070B5064682210D4800F09CFB05460121A8
:103BC0000A4800F097FB04468121084800F092FB68
:103BD0000DB11021A9714FF4007104B1A18000B1A1
:103BE000818043203080014870BD00001C0100200E
:103BF00070B5064682210C4800F07CFB0546012189
:103C0000094800F077FB04468121074800F072FB69
:103C10000DB11021A971402104B1A18000B18180B2
:103C200043203080004870BD1C0100202DE9F04782
:103C300004464FF4077001F0A5F805464FF0000860
:103C4000002D63D04FF407712846FCF77BFCD4F8B5
:103C5000D40204EB8000C0F8C052C4F8BC52207CEF
:103C60000127494E4FF01009002858D04023022266
:103C70003178204600F03AFD307800F00F0000EB7C
:103C8000800004EB80008784402302227178204664
:103C900000F02CFD707800F00F0000EB800004EBCA
:103CA0008000A0F86471B07800F00F0000EB800095
:103CB00004EB8000A0F8269008230322B178204668
:103CC00000F014FDB07800F00F0000EB800004EB72
:103CD00080008784C5F80482D4F8D40204EB800005
:103CE000D0F8C40200688047C5F81482C5F818826D
:103CF000D5F80422002A3CD0207CC8B34023717838
:103D0000204600F0FFFC0020BDE8F087D4F8D40284
:103D100004EB8000C0F8C0820220BDE8F0874FF4B9
:103D2000007302223178204600F0E0FC307800F089
:103D30000F0000EB800004EB800087844FF40073D9
:103D400002227178204600F0D1FC707800F00F005C
:103D500000EB800004EB8000A0F86471B07800F004
:103D60000F0000EB800004EB8000A0F82690A3E792
:103D700002E00220BDE8F0874FF40073717820461E
:103D800000F0C0FCBFE700000C01002010B5D0F827
:103D9000D41200EB8101D1F8C01200290CD0027CB2
:103DA000DFF82CC052B1D1F8042240239CF8011056
:103DB00000F0A8FC002010BD032010BDD1F80422A3
:103DC0004FF400739CF8011000F09CFCF2E7000037
:103DD0000C010020002907D0D0F8D42200EB82008B
:103DE000C0F8C4120020704703207047D0F8D422D6
:103DF00000EB8200D0F8C002002803D0C0F8041203
:103E00000020704703207047D0F8D43200EB8300C5
:103E1000D0F8C002002805D0C0F80812C0F810225F
:103E20000020704703207047F0B583B006460C466B
:103E3000D6F8D40206EB8000D0F8C07200210291BF
:103E400001910025002F0DD0217811F060023BD0A8
:103E5000202A0AD02146304600F09FF8032503B0FF
:103E60002846F0BD03B00320F0BDE28812B311F084
:103E7000800F10D0D0F8C40294F801C0394683688E
:103E800060469847E288072A00D90722394630461B
:103E900000F0A9F8E3E7607887F80002E08840289E
:103EA00000D34020C2B287F801223946304600F0E4
:103EB00080F8D4E7D0F8C40294F801C000228368E7
:103EC000214660469847CAE7607858B10128C6D0B5
:103ED0000A2817D00B2825D02146304600F05DF87F
:103EE0000325BCE796F89C02032805D021463046FE
:103EF00000F053F80325B2E7022201A9304600F092
:103F000072F8ACE796F89C02032805D021463046AB
:103F100000F043F80325A2E7012202A9304600F091
:103F200062F89CE796F89C02032898D02146304618
:103F300000F033F8032592E710B50024D0F8B8223A
:103F40005268904700B10324204610BD90F89C228F
:103F5000012A05D0022A03D0032A01D000F01DB89F
:103F60004988012904D10021C0F8A41200F048B802
:103F70007047002070470020704710B513460A466E
:103F8000002100F0BFFB002010BD10B513460A460B
:103F9000002100F064FC002010BD10B50446802113
:103FA000204600F03DFC2046BDE81040002100F016
:103FB00037BC10B50323C0F89432C0F85821C0F8BC
:103FC0005C2113460A46002100F09CFB002010BD36
:103FD00010B50521C0F8941200231A46194600F0C6
:103FE00091FB002010BD10B50223C0F8943282610D
:103FF000C26113460A46002100F031FC002010BDCA
:1040000010B50421C0F8941200231A46194600F096
:1040100026FC002010BD000010B5002806D00A467E
:10402000054906A000F0B2F9034810BD0A4602494E
:1040300002A000F0ABF9F7E7984500204344432085
:10404000436F6E6669670000122008800048704761
:10405000C400002010B5002806D00A46054906A075
:1040600000F094F9034810BD0A46024902A000F08E
:104070008DF9F7E79845002043444320496E746565
:104080007266616365000000042008800048704784
:10409000C000002010B50A46024903A000F076F9DE
:1040A000004810BD9845002053544D6963726F65F8
:1040B0006C656374726F6E696373000010B50028DD
:1040C00006D00A46054906A000F060F9034810BD75
:1040D0000A46024902A000F059F9F7E79845002086
:1040E00053544D3332205669727475616C20436F9E
:1040F0006D506F727400000010B51A200880FCF734
:10410000CFFB014810BD0000D8000020CA88012A5A
:1041100001D0FFF742BF90F89C22012A05D0022A65
:1041200003D0032A08D0FFF738BF002181600122A5
:1041300000F10801FFF757BF0122011DFFF753BF30
:104140002DE9F84304460F46002000900026002584
:104150007888010A082970D2DFE801F0AB040C224C
:10416000ABAB8B9AD4F8B412207C0A6869469047AE
:104170000646A3E0207C4FF0020840B1D4F8B80214
:10418000C16A68468847064686F8018096E0D4F8FA
:10419000B802816A68468847064686F801808DE045
:1041A000C0B206285FD2DFE800F0031221303F4F93
:1041B000D4F8B402426822B1207C69469047064692
:1041C0007CE039462046FFF7E8FE012576E0D4F88A
:1041D000B402826822B1207C6946904706466DE0B1
:1041E00039462046FFF7D9FE012567E0D4F8B4022E
:1041F000C26822B1207C6946904706465EE0394697
:104200002046FFF7CAFE012558E0D4F8B40202693F
:1042100022B1207C6946904706464FE03946204649
:10422000FFF7BBFE012549E0D4F8B40242692AB188
:10423000207C69469047064640E03AE039462046F1
:10424000FFF7ABFE012539E0D4F8B402826922B150
:10425000207C69469047064630E039462046FFF705
:104260009CFE01252AE039462046FFF796FE0125EF
:1042700024E0207C28B139462046FFF78EFE012538
:104280001CE0D4F8B802416B68468847064615E042
:10429000207C28B139462046FFF77FFE01250DE03E
:1042A000D4F8B802016B684688470646072171704A
:1042B00004E039462046FFF770FE0125002D0CD1A1
:1042C000FA8892B1BDF8000048B1824200D9024696
:1042D000009231462046FFF786FEBDE8F883394656
:1042E0002046FFF75AFEBDE8F8832046FFF788FE18
:1042F000BDE8F88378B50E46054600246A8829781B
:1043000028468A4212D900918A420FD9694600F0A4
:104310001BF84178052904D10446A178B14205D0A3
:1043200000246988BDF800209142EFD8204678BD6E
:1043300000210278002A05D0491CC9B2401C02782D
:10434000002AF9D1084670470A8803781A440A807F
:1043500001780844704790F89C22012A05D0022A6F
:1043600003D0032A01D0FFF718BECA88022A01D061
:10437000FFF713BE0121C160D0F8A41209B10321D7
:10438000C160022200F10C01FFF72DBE70B50D4691
:10439000164600281BD004462046FFF7C9FF02211D
:1043A00001EB4000308030782870032068700222D2
:1043B000207800280BD000212078A854641C501CC1
:1043C000C0B22954401CC2B220780028F4D170BD7C
:1043D00001460020002906D0012905D0022905D078
:1043E000032905D003207047032070470120704740
:1043F0000320704700280FD00023C0F8B832C0F85F
:10440000C432C0F8D03209B1C0F8B412012180F82A
:104410009C12027000F000B90320704710B5D0F86C
:10442000C802FDF7CFF9BDE81040FFF7D1BF10B5C6
:10443000D0F8C802FDF7A1F9BDE81040FFF7C8BFEA
:1044400070B504460B469446002B09D043F080011A
:104450002046FFF78EFDFF285ED000284CD05BE0A1
:1044600004F11400D4F89412002502293BD182688B
:10447000C1688A420CD9521A826061462046FFF711
:1044800084FD00231A461946204600F03BF92AE035
:10449000914214D14068884211D3D4F898128842CE
:1044A0000DD2002211462046FFF76FFDC4F8985246
:1044B00000231A461946204600F024F913E094F828
:1044C0009C02032808D1D4F8B802C16821B1C4F80D
:1044D000D452C168204688478021204600F0A0F9C8
:1044E0002046FFF775FD94F8A00220B1204600F0A9
:1044F000F5F984F8A0520FE094F89C1203290BD12F
:10450000D4F8B8124A693AB1C4F8D4024A691946D3
:1045100020469047002800D1002070BD10B5044609
:104520000B4694460022002B09D003F07F01204661
:10453000FFF71FFDFF2857D0002840D054E004F5B6
:10454000AA70D4F8941203294ED1C26881689142AE
:104550000AD98A1A8260C068824200D30246614644
:104560002046FFF70AFD3FE094F8AA0210F01F0072
:1045700006D0012806D002280AD0002070B11AE027
:104580000020FBE794F8AE122046FFF7F4FCF5E7B5
:1045900094F8AE122046FFF7ECFCEFE794F89C127B
:1045A000032908D1D4F8B8120A6922B1C4F8D40298
:1045B0000969204688472046FFF722FD14E094F859
:1045C0009C1203290DD1D4F8B812D1F818C0BCF14F
:1045D000000F06D0C4F8D4028A69194620469047D5
:1045E00002460AB1104610BD002010BD00207047E1
:1045F00010B50024012180F89C12D0F8B822002ABE
:1046000004D052680179904700B10324204610BDC0
:10461000D0F8C802FDF703B910B50178002927D1F9
:104620001449C1F8E004C0F8C8124FF0A040086077
:10463000042008710222CA71002088714A728872AF
:10464000C87208738873C8730846FDF745FC08B143
:10465000FCF707F980210748FDF73FF840220021C9
:104660000448FDF73EF8802201210248FDF739F8A1
:10467000002010BDB859002011F0800F01F07F011B
:10468000D0F8C80201EBC10100EB810001D0807DB0
:10469000704790F85602704710B5D0F8D42200EB5E
:1046A0008202D2F8B822002A04D090F89C32032B60
:1046B00002D004E0032010BD126A02B1904700202E
:1046C00010BD10B5D0F8D42200EB8202D2F8B82287
:1046D000002A04D090F89C32032B02D004E003207F
:1046E00010BD526A02B19047002010BD10B59C4623
:1046F0001346D0F8C8026246FDF79AF8BDE81040AC
:10470000FFF766BE10B5D0F8C802FDF7C0F8BDE8E7
:104710001040FFF75DBE2DE9F0410446002501265B
:1047200084F89C620020C4F894026060C4F8A4027B
:1047300084F8A002D4F8B802002806D0426822B15A
:1047400000212046904700B1032500224023114656
:104750002046FFF7CBFFA4F864614027C4F86071DE
:104760004023002280212046FFF7C0FFA684276255
:104770002846BDE8F08190F89C12042903D190F8F6
:104780009D1280F89C120020704710B590F89C1282
:10479000032905D1D0F8B81211B1C96901B1884710
:1047A000002010BD01740020704710B5D0F8C80279
:1047B000FDF759FCBDE81040FFF70ABE10B50446EE
:1047C00004F2AA2000F054F80120C4F89402B4F8CE
:1047D000B002C4F8980294F8AA1211F01F000AD08F
:1047E00001280FD0022814D02046BDE8104001F067
:1047F000800100F015B804F2AA212046BDE810405F
:1048000000F026B904F2AA212046BDE8104000F0CD
:1048100071BA04F2AA212046BDE8104000F053B955
:1048200010B5D0F8C802FDF74EF8BDE81040FFF70C
:10483000CFBD10B5D0F8C802FDF72FFCBDE8104081
:10484000FFF7C6BD90F89C12042903D090F89C1283
:1048500080F89D12042180F89C120020704710B54A
:10486000D0F8C802FDF768F8BDE81040FFF7B0BD0A
:104870000A780270491C0A784270491C0A784B1C5D
:104880001B7842EA03224280891C0A784B1C1B7861
:1048900042EA032282808A78C97842EA0121C180F3
:1048A000704738B5044600200090002914D0C4F8A1
:1048B000B812D4F8D40204EB8000D0F8B802C16A70
:1048C00019B168468847C4F8D002D4F8D802401C11
:1048D000C4F8D802002038BD032038BD002070473E
:1048E00070B504468888002821D1C888F8B948885E
:1048F00080281CD200F07F0594F89C0203280DD07C
:1049000084F89E5229462046FFF74FFF2046FFF7C6
:1049100077FB45B1022084F89C0270BD2046BDE8BB
:104920007040FFF73ABB012084F89C0270BD20461E
:10493000BDE87040FFF731BB03460020D3F8B82232
:10494000002A02D012681846104770472DE9F0413E
:1049500004460F460025334EB9783170012906D937
:1049600039462046FFF719FB0320BDE8F08194F893
:104970009C024FF0020802280DD0032825D03946AA
:104980002046FFF70AFB31782046FFF7D5FA0325CA
:104990002846BDE8F081A1B161602046FFF7CCFF59
:1049A0000546280006D039462046FFF7F6FA84F877
:1049B0009C82EDE72046FFF723FB032084F89C024E
:1049C000E6E72046FFF71CFBE2E7C9B160688842D2
:1049D00024D0C1B22046FFF7AFFA3178616020469B
:1049E000FFF7AAFF0546280014D039462046FFF7F6
:1049F000D4FA21792046FFF79FFA84F89C82C7E712
:104A000084F89C8261602046FFF796FA2046FFF703
:104A1000F7FABDE72046FFF7F3FAB9E72046FFF7BC
:104A2000EFFAB5E7080100204A88012A03D0022ADC
:104A300006D0FFF7B2BA0121C0F8A412FFF7E0BA1E
:104A40008988090A80F8A012FFF7DABAFFF7F1BEE9
:104A500010B500240A7812F0600211D0202A05D087
:104A6000402A03D0FFF799FA204610BDD0F8D4228F
:104A700000EB8202D2F8B822926890470446F3E72E
:104A80004A780A2A1CD2DFE802F012181B151B080C
:104A9000051B0F0BFFF754FBE6E7FFF721FFE3E7EA
:104AA000FFF754FF0446DFE7FFF730FBDCE7FFF7D3
:104AB00052FCD9E7FFF7B8FFD6E7FFF747FAD3E78D
:104AC000FFF76BFAD0E72DE9F04105460E460027C7
:104AD0003479307810F060001ED0202808D04028AB
:104AE00006D031462846FFF758FA3846BDE8F0812F
:104AF00021462846FFF73DFAFF28F6D00028F4D1DA
:104B0000C5F8D402D5F8B8028268002AEDD0314643
:104B1000284690470746E8E77078002872D00128B9
:104B200031D0032804D031462846FFF736FADCE7B7
:104B300095F89C02022806D0032815D03146284655
:104B4000FFF72BFAD1E754B1802C08D02146284634
:104B5000FFF766FE80212846FFF762FEC5E7314673
:104B60002846FFF71AFAC0E7708840B93CB1802C9C
:104B700005D0F08818B921462846FFF751FE28468F
:104B8000FFF73EFAB1E795F89C02022806D0032809
:104B900015D031462846FFF700FAA6E754B1802C1D
:104BA00008D021462846FFF73BFE80212846FFF724
:104BB00037FE9AE731462846FFF7EFF995E7708808
:104BC000002892D114F07F0F03D021462846FFF72A
:104BD00025FC2846FFF714FA21462846FFF7C9F9B5
:104BE000FF2882D0002880D1C5F8D402D5F8B802B9
:104BF0008268002A3FF479AF31462846904707463D
:104C000073E7FFE795F89C024FF00008022806D0F2
:104C1000032827D031462846FFF7BFF965E734B1AE
:104C2000802C04D031462846FFF7B7F95DE714F031
:104C3000800F08D004F07F0000EB800005EB8000BF
:104C400000F1140107E004F07F0000EB800005EBA9
:104C5000800000F5AA71C1F8008002222846FFF703
:104C6000C2F942E714F0800F0CD004F00F0000EB03
:104C7000800005EB8000808C68B931462846FFF73C
:104C80008CF932E704F00F0000EB800005EB8000A8
:104C9000B0F8640158B114F0800F0DD004F07F001B
:104CA00000EB800005EB800000F114060CE03146BB
:104CB0002846FFF772F918E704F07F0000EB800048
:104CC00005EB800000F5AA764CB1802C07D0214678
:104CD0002846FFF7D1FC28B10120306004E0C6F877
:104CE000008001E0C6F80080022231462846FFF726
:104CF0007AF9FAE670B505460E460024307810F0D1
:104D0000600009D0202807D0402805D03146284629
:104D1000FFF743F9204670BD95F89C02012808D0A2
:104D2000022806D0032804D031462846FFF735F97B
:104D3000F0E7B088C1B201291ED8C1B22846FFF7FA
:104D40001AF9FF2800D048B10324F0880028E1D1E7
:104D5000002CDFD12846FFF753F9DBE7D5F8B8126E
:104D60008A683AB1C5F8D4028A6831462846904725
:104D70000446EAE70324E8E731462846FFF70DF941
:104D8000C8E77047004870479857002070B50A7808
:104D9000012302F00F054E78AB401B4CD0F81C5895
:104DA000012E17D045EA0343C0F81C3800EB42102F
:104DB000D0F8002B12040BD4D0F8002B0B89097902
:104DC000C3F30A031A4344EA81410A43C0F8002BA3
:104DD000002070BD9BB21D43C0F81C5800EB421070
:104DE000D0F800391B04F3D4D0F800390D890979C3
:104DF000C5F30A0589042B4341EA82510B4323433F
:104E0000C0F80039E4E7000000800010D0F8001975
:104E10006FF30A01C0F80019D0F8041841F480714A
:104E2000C0F804180020704770B50D460446C2F360
:104E3000072104981E4601291BD0E06840F040007D
:104E4000E060204600F032F8C6F307210029A16B8C
:104E500026D021F48031A163C5F30741012907D190
:104E6000A16841F00601A160A16841F02001A160A4
:104E700070BDA16B21F48031A163E1680A4A114041
:104E8000E160E16821F44011E160C0B2012803D182
:104E9000E06840F48010E060204600F007F8DBE7AF
:104EA00041F48031D7E70000BFFFBDFF08B5002106
:104EB0004FF070620091009B5B1C009393420CD8F2
:104EC0000369002BF7DA0091016941F001010161EA
:104ED0000099491C0091914201D9032008BD016944
:104EE000C907F5D1002008BD30B54C780A780123F8
:104EF00000EB4212012C2CD0D2F8004B002C0BDA24
:104F0000D2F8004B44F00064C2F8004BD2F8004BDA
:104F100044F08044C2F8004BD0F83C580C7804F0C0
:104F20000F0403FA04F425EA0444C0F83C48D0F81E
:104F30001C48097801F00F018B4024EA0341C0F8B6
:104F40001C18D2F8000B19490840C2F8000B0020C9
:104F500030BDD2F80049002C0BDAD2F8004944F0F9
:104F60000064C2F80049D2F8004944F08044C2F815
:104F70000049D0F83C480D7805F00F0503FA05F517
:104F8000ADB2AC43C0F83C48D0F81C48097801F0F9
:104F90000F018B4099B28C43C0F81C48D2F800092D
:104FA00003490840C2F80009D1E700000078F3EF98
:104FB000007833ECD0F8001E21F00301C0F8001E89
:104FC000D0F8041821F00201C0F80418002070473E
:104FD000D0F8001E21F00301C0F8001ED0F804181C
:104FE00041F00201C0F80418002070472DE9F04F8D
:104FF00000250E46044617462846294604EB800243
:10500000C2F80411401C0F28F8D3C3F307405FEA2D
:105010000009204616D0806B20F40012A263A06B1A
:1050200040F40022A263084688462146C4F8000ED8
:10503000C7F30720012817D00846D1F8001841F01F
:10504000030118E0D0F8040840F00202C4F8042874
:10505000A06B40F40012A263A06B20F40022A263B4
:10506000A06B20F48022DDE7300E0846D1F800184E
:1050700001D041F00101C0F80018102100F087FABA
:1050800000B10125204600F066FA00B10125404636
:10509000C4F81088C4F81488C4F81C8800214FF0A4
:1050A000006B4FF0904E4FF67F3AF2B215E000BF22
:1050B00004EB4113D3F800C9BCF1000F06DA11B1BB
:1050C000C3F800E904E0C4F800B901E0C3F800093E
:1050D000C3F81009C3F808A9491C8A42E8D800217E
:1050E00015E000BF04EB4113D3F800CBBCF1000F77
:1050F00006DA11B1C3F800EB04E0C4F800BB01E02C
:10510000C3F8000BC3F8100BC3F808AB491C8A4264
:10511000E8D8D4F8101821F48072C4F81028A061DF
:105120006FF080406061C6F3074018B9A06940F095
:105130001000A061A0690A490843A061C7F30740B5
:1051400018B1A06940F00800A061B9F1010F03D1C6
:10515000A06904490843A0612846BDE8F08F00001B
:1051600000383C8004000040816821F0010181602A
:105170000020704710B5036C134CA34203D9D0F83C
:10518000003B002B1EDB0023C0F8103BD0F8103B87
:1051900043F40023C0F8103BD0F8103B43F0180351
:1051A000C0F8103BD0F8103B43F0C043C0F8103BB0
:1051B000012907D1C0F8142BD0F8001B41F0802141
:1051C000C0F8001B002010BD0A30544F4A780B78FD
:1051D000012A00EB43100BD0D0F8002B22F4001270
:1051E000C0F8002B0979032914D0022912D017E046
:1051F000D0F8002922F40012C0F800290979032907
:1052000001D002290CD1D0F8001941F08051C0F82A
:10521000001905E0D0F8001B41F08051C0F8001BD8
:10522000002070470A784B78D1B200EB4110012B77
:1052300012D0D0F8001B002906DB2AB1D0F8001BE1
:1052400021F08041C0F8001BD0F8001B41F4001190
:10525000C0F8001B00207047D0F80019002906DBB9
:105260002AB1D0F8001921F08041C0F80019D0F817
:10527000001941F40011C0F80019EBE7F8B50C78FB
:105280004F78894DE3B26FF0604600EB4313012F76
:1052900029D0D3F8107B6FF31207C3F8107BD3F833
:1052A000107B2F40C3F8107B002C0C697DD0002CA4
:1052B0007CD08D682C44641EB4FBF5F4A4B2654325
:1052C0000D62D3F8105B06EAC4442543C3F8105BB3
:1052D000D3F8104B0D6AC5F312052C43C3F8104BDD
:1052E000012A7DD0C7E00F6927B3D3F810796FF397
:1052F0001207C3F81079D3F810792F40C3F810794A
:1053000044B30F698D682F447F1EB7FBF5F506EA9D
:10531000C545D3F810693543C3F81059D3F810596F
:105320000E69C6F312063543C3F810590D79012DE5
:105330001CD027E0D3F810692E40C3F81069D3F8C9
:10534000105945F40025C3F81059D3F810596FF3DC
:10535000120515E00E698D68AE4200D90D61D0F8D6
:10536000105945F40026C0F81069D7E7D3F8105952
:1053700025F0C045C3F81059D3F8105945F0005531
:10538000C3F81059012A1AD000EB4413D3F800498E
:1053900044F00444C3F800490C79012C32D00A6966
:1053A0007AB3D0F83428097801E040E052E001F007
:1053B0000F03012199400A43C0F8342871E0CA69FB
:1053C0001AB100EB4413C3F814290979012910D14B
:1053D000D0F80818C90500EB4411D1F8002900E005
:1053E00045E002D442F0005201E042F08052C1F8A0
:1053F000002900EB4410D0F8001941F00441C0F836
:1054000000194EE0D0F80848E405D3F8004902D46A
:1054100044F0005401E044F08054C3F80049009285
:105420000A8A93B20A78C96800F0DEF939E00CB153
:105430008C680C618C680C62D0F8105BC4F31204A9
:105440002543C0F8105BD0F8104B44F40024C0F89A
:10545000104B45E7D3F8104B8D68C5F312052C436C
:10546000C3F8104BD3F8104B44F4002436E7CA6855
:105470000AB1C3F8142B097901290CD1D0F8080816
:10548000C005D3F8000B02D440F0005001E040F01A
:105490008050C3F8000BD3F8000B40F00440C3F871
:1054A000000B0020F8BD0000FFFF07E038B5002228
:1054B000009213464D780A7842F2107400EB4212C3
:1054C000012D19D0D2F8005B002D3CDAD2F8005B38
:1054D00045F00065C2F8005B0A7800EB4212D2F892
:1054E000005B45F08045C2F8005B009A521C0092B8
:1054F000A24221D9012326E0D2F80059002D22DA58
:10550000D2F8005945F00065C2F800590A7800EB5E
:105510004212D2F8005945F08045C2F80059009A6D
:10552000521C0092A242E5D80A7800EB4212D2F84F
:105530000029002AF3DB06E00A7800EB4212D2F8D9
:10554000002B002AD1DB184638BD816841F00101EB
:1055500081600020704708B500214FF07062009113
:10556000009B5B1C009393420AD80369002BF7DA77
:105570000091102101610099491C0091914201D9CB
:10558000032008BD0169C906F5D4002008BD18B57F
:1055900000224FF070630092009C641C00949C42B7
:1055A0000CD80469002CF7DA0092202242EA81111B
:1055B00001610099491C0091994201D9032018BD4D
:1055C00001698906F5D4002018BDD0F8080810F04C
:1055D000060004D0022803D0062801D00F2070470F
:1055E00002207047406900F001007047D0F8181899
:1055F000D0F81C08084080B27047D0F81818D0F8CE
:105600001C080840000C704710B5D0F81038D0F8CE
:10561000342801F00F0400EB4110E24002F00102D7
:10562000D0F8080943EAC212104010BD00EB411146
:10563000D1F8081BD0F81408084070474169806908
:105640000840704730B503460846940802F003014D
:10565000002203F5805303E01D6840F8045B521CF0
:10566000A242F9D300290BD01C680022D50024FAED
:1056700005F3491E521C090400F8013B090CF5D141
:1056800030BD70B50446C068002520F0C040E06021
:10569000012901D079B120E0E06840F00050E060DD
:1056A0000A20FBF739FE60690A3510F0010F10D1AE
:1056B000C82DF5D30DE0E06840F08040E0600A209E
:1056C000FBF72AFE60690A3510F0010F01D0C82DE2
:1056D000F5D3C82D01D0002070BD012070BDD0F8D9
:1056E000002822F4FE62C0F80028D0F800284FF409
:1056F000FE6303EA01110A43C0F800280020704746
:10570000022A3ED1264A274B0A449A4201D20F214F
:1057100038E0254A254B0A449A4201D20E2131E055
:10572000234A244B0A449A4201D20D212AE0224AFC
:10573000224B0A449A4201D20C2123E0204A214BF9
:105740000A449A4201D20B211CE01F4A1F4B0A4413
:105750009A4201D20A2115E01D4A1E4B0A449A4280
:105760000FD31D4A1D4B0A449A4201D2082109E079
:105770001B4A11441B4A914201D2072102E0062133
:1057800000E00921C26822F47052C260C2684FF47E
:10579000705303EA81210A43C26000207047000071
:1057A000405327FF00350C00401E1BFF40420F00F6
:1057B00000DC0BFF804F1200808CF9FE20D6130016
:1057C00060B6E5FE60E3160000D3CEFE40771B0016
:1057D000C05BB3FEC091210000CA91FE2075380065
:1057E000E05459FEE09C410010B5029C74B9DB1CEA
:1057F0009C0800EB0230002300F5805004E000BF5D
:1058000051F8042B02605B1CA342F9D3002010BDA9
:10581000FEE700002DE9F05F11462DED068B182202
:105820004A48FAF718FE494C94ED040B9FED481BCB
:1058300051EC100B53EC112B01F000F8894649ECA8
:10584000190B94ED000B07469FED431B51EC100B19
:1058500053EC112B00F0F2FF8B464BEC180B94ED40
:1058600002AB06469FED3E0B51EC1A0B53EC102B8E
:1058700000F0E4FF8A464AEC100B054653EC182B67
:1058800051EC100B01F0D8F853EC192B00F0E8FEA6
:105890009FED359B53EC192B00F0D0FF00F088FFF3
:1058A00002B218344AEC115B4BEC106B228190462B
:1058B00049EC187B53EC112B51EC100B00F0D0FE8F
:1058C00053EC182B00F0CCFE53EC192B00F0B6FF74
:1058D00000F06EFF06B204F118059FED250B2E8136
:1058E00049EC187B53EC102B51EC1A0B00F0A6FF7F
:1058F00053EC182B00F0B4FE53EC192B00F09EFF74
:1059000000F056FF03B204F1300144F26820474230
:105910000B81804501DD208104E0C8F10002824254
:1059200000DD2781864201DD288103E07242824248
:1059300000DD2F81834204DD0881BDEC068BBDE8CC
:10594000F09F5A428242F8DD0F81F6E7980100206D
:10595000000000000000D03F83C0CAA145B6EB3F65
:10596000000000000000E03F00000000000089404F
:10597000000000000000E0BF70472DE9F0470E4630
:105980000446017830685A291AD1A58894F8019004
:10599000B4F8028005F10801884211D16019C78866
:1059A0002DB12946A01D00F010F8B84207D1EBB286
:1059B000A21D41464846FFF72DFFBDE8F08730782D
:1059C000C1B22046FFF7D8FFF7E7002803D04FF613
:1059D000FF72FAF74FBF70470F4910B500200881DA
:1059E0001831012208811831088104210B48FBF786
:1059F0009DFD09490A48FAF73FFE07490848183152
:105A0000FAF73AFE044906483031FAF735FEBDE8A8
:105A100010400A2000F0A2BBB001002000080240A4
:105A2000B4040020044A1388002B04D14160111DE6
:105A300008600120108070470000002070B50B4DF9
:105A400000242E1F0EE000BF55F824000168491CF9
:105A5000016055F824004268914201D9FFF7BCFF6C
:105A6000641CE4B230888442EED370BD0400002090
:105A70000907090E002804DB00F1E02080F800147B
:105A8000704700F00F0000F1E02080F8141D70470F
:105A900070470000FBF75EFDFDF78AFCFDF7AEF9ED
:105AA000FDF782F9FDF73CF9FDF7F4F9FDF75AF936
:105AB0001148FAF755FE1148FAF752FE0E48FBF767
:105AC0002BFA0E48FBF728FA10210C48FAF704FFCE
:105AD0000B480068C16841F01001C16015220949F6
