:020000040800F2
:10000000486700209D0100083B390008FF340008C4
:1000100007390008F90B0008CF6300080000000052
:100020000000000000000000000000000143000884
:100030003B0E000800000000214100084D4300086D
:10004000B7010008B7010008B7010008B7010008B0
:10005000B7010008B7010008B7010008B7010008A0
:10006000B7010008B7010008B7010008B701000890
:10007000B7010008D90D0008B7010008B701000852
:10008000B7010008B7010008B7010008050C000817
:10009000FD0B0008B7010008B7010008B701000810
:1000A000B7010008B7010008B7010008B701000850
:1000B00029440008B7010008B7010008B70100088B
:1000C000B7010008B7010008B7010008B701000830
:1000D000B7010008B7010008B7010008B701000820
:1000E000B7010008B7010008B7010008B701000810
:1000F000B7010008B7010008B7010008B701000800
:10010000B7010008B7010008B7010008B7010008EF
:10011000A9460008B7010008B7010008B7010008A8
:10012000B7010008B7010008B7010008B7010008CF
:10013000B7010008B7010008B7010008190C000852
:10014000B7010008110C0008B70100083D3900088C
:10015000B7010008B7010008B7010008B70100089F
:10016000B7010008B7010008B7010008B70100088F
:10017000B7010008B7010008B7010008000000003F
:10018000B7010008B7010008DFF80CD000F01AFB37
:1001900000480047D96400084867002006488047A7
:1001A00006480047FEE7FEE7FEE7FEE7FEE7FEE75C
:1001B000FEE7FEE7FEE7FEE71944000889010008B4
:1001C0002DE9F05F0546002092469B46884606468C
:1001D000814640241BE0284641464746224600F01F
:1001E0003AFA53465A46C01A914110D3114618465E
:1001F000224600F021FA2D1A67EB01084F462246ED
:100200000120002100F018FA17EB00094E41201ED2
:10021000A4F10104DFDC484631462A464346BDE8E6
:10022000F09F40EA01039B0703D009E008C9121FB1
:1002300008C0042AFAD203E011F8013B00F8013BA0
:10024000521EF9D27047D2B201E000F8012B491ECC
:10025000FBD270470022F6E710B513460A46044663
:100260001946FFF7F0FF204610BD2DE9FE4F8046EE
:1002700081EA0300C00F0C46009021F0004123F0FA
:100280000045B8EB0200A94105D240462146904600
:100290001C460B46024623F00040104347D0270D72
:1002A000C7F30A00C3F30A510290401A0190402894
:1002B0006BDAC3F3130040F4801B0098924620B120
:1002C0000023D2EB030A63EB0B0B01985946C0F1F4
:1002D0004002504600F0B0F906460D4650465946D9
:1002E000019A00F0C8F910EB08006141002487EA88
:1002F000115284EAE7731A4340D0009A62B3019A1C
:10030000012A4FEA075215DC001B61EB02014FF096
:10031000004202EA0752CDE90042001C41F580117B
:1003200032462B4600F0FFF903B0BDE8F08F40469F
:100330002146F9E7001B61EB0201001C41F5801327
:1003400000185B412018A2F5001747EB030140EAB3
:10035000D570B6196D4111E06D084FEA360645EAD1
:10036000C0754FEA0752001B61EB0201001C41F50A
:10037000801149084FEA30000019514132462B469E
:1003800003B0BDE8F04F00F0BFB900980122400073
:100390000023D0EB020263EBE073009821464FEAA2
:1003A000E074B8EB000061EB0401E9E783F000437F
:1003B0005BE781F0004158E72DE9FE4F81EA030435
:1003C00004F0004421F0004100944FF0000B23F0B2
:1003D000004350EA01045ED052EA03045BD0C3F349
:1003E0000A54C1F30A552C44A4F2F3340194A0FB3F
:1003F0000254C1F3130141F48011C3F3130343F416
:10040000801301FB024400FB034E840A970A44EA6E
:10041000815447EA8357A4FB076802958D0A05FBC0
:1004200007854FEA932C04FB0C542705029D4FEAE5
:10043000065847EA1637B5EB08056EEB070C870E32
:10044000920E47EA811742EA8312A7FB0201B6EB3C
:100450000B0164EB00042B0D43EA0C335E1844EBF4
:100460001C50DA465146E7FB0201C5F313044FEA7C
:100470000B3343EA14534FEA0432019C43EA060368
:10048000A4F10C040294009CCDE900B400F04BF9F7
:1004900003B0BDE8F08F00200146F9E72DE9F04DEB
:1004A00081EA030404F0004B21F0004514464FF0AC
:1004B000000A23F0004150EA050220D054EA01026C
:1004C0001DD0C5F30A570246C5F31303C1F3130049
:1004D000C1F30A5640F4801543F48013A7EB0608D5
:1004E000101BD64608F2FD3873EB050002D308F165
:1004F000010801E092185B41B8F1000F03DA002017
:100500000146BDE8F08D00204FF480110646844678
:100510000EE0171B73EB050705D3121B63EB0503F6
:1005200006434CEA010C49084FEA300092185B413F
:1005300050EA0107EDD152EA030012D082EA04002A
:1005400083EA0501084305D0101BAB4106D2012206
:10055000002306E000224FF0004302E06FF00102AA
:1005600053101AEB06004CEB085110EB0A0041EB5C
:100570000B01BDE8F04D00F0C7B80EB5C10F80EA21
:10058000E0700844CA07002140F233438DE80E00B2
:100590000A460B4600F0C7F803B000BD70B5C1F3C2
:1005A0000A5201F000450024C1F3130140F2FF3369
:1005B00041F480119A4201DA002070BD40F23343C9
:1005C0009A42A2F2334203DC524200F044F800E0C7
:1005D00090402C43F1D0404270BD00F0004230F01A
:1005E00000400AD0C10D01F56071C0F3160042EA67
:1005F0000151C2084007114370470020014670476F
:1006000001F0004330B421F0004150EA010206D06D
:100610000A0DA2F56072C1F31301002A02DC30BC9E
:1006200000207047440F44EAC104C100E01830BC08
:1006300000EBC25000F031B8202A04DB203A00FA67
:1006400002F1002070479140C2F1200320FA03F329
:10065000194390407047202A04DB203A21FA02F027
:100660000021704721FA02F3D040C2F120029140EC
:10067000084319467047202A06DBCB17203A41FA77
:1006800002F043EAE07306E041FA02F3D040C2F11F
:10069000200291400843194670470029A8BF7047BF
:1006A000401C490008BF20F00100704710B4B0FAA8
:1006B00080FC00FA0CF050EA010404BF10BC704743
:1006C00049B1CCF1200421FA04F411FA0CF118BF5D
:1006D000012121430843A3EB0C01CB1D4FEA00612C
:1006E0004FEA102042BF002010BC704700EBC350FF
:1006F00010440029A4BF10BC7047401C490008BF2B
:1007000020F0010010BC704710B5141E73F10004F6
:1007100008DA401C41F1000192185B411A4301D1F3
:1007200020F0010010BD2DE9F04D92469B4611B11D
:10073000B1FA81F202E0B0FA80F220329046FFF77F
:100740007BFF04460F4640EA0A0041EA0B0153468C
:100750005A46084313D0114653EA010019D0C8F194
:1007600040025046FFF777FF05460E465046594671
:100770004246FFF761FF084305D0012004E0204610
:100780003946BDE8F08D0020054346EAE0762C436B
:1007900037430A986305E40AA0EB08000022FD0A2B
:1007A00044EA47540A3002D500200146E9E7010532
:1007B00010196941DDE9084500196941BDE8F04DAE
:1007C000A2E70000064C074D06E0E06840F0010398
:1007D00094E8070098471034AC42F6D3FFF7D8FCF2
:1007E00000880008208800082DE9F04D00231A46F3
:1007F0001B1A8A4103DB00200146BDE8F08DC1F3DE
:100800000A52C1F3130141F480154FF0000BD107D8
:1008100002D100186D41521E0027044640F2FF111C
:10082000384601EB620A3E468046024600204FF4FD
:100830008011FFF710FFC2197141BB1846EB010090
:10084000B4EB030C75EB000C04D3E41A65EB000564
:1008500017460E46241908F101006D4180463428E0
:10086000E3DDF91946EB0600091BA84103D24FF05E
:10087000FF32134601E0002213461BEB070046EB54
:100880000A51BDE8F04DFFF73FBF70B58C1810F866
:10089000015B15F0070301D110F8013B2A1106D1C5
:1008A00010F8012B03E010F8016B01F8016B5B1EDF
:1008B000F9D12B0705D40023521E0DD401F8013BBA
:1008C000FAE710F8013BCB1A921C03E013F8015B26
:1008D00001F8015B521EF9D5A142D8D3002070BDAA
:1008E00082B007F005F8B64DB64CDFF8DCA2DFF8B1
:1008F000DC829FEDB78A9FEDAA9B9FEDABABB74E15
:100900009FEDB7BA9FEDB7CA9FEDB7DA9FEDA8EBA1
:100910009FEDA9FB4FF0010900276FF0310B01900B
:10092000A08828B928460121002201F0C0F9A0883A
:10093000012804D128460121012201F0B8F9BAF8B2
:100940000000012808D1B4F90000C8F80000022016
:1009500006F050FBBAF80000022840F0AC80E06BD3
:10096000012800F08C80002840F0A58040F207307C
:10097000C4F83490CAF81000B4F906002D28C0F26B
:100980009A80A02800F39780206C002840F0938084
:10099000DFF840824FF49670C4F84090C0478E4E06
:1009A000CAF81470B0474FF4FA70C047CAF81490F0
:1009B000B047DAF820004FF47A714843B0FBF1F009
:1009C000C04794ED090A9AED091A31EE000A84ED48
:1009D000090AB0474FF4FA70C047606AFFF7FDFD9F
:1009E00057EC196B32463B46FFF7E6FCAB46054633
:1009F000DAF828008946FFF7C0FD02460B46284674
:100A000049465D46FFF7D8FCFFF7C8FD60654FF427
:100A1000E170C047DAF80C0030B3606AFFF7DDFD23
:100A200053EC1A2BFFF721FCFFF7EAFD60620A2066
:100A300005F00AFE606AFFF7D0FD32463B46FFF73D
:100A4000BBFCFFF7ABFD60650A2005F0FDFD05F579
:100A50008060102101F026F90028DBD10020CAF8BF
:100A60000C00606ACAF824000027DFF860815B4E42
:100A70004FF001096FF0310BE78027641BE0606BDA
:100A800001280CD1CAF810B005F0F0FC94ED090A69
:100A90009AED091A676331EE000A84ED090A40F203
:100AA000EE2005F0D1FD94ED090A20EE080ABDEE16
:100AB000C00A84ED150ABAF80000032809D1A06B1A
:100AC000316848630A2006F095FA05F0CFFCBAF8C1
:100AD000000004285AD16088022808D001283AD0A2
:100AE000002840D141486765A76287613BE0DAEDA5
:100AF00017CA9AED060ADAED16BADAED078A8CEE15
:100B00008B1AB8EEC00A30EE6B0A80EE0D0A21EEA9
:100B10000C1ABDEEC11A11EE100AE030A06202F00C
:100B200070FF53EC1E2BFFF747FCFFF737FDB8EEC5
:100B3000E80A606530EE6B0A30EE6C0A80EE0D0A52
:100B400002F05FFF53EC1F2BFFF736FCFFF726FD8B
:100B50002649886107E02548254981612548606567
:100B60004FF4C870A0620A2006F044FA05F07EFC3B
:100B70009AED020A9AED131A9AED152ADAED010A96
:100B800031EE000A30EE420A00F072F9022006F05F
:100B900031FA01A8022106F04DFAC1E600BF00BFFC
:100BA000000000000000F9407B14AE47E17A943F5A
:100BB000CDCCCCCCCCCC2341713D0AD7A3901541F0
:100BC00000040240200400200400002098040020BB
:100BD0000000F047496600086D640008EC22002020
:100BE000000096430000FA440000B4432C050020A6
:100BF00090EEFEFFC0D40100FEE70000034800F0C5
:100C000025BB00BF014800F021BB00BFC81C00206D
:100C1000034800F01BBB00BF014800F017BB00BF3A
:100C2000F01C002070B588B001AE0C4605461C21B2
:100C30003046FFF70FFB2868654932462346411AC4
:100C4000284618BF012100F086FA0398002818BF33
:100C50000436306808B070BD1CB54FF055348DF8BF
:100C6000002045F25552022BADF80620CDF8024087
:100C700028BF002349886A468DF8013041F00A01F7
:100C800000F044F81CBD0A8812BA120C02824A888D
:100C900012BA120C4282496809BA41617047E0B544
:100CA0000A7049884FF055338DF800206A46CDF818
:100CB0000130019341F0010100F028F88CBD0000E3
:100CC000E0B502F03DFFB8BF13460A4A9342D8BFD1
:100CD000134603EBE33282EAE33245F255538A804E
:100CE00002F0DDFE41F0050101926A4600F00EF8C7
:100CF0008CBD00BF78ECFFFFE0B54FF0553249885E
:100D0000CDE900226A4600F001F88CBD10B588B02C
:100D1000002308248DF81C30CDE90534CDE90333D8
:100D2000CDE9013102A901AB00F059F908B010BDBD
:100D3000002070470020704710B541F6EC14C2F255
:100D4000000441F2E811C2F200012046002203F043
:100D5000F3FF40F6E811C2F20001204603F0DEFF87
:100D6000002010BD70B541F6EC160546C2F2000633
:100D70000C463046294603F0D1FF304603F0A8FF69
:100D80002846214605F02DFB002070BD002070474D
:100D900080B58AB00E2201210D4B0992026807919D
:100DA00000210691CDE90011CDE902119A4205D04A
:100DB00008498A4205D101220E2100E00022CDE936
:100DC000042101210891694600F04AF90AB080BD6A
:100DD0000064004000680040014800F01DBD00BFF5
:100DE000181D002010B501686FF00F02182308A429
:100DF00052FA81F2B2FBF3F3E35C40F2FF34A14319
:100E00005F2A88BF0431C0E91613084610BD00BF31
:100E10000006101600061016B0B504688068256834
:100E20004028084625F480252560636008BF1046E9
:100E3000A06008BF0A46E260B0BD704772B6FEE728
:100E400080B1B0B5094B51B110F8015BD4B292B288
:100E500001396C4033F8144084EA1222F3E7BDE80C
:100E6000B04001E04FF6FF7290B270470086000874
:100E70002DE9F0412DED0C8BB0EE409A20EEA00A4A
:100E8000B0EE60BA09EE090AB1EEC0AAB4EE4AAA01
:100E9000F1EE10FA7ED6DFF818812AEE0ACA98ED34
:100EA000110A98ED121A30EE002A22EE012A21EEE4
:100EB000011A00EE001A31EE4C0A80EE020A02F02E
:100EC000A0FD41EC100B06F0AFFEB0EE408A8BEEB9
:100ED0000A0AF0EE608A02F094FD41EC100B07F074
:100EE0004FF851EC100B9FED2E0B54EC105B2A4683
:100EF0002346FFF7D3FA9FED2C0B56EC107B02F044
:100F000004FEFFF77DFB9FED2BDA0BEE100AB5EE2A
:100F1000409AF1EE10FA3DEE4B0AB8BFB0EE40BA7F
:100F200098ED122A98ED111A3AEE0A0A02EE02CA58
:100F300001EE41CA20EE020A8CEE000A02F061FDC9
:100F400041EC100B06F070FE51EC100B2A462346C4
:100F5000FFF7A4FA02F0D9FDFFF752FB01EE100AE9
:100F60003DEE4B0A51EC180B2A46234630EE419ACF
:100F700088ED169AFFF792FA02F0C7FDFFF740FBE3
:100F800000EE100A30EE490A88ED170ABDEC0C8B12
:100F9000BDE8F08107F0A4F9B0EE40AA7BE700BFFE
:100FA00000000040FB210940000000000080664076
:100FB000040000200000344390F82020013A012A68
:100FC00004D8006800F11402002004E000F12402BB
:100FD00001204FF48021136819431160704770B5E8
:100FE00090F820600468013EA568012E0DD815F028
:100FF000E05F0DD0C5F30160012585401D608B6861
:1010000063B14D6843EAC5030AE002F0EFFD23E057
:1010100000F1240101204FF400121DE00B685B0574
:1010200004EB0010D1E903452343C0F88031C0F838
:101030008451097D012905D100F5C2710B6843F483
:1010400080730B605168C0F88C1111680122C0F8E0
:10105000881100F5C07100200B681A430A6070BD4A
:10106000F0B590F82020013A012A27D82F480268CD
:1010700042F001020260026822F47C5202604C6974
:10108000CD694A6A036843EA02220123026004F040
:101090001F0203FA02F2C3699343C361D343012DD4
:1010A00012D025BBC5681D40C56000EBC405CE68E5
:1010B0008F8847EA06462E640D4611E0416A41F4E6
:1010C000802141620120F0BDC5681543C56000EB79
:1010D000C4050E688F8847EA06462E6401F10C05A8
:1010E0008E682D8800EBC40445EA064565644468B3
:1010F0008F690E69096A44EA0205002F08BF04EAF5
:1011000003054560002E446944EA020508BF04EA6D
:1011100003050129456102D1C1691143C16101681B
:1011200021F0010101600020F0BD00BF0066004019
:101130007047406A704790F82020013A012A84BF26
:10114000002070471022002908BF0C220068805838
:1011500000F00300704770B590F82040013C012C6E
:1011600003D8046821B1256903E002F03FFD55E092
:10117000E568AD0748D004EB0114D4F8B05115F080
:101180000405956004F5D875D4F8B06119BFF60868
:101190005660760D16602D6805F00205D56004F5E1
:1011A000DA75D4F8B46136075ABF2E6806F00F0618
:1011B000082616612E68C6F3072696612D682D0C49
:1011C0005561D4F8B8211A7002F035FC120A5A7031
:1011D00002F031FC120C9A7002F02DFC120EDA7043
:1011E00002F0DDFB1A7102F0DAFB120A5A7102F00A
:1011F000D6FB120C9A7102F0D2FB120EDA71006863
:1012000041B100F1100107E000F1240101204FF489
:10121000001203E000F10C01002020220B681A43A9
:101220000A6070BD90F820100139012984BF0020A8
:1012300070470068816882688068C1F38061C2F38A
:10124000C062C0F300701144084470472DE9F84FA4
:10125000044600684669D0F804908768D0F80CB05E
:10126000D0F810A0D0F81880F10701D1002545E092
:10127000F9070FD001218160B80708D4780720D47E
:10128000380700F1B980204600F07FFA02E02046DE
:1012900000F07CFA0025F80518D520684FF480711D
:1012A0008160B80509D478050ED438054EBF05F520
:1012B0008045204600F06BFA08E0204600F068FA0E
:1012C00004E04FF40065E6E705F50055F80315D591
:1012D00020684FF480318160B80309D478030BD4BF
:1012E00038034EBF05F58035204600F052FA05E080
:1012F000204600F04FFA01E005F50045300748BFF1
:101300005FEACB6050D4700748BF5FEA0B7051D4DE
:10131000B00706D52068C068800702D0204600F0DC
:1013200071F9700648BF5FEACA604AD4B00648BF88
:101330005FEA0A704BD4F00606D520680069800782
:1013400002D0204600F0C6F9B00348BF5FEAC9608A
:1013500044D4F00348BF5FEA097046D4300464D532
:101360005FEA49705ED5C6F30021F005023101EA5B
:101370000801B20558BF08EAD071720508F00400F0
:1013800048BF01440D4330054CD518F0700049D0DA
:1013900010380009052840D8DFE800F00331343761
:1013A0003A3D45F0080538E02068102145F4007505
:1013B000C160A8E720680821C160204600F020F93C
:1013C000A6E72068102145F480650161AEE720683A
:1013D00008210161204600F07BF9ACE7206810216C
:1013E0004160204600F0AAF9B3E720680821416077
:1013F000204600F0D0F9B1E74FF480554BE745F0B7
:1014000010050AE045F0200507E045F0400504E03E
:1014100045F0800501E045F480752068816921F080
:10142000700181612068042141603DB1606A2843F8
:1014300060622046BDE8F84FFFF77ABEBDE8F88F3E
:1014400070B598B1044690F8200010B9204600F01D
:1014500065F802F067FB054620684168C90707D1B7
:1014600000F02AFC401B0B28F6D311E0012070BDD0
:10147000016821F00201016000F01EFC05462068B1
:10148000416889070BD500F017FC401B0B28F6D3E9
:10149000606A052140F40030606201203AE0217E5C
:1014A000026822F08002012908BF80320260617E5A
:1014B000026822F04002012908BF40320260A17E8A
:1014C000026822F02002012908BF20320260E17E7A
:1014D000026822F01002012918BF10320260217F39
:1014E000026822F00802012908BF08320260617F09
:1014F000026822F00402012908BF04320260261D9E
:101500006ECE1A432A43013932431143C161002090
:101510000121606284F8201070BD0000B0B586B073
:10152000044601A81421FEF795FE20683049884240
:101530001CD05D49884258D12F4801684A1C02607E
:101540002C4851B900210091016941F000710161FD
:10155000016901F000710091009900211424132504
:10156000009102F052FA4FF4407020E0002121482F
:10157000214B0091026942F08062026102691C689D
:10158000651C02F080621D600092009A4CB90091C7
:10159000026942F000720261026902F00072009278
:1015A000009A009141243F2502F02FFA602001901B
:1015B0000098092005900320049000200390022049
:1015C00002900E4801A900F097FA28460521002252
:1015D00000F016FC284600F005FC204605210022FC
:1015E00000F00EFC204600F0FDFB06B0B0BD00BFD1
:1015F0000068004030380240B80500200004024076
:10160000704700002DE9F0478AB00446006826497B
:10161000884202D00AB0BDE8F08724482449FFF789
:1016200001FBA0F2012081B2032906D800B221A15A
:1016300051F820001E4902F00FFEEA46214DDFF866
:101640008C80DFF8849003AF0AF104062046002165
:10165000FFF771FD0028DDD020460021FFF76BFD6C
:101660000028F3D0204600213A463346FFF773FDA9
:10167000DDE9061203988DF802102988ADF8000004
:101680008DF8032080B201F50072824201D14046FC
:1016900004E001F580618142D8D1484651460C22D0
:1016A000FEF7BFFDD2E700BF00640040C81C002069
:1016B000900500207C230020A4230020CC230020C0
:1016C000F423002010030020B8240020AC240020C4
:1016D0007047000080B515481549FFF7A3FA6FF46D
:1016E000007111FA80F1032906D8DFE801F0021138
:1016F00014171048203013E080B240F21B118842CA
:1017000018BF80BD0C480A49BDE88040FFF7BBBA4E
:101710000848303004E00748403001E005485030C8
:101720000349BDE8804001F027BF00BFF01C002046
:10173000980500202C050020640000207047B0B5FB
:10174000044690F82000012816D1022084F82000D9
:101750002068016821F00101016000F0ADFA054642
:1017600020684068C0070DD000F0A6FA401B0B2887
:10177000F6D302F003FA03E0606A40F400206062EE
:101780000120B0BD00206062B0BD70477047704757
:10179000704770477047704770B5866D044600F01B
:1017A0008BFA054694F8350002281ED12068216C7A
:1017B000026822F016020260426922F08002426151
:1017C00009B9A16C19B1016821F008010160016833
:1017D00021F0010101600068C0070AD000F06CFA36
:1017E000401B05280FD82068F5E7802060650120A0
:1017F0000EE0E06D3F2101FA00F0B060012084F8B6
:101800003500002004E020206065032084F83500C6
:10181000002184F8341070BDF8B504460020534A06
:1018200008210090D4E91660156837688140394274
:101830000CD0226813685B0708D5136823F00403F3
:101840001360B160616D41F001016165012181406A
:10185000394208D022685269120604D5B160616D20
:1018600041F00201616504218140394208D02268BB
:101870001268920704D5B160616D41F004016165A1
:1018800010218140394217D020680268120713D511
:10189000B16002680168520306D4C90506D4016824
:1018A00021F00801016001E0080301D4216C00E08F
:1018B000A16C09B120468847E16D202000FA01F2B1
:1018C0003A4233D020680368DB062FD5B26094F823
:1018D00035300268052B15D122F0160202604269EC
:1018E00022F080024261226C0AB9A26C1AB102682D
:1018F00022F0080202603F208840B06002F048F801
:10190000216D2FE00168520308D4C9050AD401688B
:1019100021F01001016002F03BF803E0080301D45C
:10192000616C00E0E16B09B120468847606DE0B171
:10193000606DC00715D005214FF4165084F835109E
:10194000B5FBF0F021680A6822F001020A60009AF3
:1019500001328242009202D80A68D207F7D102F01F
:1019600017F8E16C09B120468847F8BD3402002021
:101970002DE9F041044600F09FF9ACB10546022084
:1019800084F835000020216884F83400086820F0CD
:10199000010008600868C00709D000F08DF9401BFD
:1019A000052839D82168F5E70120BDE8F0810868ED
:1019B000271D304AE8CF00EA020ED4E9050CD4E92D
:1019C000072843EA0E032B4333433B431843636A20
:1019D00040EA0C00104340EA0802042B04D1D4E989
:1019E0000B05104340EA05020A60042B486920F009
:1019F000070040EA03022CD1D4E90A63324343B31F
:101A0000BCF5005F0CD0BCF1000F18D1022E19D02C
:101A1000012E0ED0002E14E003252027032024E001
:101A2000032E16D8012540270120DFE806F01E0B03
:101A30001E02A3F1C070B0FA80F0400904E0032E4A
:101A400003D306D1C3F3006018B10125402701205C
:101A50000BE020464A61FFF7C5F9E16D3F22002700
:101A6000012502FA01F181600020676584F8355094
:101A7000BDE8F0813F8010F0B0B501F0D7FF28D06D
:101A80000120A56D84F8340094F8350001281DD19B
:101A9000022084F83500002060652046FFF7BCF97D
:101AA000E26D3F232068216C03FA02F2AA6002680B
:101AB00042F01602026019B1016841F008010160AC
:101AC000016841F0010101600020B0BD002084F8F0
:101AD00034000220B0BD0000B0B5044600F0ECF8C0
:101AE00005467B48611C007818BF044400F0E4F808
:101AF000401BA042FAD3B0BD2DE9FC4F634A082435
:101B00004FF0010B4FF000094FF0000A9042604A7D
:101B100008BF072402444FEAB223072B38BF4FEA1D
:101B2000B22400940023202B08BFBDE8FC8F0F686F
:101B30000BFA0AF6374200F0A2804F6807F003085C
:101B4000A8F10104012C18D8032285684FEA4A0E37
:101B500002FA03F425EA040CCD689D4045EA0C0521
:101B60008560C7F3001505FA0AFC4568B54345EAE8
:101B70000C056FEA040C45600BE003249E469C4074
:101B80006FEA040CB8F1030F03D19E464FF003082F
:101B900020E0C4688D6804EA0C0405FA0EF52C43B5
:101BA000B8F1020FC46015D109F01C040F2202FA2B
:101BB00004F86FF0030202EA5A0707443D6A25EA77
:101BC00008080D6905FA04F444EA08043C624F6809
:101BD00007F00308056808FA0EF405EA0C052C4323
:101BE00017F4403F04604AD000222AF00307019214
:101BF0002A4A146844F48044146014680F2204F4E0
:101C00008044019409F00C0402FA04FC214A019D6D
:101C100096461744224ABD589046009A25EA0C057C
:101C200002FA04F42C4347F80840DEF808404F68F5
:101C3000FA0244EA0605184A58BF24EA0605CEF817
:101C40000850BD029446126842EA060458BF22EAD0
:101C50000604CCF80040BD03DEF8042042EA060486
:101C600058BF22EA0604CEF80440FD03DEF8002047
:101C700042EA060458BF22EA0604CEF8004009F101
:101C8000040902330AF1010A4DE700BF001C0240BB
:101C90000000FEBF003C01400C3C014044380240C3
:101CA00008FCFFFF0069084018BF01207047002AA8
:101CB00008BF09048161704706480068704700BF8B
:101CC0000348044900780A6810440860704700BF60
:101CD000A0000020E860002080B50B48016841F4B6
:101CE00000710160016841F480610160016841F4A4
:101CF00080710160032000F09FF80F2000F006F8CB
:101D000000F050F8002080BD003C024070B586B065
:101D10000446002532480195016841F00101016047
:101D20006946006800F001000190019801A800F0E8
:101D3000E3FE049E00F000FF1749002E4FF08043A1
:101D400040F2E7328D6118BF0126B040C1E902526E
:101D50000D61124EB0FBF6F00138C1E900300846C3
:101D600001F026F9054698B90B4801F031F905460E
:101D700070B91C2000F036F80F2C08D81C20214622
:101D80000022002500F03CF80548046000E0012531
:101D9000284606B070BD00BFA422002040420F00BC
:101DA000A400002082B000200D4901904A6842F44E
:101DB00080424A604A6802F480420192019A00908F
:101DC0000868002240F08050086008680F2100F089
:101DD0008050009000986FF0010002B000F010B841
:101DE00040380240002808D400F01F0101224009B9
:101DF00002FA01F1014A42F82010704700E100E0C8
:101E000070B5134B4FF0FF351B68C3F30223DC1E84
:101E100083F0070338BF002405FA04F6B243042B0D
:101E200028BF042305FA03F39943A1401143BDE8F9
:101E3000704004F009BB00BF05494FF6FF030A6874
:101E40001A4060F30A22034810430860704700BF3D
:101E50000CED00E00000FA057047006841620020C8
:101E60007047B0B50068436AB1B1846A013903EBC9
:101E700014430024E5B2A94207D900EB85050134DB
:101E8000D5F8045103EB1543F4E700EB810043EA76
:101E90000241C0F8041102E043EA024181620020DD
:101EA000B0BD000080B5D0F8E00403F09FFA80BD1B
:101EB00080B501EBC102D0F8E03400EB8200026A89
:101EC000184603F0FDF980BD80B501EBC102D0F8E2
:101ED000E03400EB8200D0F86022184603F04AFAA2
:101EE00080BD000080B5D0F8E00403F081FA80BD29
:101EF00001F00F02090602EBC20200EB820303F1BC
:101F0000140258BF03F515720068114604F0C0B8FA
:101F100010B5044601F00F0001F0BFFE5DBF0022C6
:101F200081F8552201F51571012244BF4A7514311B
:101F3000087094F89404012804BF022010BD01F039
:101F400011FE03F059FE01F069BDB0B5044601F081
:101F50000F002279904201D901251AE001F09DFE7F
:101F60005DBF002281F8552201F51571012244BFA1
:101F70004A7514310870002594F894048D70012876
:101F800001D1022505E001F0EDFD03F07BFF84F8AF
:101F900094542846B0BD01F00F0101EBC10100EBE4
:101FA0008100D0F868027047B0B5044601F00F0018
:101FB00001F073FE5DBF002581F8555201F51571E2
:101FC000012544BF4D7514318A600B7108704A7841
:101FD00002B14883022B04BF0020487194F8940496
:101FE000012804BF0220B0BD01F0BCFD03F05CFD80
:101FF00001F0EFBDB0B501F00F01002501EBC10408
:1020000000EB840404F5187784F8541284F85552D0
:1020100004F515712CC78379012B08BFC4F8702211
:102020001A46006803F062FF0020B0BDB0B5044658
:10203000007901F00F05854284BF0120B0BD08067C
:1020400009D401EBC100002104EB800080F8551297
:1020500000F5157107E005EBC500012104EB8000D8
:10206000417500F1140194F8942401200D708870DA
:10207000012A04BF0220B0BD84F89404206803F054
:1020800019FF2DB9A179206804F29C4203F0CEFE1D
:1020900001F09FBDB0B501F00F0505EBC50100EBE8
:1020A0008104214601F8145F002501F10C072CC7BB
:1020B00001234B708379012B08BF22631A46006805
:1020C00003F014FF0020B0BD2DE9F04F89B0056882
:1020D0008246284604F064F810B109B0BDE8F08FDC
:1020E00001F017FD0028F8D0D5F80808C0F30D203E
:1020F000CAF8D40401F00DFD0146DAF800008907A2
:1021000003D5416901F00201416105F500610491C7
:1021100004F072F80146DAF800000595C9063FD5CB
:10212000816921F0100181612C6AC4F3434004F0FD
:102130000F0506281CD002282BD147F6F07004406A
:1021400027D005EBC50022090AEB80050598D5F8D4
:10215000601204F055F8D5F86002D5F8681200EB6B
:102160001410C5F8600201EB1410C5F8680210E005
:1021700005980AF29C41082204F042F805EBC500DC
:10218000C4F30A120AEB8000D0F868121144C0F8B8
:102190006812DAF80000816941F010018161059D43
:1021A00004F02AF800030DD401F0B3FC049E4003B0
:1021B00000F1E08001F0ADFC002800F1A581DAF823
:1021C0000000B9E1DAF8000003F0F5FF06460AF274
:1021D0009C400AF51D744FF430684FF0000B0890D6
:1021E000002EE1D0F00700F0B8805FFA8BF9DAF842
:1021F0000000494603F0F8FF0746C0075CD005EB36
:10220000080001218160DAF8000008EB0001036C8E
:102210008A689AF80650012D24D115072FD4950607
:1022200047D4059D12F0280F46D1AC46E34DAB4292
:1022300002D9120400F198802268096965466FF39B
:10224000DF41511AB8F5306F44F80C1C2CD1DAF884
:102250006422002A00F08C80DAF860020844CAF890
:10226000600221E0D54D05F58075AB4211D1059D89
:1022700010040AD4900644BF2020886014E0CF48A0
:10228000059D834218D9100416D54FF4004088608C
:1022900012E0059DB8F5306F06D1DAF8641219B96D
:1022A0000021089A03F0C2FD50464946FFF70CFE94
:1022B00002E020208860059D380722D505EB080044
:1022C0000821BE4B8160DAF800100A6C08EB0100AF
:1022D00081689A4212D9090444BF4FF400418160D9
:1022E000504600F045FB9AF80600012809D1DAF8BB
:1022F0000000089A012103F099FD02E0504600F029
:1023000037FBF80642BF05EB080010218160B807D3
:1023100016D56869000604D50499486840F48060C1
:10232000486014F81D0C012806D10020494604F825
:102330001D0C504600F046FA05EB080002218160B2
:10234000B80642BF05EB080020218160B80442BFF7
:1023500005EB08004FF400518160243408F1200897
:1023600076080BF1010B3BE74FF4004065468EE722
:10237000012196E7DAF8000003F016FF07460AF29B
:102380009C400022029005F510600690002F3FF45B
:1023900011AFF80700F0B580DAF80000D1B207926B
:1023A000089103F00FFF0446C00727D0079B0122C6
:1023B000716B03F00F0002FA00F021EA0000706375
:1023C000069800EB431082609AF80600012811D1AC
:1023D00003EBC3000AEB8000D0E90712114401624D
:1023E00043B9DAF8240028B9DAF80000029A01218A
:1023F00003F01CFD08995046FFF75AFD079A200785
:1024000004D50698082100EB42108160E00604D54F
:102410000698102100EB42108160600604D50698F2
:10242000402100EB42108160A00718D528461146D4
:1024300003F087FE079A02EBC2000AEB800010F857
:10244000171F012906D1002101700899504600F09C
:10245000B3F9079A0698022100EB4210816020062A
:102460004FD502EBC2000AEB800BD94659F8241F66
:10247000C84658F8040F814243D30D1A5BF81C1F5D
:10248000DAF80040039757468D4288BF0D4604EBAB
:1024900042110BF1040601F5106A15E0BD79DBF875
:1024A000003031680095151A20469D4288BF1D46B0
:1024B000089AABB203F07AFF306828443060D8F84D
:1024C00000002844C8F80000D9F80020DAF81830D5
:1024D000E91C9BB2B3EB910F28BF8242DED8824247
:1024E000BA46059DDDE90376079A0AD802F00F0087
:1024F000012101FA00F0D4F8341821EA0000C4F8F0
:1025000034087F08013241E7706820F001007060F4
:102510009AF8CC04012807D1002000218AF8CC04C5
:102520005046FFF799FC02E0504600F007FA01F030
:102530008BFB01F00041416103F05EFE000502D417
:10254000DAF800000AE0B068C00702D0504600F098
:102550002FFA01F079FB01F40061416103F04CFEB8
:10256000C00402D4DAF8000056E0D5F804081021BF
:1025700020F00100C5F80408DAF8000003F0E1FDDE
:102580009AF8041005F510604FF67F32C1B18260F1
:102590000139036823F400130360C0F80822D0F85F
:1025A000003223F40013C0F80032D0F8003243F0B8
:1025B0000063C0F800322030E8E700BF0A30544F13
:1025C000F06940F00110F0619AF80F0040B1D6F8C0
:1025D000840040F00B00C6F8840006F1440006E0D9
:1025E000706942F22B010843706106F11000016826
:1025F0000AF29C4241F00B010160306820F4FE6059
:102600003060DAF800009AF8061003F00FFC01F0D1
:102610001BFB01F48051416103F0EEFD0146DAF845
:102620000000890419D503F077FADAF8000003F006
:10263000A8FDDAF800408AF8070000F079FA9AF865
:1026400007200146204603F039FE504600F064F9A9
:1026500001F0FAFA01F40051416103F0CDFD0007E9
:1026600002D4DAF8000007E0504600F06DF901F0FE
:10267000EBFA01F00801416103F0BEFD000606D44B
:1026800001F047FAC00219D4DAF8000038E00599E1
:10269000012440F27B25886920F0800088619AF847
:1026A00004008442ECD21AF80500012803D1E1B2FB
:1026B0005046FFF71DFC24350134F0E705980AF178
:1026C0003B040126012700F512659AF804008742B1
:1026D00011D260782968B1F1FF3F08DC012806D1EA
:1026E00047F080002670C1B25046FFF701FC243449
:1026F00020350137E9E701F0A7FA01F480114161C3
:10270000059C03F079FD800202D4DAF8000030E085
:102710009AF8042004F532610AF51F7001230124A0
:10272000944221D206780D68B5F1FF3F13DC012EEB
:1027300011D1DAF8D46405F4803506F00106B5420B
:1027400009D1059EB56945F08005B56100F8013CE9
:1027500075692D0603D5243020310134E0E7049952
:10276000486840F40070486001F06EFA01F400110E
:10277000416103F041FD400002D4DAF8000007E0B7
:102780005046FFF78FFB01F05FFA01F08041416195
:1027900003F032FD40077FF5A0ACDAF80000446892
:1027A000610704D55046FFF79DFBDAF80000416849
:1027B0002143416091E4000080B5D0F8E00402F0CC
:1027C00073FE80BD80B5D0F8E00402F081FE80BDCC
:1027D000F8B500284FD00446056890F8950428B94C
:1027E000002084F89404204600F052F8032084F876
:1027F0009504B5F1A04F04BF0020A071206803F03C
:102800000FFB94E80F00257C009503F093F978BB4B
:1028100020680021002503F00EFD48BB207901222D
:102820000023002600EBC001890099420AD0E71876
:102830002433FE853E757A75C7E907557D623D767E
:102840000136F2E704F5157100220023984208D002
:102850000B70C1E902220A610A714A702431013306
:10286000F4E794E80F00257C009503F013FA28B1F3
:10287000022084F8950401252846F8BD0025012092
:10288000657484F89504206803F0F8F9F4E7000013
:10289000B0B586B000680024B0F1A04F0594CDE932
:1028A00003440294019401D006B0B0BD43F6300554
:1028B0000094C4F20205286801A940F001002860D4
:1028C000286800F00100009000984FF4C05001907B
:1028D0000220CDE90204032004900A200590002084
:1028E000C4F20200FFF708F96868052140F0800093
:1028F000686000946869002240F4804068616869FB
:1029000000F48040009000984320FFF779FA4320BC
:10291000FFF768FA06B0B0BD10B5C179044621B121
:10292000022918BFFEF78AFA0121D4F8E00402F068
:1029300041FED4F8E00402F0F3FD10BD80B5D0F8FC
:10294000E00402F01FFE80BD80B5D0F8E00402F084
:1029500023FE80BD10B501F010F804BF022010BDA9
:10296000617401F0FFF803F099FC01F057B8000022
:1029700080B5D0F8E02400F29C41104602F026FE1B
:1029800080BD10B500F0F9FF04BF022010BD01F0BA
:102990009EF906D5617B012903D1816B41F4803119
:1029A000816303F0ABFB206803F05CF901F036B8FB
:1029B00010B50446D0F8E00402F044FE2068D0F8D8
:1029C000001E41F00101C0F8001EE07A002808BF97
:1029D00010BD4EF61050CEF20000016841F0060125
:1029E000016010BD2DE9F041002857D03F4B04464F
:1029F0008846D3F8000400F00700884204D283F828
:102A0000008400F0BFFF49D12068810711D541073C
:102A100003D5996841F4E0519960010703D599689D
:102A200041F460419960A1689A6822F0F002114374
:102A30009960C0072BD100F0A5FF04D983F800846A
:102A400000F0A0FF2AD12068410705D5E1689A6807
:102A500022F4E05211439960000706D52069996875
:102A600021F4604141EAC00098601C4600F07EF805
:102A7000A1681F4AC1F30311515CC840384908607E
:102A80001C480068FFF742F90020BDE8F08160684B
:102A9000811E022905D21968890107D40120BDE8E9
:102AA000F08101281DD119688903F7D599681D4661
:102AB00021F0030108439860FFF7FEF8064641F253
:102AC00088376068A9682B4601F00C01B1EB800FD4
:102AD000B1D0FFF7F1F8801BB842F2D90320BDE86E
:102AE000F08119688907D9D5E0E700BF00380240B6
:102AF000DC850008A400002010B50F224FF4E0543C
:102B00000260184A136803F003034360136803F07C
:102B1000F0038360136803F4E053C360136804EAAE
:102B2000D3030361D2F8F80300F00700086010BD7A
:102B30000B480068704700BF09480A490A4A006804
:102B40000968C1F38221515CC840704704480549B7
:102B5000054A00680968C1F34231515CC8407047BA
:102B60003402002008380240EC85000810B5134CF0
:102B7000606800F00C00082804D0042814BF104836
:102B8000104810BD226820680023400202F03F0276
:102B90000C485CBF42F20040C0F2F4002168C1F36F
:102BA0008811A0FB0101FDF70BFB21680222C1F394
:102BB000014102EB4101B0FBF1F010BD04380240CD
:102BC0000024F40040787D012DE9FC4100285FD00D
:102BD00004460078C24EC0070BD0B06800F00C006D
:102BE000042840F08E803068800302D56068002899
:102BF0004ED02078800718D5B06810F00C0F07D0A1
:102C000000F08BFF40F095807068400200F19180E9
:102C10003068800702D5E068012839D12069316821
:102C200021F0F80141EAC00030602078000732D47A
:102C30002078400742D4A7693FB300F06EFF40F010
:102C4000A980012F24D0E169706800F480028A42D3
:102C50001ED1216A00F03F028A4219D147F6C071A5
:102C6000626A0140B1EB821F12D1A16A9F4A02EB56
:102C7000C13100F440326FF30F018A4208D1E16A9A
:102C800000F07060B0EB016F02D10020BDE8FC8164
:102C90000120BDE8FC816169924800296AD00121C8
:102CA000C0F8801EFFF708F80546706F8007BFD494
:102CB000FFF702F8401B0228F7D9C9E0306C10F08A
:102CC00080580AD100200190306C40F08050306470
:102CD000306C00F0805001900198834F3868C00537
:102CE0003AD4386840F480703860FEF7E5FF054656
:102CF0003868C00530D4FEF7DFFF401B0228F7D943
:102D0000A6E000F00AFF03D1706840023FF56BAF08
:102D10006068B0F5803F07D0B0F5A02F40F082800A
:102D2000306840F480203060306840F4803030609B
:102D300082E0E06800284CD06A4801210160FEF77B
:102D4000BBFF0546306880073FF568AFFEF7B4FF6C
:102D5000401B0228F6D97BE0A068012805D0052891
:102D600048D1306F40F004003067306F40F0010010
:102D7000306749E00021C0F8801EFEF79DFF054640
:102D8000706F80077FF554AFFEF796FF401B022857
:102D9000F6D95DE05349002088460866FEF78CFFAF
:102DA0000546022F0AD147463068800153D5FEF709
:102DB00083FF411B03200229F6D967E730688001B1
:102DC0007FF563AFFEF778FF411B03200229F5D999
:102DD0005CE7444800210160FEF76EFF054630685D
:102DE00080077FF522AFFEF767FF411B0320022912
:102DF000F5D94BE7316F002821F001013167316FC0
:102E000021F00401316744D0FEF756FF054641F238
:102E10008837306F80074BD4FEF74EFF401BB84217
:102E2000F7D915E03168002821F48031316031682C
:102E300021F48021316044D0FEF73EFF0546306822
:102E400080033FF5D6AEFEF737FF401B6428F6D966
:102E50000320BDE8FC811C341FCC0843234940EA11
:102E6000821001EBC33140EA04606FF30F010843A5
:102E7000706001203866FEF71FFF0446306880014D
:102E80003FF503AFFEF718FF011B03200229F5D918
:102E9000FCE6FEF711FF054641F28837306F8007E8
:102EA00006D5FEF709FF411B0320B942F6D9EDE62E
:102EB000B8F1000F7FF4BFAE306C20F0805030646A
:102EC000B9E6FEF7F9FE0546306880037FF591AE5E
:102ED000FEF7F2FE411B03206429F5D9D6E600BFB8
:102EE0000038024000004742007000400000FFFF31
:102EF00070477047F0B5024690F83C00012804BFC7
:102F00000220F0BD01F10807D1E900C44B6900209F
:102F1000C969E0CF82F83C00126826F47C5624F49C
:102F2000F04425F4705535432C432CF4E0452C43F4
:102F300027F4C0452C43234323F4804319435164B1
:102F4000F0BD000010B590F83C300222012B2CD0CF
:102F500080F83D2002680B68546824F070041C431C
:102F60009368B2F1804F546014D0324CA24211D019
:102F7000D54CA2420ED0304CA2420BD02F4CA242D4
:102F800008D0D24CA24205D02D4CA24202D02D4CEA
:102F9000A24204D1496823F08003194391600022C2
:102FA000012180F83C2080F83D10104610BD00BF84
:102FB00058B110B500F031FE03D100F0C7FD00F0AC
:102FC00006F800F09AFE00F03CBD01207047704703
:102FD00090F83D1001291CBF01207047022180F8A4
:102FE0003D100068C168B0F1804F41F00101C1603F
:102FF00014D0E049884211D0DF4988420ED0DF4921
:1030000088420BD0DE49884208D0DE49884205D08C
:10301000DD49884202D0DD49884204D1724600F081
:1030200060FD964603D0724600F044FD96460020AF
:10303000704700BF00040040000C00400018004032
:103040000040014000040140704770B5044600682C
:10305000C5680669B10710D5A9070ED56FF0020142
:103060000161012121778069800702D000F0E2FD33
:1030700001E000F099FD00202077700712D5680765
:1030800010D520686FF00401016102212177806969
:1030900010F4407F02D000F0CDFD01E000F084FD8F
:1030A00000202077300711D528070FD520686FF052
:1030B0000801016104212177C069800702D000F076
:1030C000B9FD01E000F070FD00202077F00612D578
:1030D000E80610D520686FF0100101610821217702
:1030E000C06910F4407F02D000F0A4FD01E000F0C0
:1030F0005BFD00202077F00708D0E80706D02068A5
:103100006FF001010161204600F042F9300608D558
:10311000280606D520686FF0800101612046FFF780
:10312000E7FE700608D5680606D520686FF04001F6
:103130000161204600F033F9B00601D5A80600D49D
:1031400070BD20686FF0200101612046BDE870402D
:10315000FFF7CFBE10B586B0044601A81421FDF7D5
:1031600079F820688449884216D0864988422DD152
:1031700000200090D548016841F010010160012154
:10318000006800F0100000904FF4D44001900098C7
:103190000F4800F5806010E000200090CB480168E7
:1031A00041F0080101600221006800F00800009071
:1031B0004FF4805001900098054805910021CDE919
:1031C00003110221029101A9FEF796FC06B010BD81
:1031D000000C024070470000B0B500F052FD04BF83
:1031E0000220B0BD00F01EFD37D8DFE801F0020A72
:1031F00012222068294601F09DF9206850F8181F16
:103200000EE02068294601F0C5F9206850F8181F23
:1032100016E02068294601F0EFF9206850F81C1FDD
:1032200041F008010160016821F004010160296991
:103230000FE02068294601F011FA206850F81C1FA1
:1032400041F400610160016821F480610160296935
:1032500009020268114301600020002184F83C103B
:10326000B0BD58B110B500F0D8FC03D100F06EFC31
:1032700000F006F800F041FD00F0E3BB01207047CC
:1032800082B000683C4988420FD03E49884218D13C
:10329000002001900E48416841F001014160406802
:1032A00000F00100019001980BE000200090084818
:1032B000016841F004010160006800F00400009022
:1032C000009802B0704700BF0008004000000140B5
:1032D000403802407047000010B5044641B108294B
:1032E0000ED0042914BF04F1410004F13F0009E0AD
:1032F00094F83E00012812D1022084F83E0012E02A
:1033000004F140000078012809D10220082908D0E2
:10331000042914BF84F8410084F83F0003E0012031
:1033200010BD84F84000206800F0E9FB00F046FC86
:1033300019D01049884216D00F49884213D00F493E
:10334000884210D00E4988420DD00E49884205D0DF
:103350000D49884207D00D49884207D1416C0B4A7C
:1033600000F0DDFC02D100F0BCFB01D000F0A2FBBC
:10337000002010BD0004004000080040000C004088
:1033800000180040000001400040014000040140DE
:103390000068B0F1804F08BFFEF792BC70477047DD
:1033A000704710B504460068416994F84120212A0D
:1033B0000FD111F080010CD000F01EFC01D020686C
:1033C000FAE7A06B08B1FEF7E7F9204601F040FAF2
:1033D0002068416994F84220222A0DD111F0400161
:1033E0000AD000F0E2FA01D02068FAE7E06B08B1F9
:1033F000FEF7D2F900F086FB002010BD704790B1B7
:1034000010B5044690F8410008B900F067FC00F0E0
:10341000BDFB2068016921F490410161416921F0FF
:103420002A0100F040BC01207047000070B586B052
:10343000044601682448814244D10026B64900F57B
:10344000DE3001960A6942F400220A610A6902F438
:1034500000220192019A00960A6842F004020A6072
:10346000096801F004010091082105910321CDE9CB
:103470000361022102914FF440610191009901A979
:10348000FEF73AFB124D134A4FF480604FF0006193
:10349000C5E90021286105F114001421C5E902667F
:1034A000FCF7D8FE2846FEF763FA08B1FDF7C6FC24
:1034B000342005210022AC63E563FEF7A1FC342033
:1034C000FEF790FC06B070BD004C00403038024062
:1034D000181D00204060024010B590F84230202BAB
:1034E00006D139B132B10024046301F015FA02E0CB
:1034F000022400E00124204610BD70477047FEE71B
:1035000084B0012000210322012503F069FFDFF8C8
:103510004C80134C14A15022C8F82C00114808F11B
:103520002403CDE9005404F073F904F0E1F92C4EC2
:10353000039008F1180503AFB4F90410284600F011
:10354000F3FE30464146FDF7BBFB052003F052FD7C
:103550003846022103F06EFDEEE700BF6400002054
:1035600094040020A96F000876507574746F725F20
:103570007461736B000000004DF808ED00F080FAF4
:103580005DF808EB02DDC188013904E0C18813F55C
:103590007A6F01DA0131C18009B29FED021A00F0A1
:1035A00018BA00BF0000343DB0B50548054D00F025
:1035B000D4F918B1BDE8B040FDF740BCB0BD00BFC4
:1035C000C81C002000640040B0B50548054D00F05F
:1035D000C4F918B1BDE8B040FDF730BCB0BD00BFC4
:1035E000F01C002000680040E0B50020002201909F
:1035F0004948016841F4001101600521006800F4A8
:103600000010019001980D20FEF7FAFB0D20BDE897
:103610008C40FEF7E7BB00BF10B588B001AC06498F
:103620001C222046FCF7FDFD2046002103F019F87E
:103630000249086008B010BDC0850008E8190020E4
:103640002DE9F04786B000273348344D002270261C
:1036500005970097016841F080010160016801F061
:10366000800100F075F941F001010160016801F08D
:10367000010100F06DF941F004010160016801F001
:10368000040100F065F941F002010160016801F0F8
:10369000020100F05DF941F010010160016801F0E4
:1036A000100100F055F941F0080101607021006837
:1036B00000F00800009000982846FEF7F8FA05F59B
:1036C000806A032100224FF003085046FEF7EFFA0C
:1036D0004FF00109CDE90377114C2846CDE9016986
:1036E00001AE3146A04780203146CDE902770190F6
:1036F0002846A04710203146CDE90279019005F512
:103700000060A04750463146CDE90377CDE90189F5
:10371000A04706B0BDE8F087303802400000024004
:10372000F91A0008B0B592B000251C21CDE910555A
:1037300009AC2046FCF78EFD01A82021FCF78AFD8C
:1037400029482A4B44F61F61A722C0E90032C0E98C
:103750000251C0E904558561FFF783FD08B1FDF70B
:103760006DFB214810A9FFF7EDFB08B1FDF766FBE3
:10377000602018210990201DFCF76CFD1A48214695
:103780000022FFF729FD08B1FDF758FB164809A9EB
:103790000422FFF721FD08B1FDF750FB124809A9EB
:1037A0000822FFF719FD08B1FDF748FB0E4809A9EB
:1037B0000C22FFF711FD08B1FDF740FB01AC14210D
:1037C0002046FCF747FD0020214608904FF40050AA
:1037D00006900548FFF78EFB08B1FDF72FFB024866
:1037E000FFF7B8FC12B0B0BD5C2200200000014021
:1037F00010B58AB000241C21CDE9084401A8FCF7CB
:1038000029FD1548154B40F2CF7153228461C0E960
:103810000032C0E902410461FFF723FD08B1FDF762
:103820000DFB0D4808A9FFF78DFB08B1FDF706FB5E
:10383000002000220590CDE902006020019006489A
:1038400001A9FFF7C9FC08B1FDF7F8FA0248FFF734
:1038500081FC0AB010BD00BFEC220020000800402F
:1038600010B50B480B4C00210C224FF4E133C0E99A
:103870000043C0E90211C0E90412C0E90611FFF7D4
:10388000BEFD18B1BDE81040FDF7D8BA10BD00BFAD
:1038900034230020004C004080B541F6EC1040F28B
:1038A000A801C2F20000C2F20001002201F0E0FC17
:1038B000002818BFFDF7C2FA41F6EC1040F238219B
:1038C000C2F20000C2F2000101F0E6FE002818BFBB
:1038D000FDF7B4FA41F6EC1040F2D421C2F2000038
:1038E000C2F2000101F00EFA002818BFFDF7A6FA97
:1038F00041F6EC10C2F2000001F090FF002818BF62
:10390000FDF79CFA80BDFEE7E0B513881BBA1B0CDF
:10391000ADF8003053881BBA1B0CADF80230938809
:10392000D28812BA1BBA120C1B0CADF806206A46DC
:10393000ADF80430FDF7EAF98CBDFEE70148FEF76B
:10394000C3BB00BF781D0020B8EEC00A00F0F2B97A
:1039500000910099009701687047002106244FF4F8
:1039600000124FF40033C0E90054C0E90211C0E96D
:10397000043281618183FDF763BD044690F89404AD
:1039800001287047D3F8000400F007004045704755
:10399000002084F83400012084F835007047026864
:1039A00002EB0112D2F8BC21704750E8050F2168E4
:1039B00020F0400041E80502002A7047204603F04D
:1039C00041B801217268814000EB800011437160B1
:1039D0007047828002EB413100EE101A8160B8EE30
:1039E000C00A20EE010A80ED030A704790ED014AFB
:1039F00090ED003A90ED025A24EE022A00EE032ADE
:103A0000704710EE100AFCF7E8BD016841F00201B2
:103A10000160006800F0020000907047002084F808
:103A2000940410BDC0F8041800207047044690F8B4
:103A3000340001287047026802EB0112D2F8B82165
:103A40007047012084F8460084F83E0084F83F0067
:103A500084F8400084F8410084F8420084F8430070
:103A600084F8440084F8450084F83D00002010BD2F
:103A70000299404603F07CBB251D284603F05EB941
:103A80000A8813BA1A0C0280498809BA090C4180C5
:103A90008188C1EB13410BB2B3F57A6F70478DF893
:103AA0000120120AADF802308DF80020CA6849885A
:103AB00012BA7047016841F0010101607047016866
:103AC00051E8051F026821F0010142E80513002BAF
:103AD0007047616907EB800081427047204603F020
:103AE0002DB9816801F007010629704764216FF044
:103AF0006303B0FBF1F202FB0300322370470122A3
:103B000000F008BD204600F07FBE3A463346FCF781
:103B100053BCDAF8000002F06FBBB06800F00C0094
:103B2000082870472068016841F001010160FEF734
:103B3000C3B8204602F03EBF4FF08051016070478D
:103B4000B1F9042041F288339A427047002084F88A
:103B50003C0020467047B4EE4B0AB0EE4B1AF1EE33
:103B600010FA7047012084F8940420687047009987
:103B7000013100910099B1F1706F7047606A40F4B3
:103B800000306062052084F820007047242084F80B
:103B900041002068C16821F40051C160204600F056
:103BA00065BE044603F080B94DF808ED2046FFF7E6
:103BB00011FB20465DF808EBFFF78CBB2068B0F1E5
:103BC000804F7047B0EE481AB4EE480AF1EE10FA92
:103BD0007047002084F89404B0BD1C6844F0006471
:103BE0001C601C6844F080441C60704700F1240194
:103BF00001204FF48022704750E8050F216820F023
:103C0000800041E80502002A7047044603F04CB9E1
:103C100001EB8000294603F0FEB8044690F83D0011
:103C2000002870470D4601204FEAB201032984F8AD
:103C30003C0070472046FFF707BAB4EE4A0AB0EEE0
:103C40004A1AF1EE10FA7047DAF80000416970473D
:103C500004FA03F3D0F81C482343C0F81C3870471B
:103C600041E80302002A7047284603F035BF294681
:103C700003F0D1B80262B8428C68D1F800C0456840
:103C80007047044690F83C0001287047B0EE491A8E
:103C9000B4EE490AF1EE10FA7047090600EBC001D4
:103CA00004EB810170474161C16841F40051C1607A
:103CB00000202021606484F8411084F84210606381
:103CC00010BD00EB800152F821100029704701213E
:103CD000206884F89414C16849067047002084F86D
:103CE00040002046FFF7A2BB3168C96A884270478E
:103CF000C9F83800D9F8380070470220211D84F82F
:103D00003D00206800F096BB0A5842F000620A505D
:103D10000A5842F080420A5042F21072704741F451
:103D20000041416440F480619142704700EB8000A3
:103D30001143704790ED062A90ED035A30EEC00A09
:103D400090ED041A80ED040A30EE026AB1EE454AA5
:103D500080ED051AB4EE456AB0EE463A80ED066A8B
:103D6000F1EE10FAC8BFB0EE453AB4EE443AB0EE08
:103D7000432AF1EE10FAB4EE456AB8BFB0EE442A19
:103D8000F1EE10FA04DCB4EE443AF1EE10FA01DA86
:103D900080ED062A7146FFF729FE8E4630EE410A75
:103DA00000EE052A80ED072A704790ED052A30EED7
:103DB000C00A90ED035A80ED040A30EE026AB1EEBB
:103DC000454AB4EE456AB0EE463A80ED056AF1EE3A
:103DD00010FAC8BFB0EE453AB4EE443AB0EE432A0A
:103DE000F1EE10FAB4EE456AB8BFB0EE442AF1EE37
:103DF00010FA04DCB4EE443AF1EE10FA01DA80ED88
:103E0000052A7146FFF7F2FD8E4605EE012A80ED88
:103E1000062A704788B003F06BFDB34C0790B04D95
:103E2000B64EB04F9FEDB18ADFF8CC929FEDB49AB9
:103E3000DFF8DCB29FEDB3AA9FEDADBA04F120002C
:103E400006F1600805F14C0A069004F14000059067
:103E500004F16000049005F14400039006F1200095
:103E6000029006F140000190B7F90200D5ED020A78
:103E700000EE100A2046FFF767FD94ED070A704632
:103E8000FFF7A0FE864604DB7046FFF764FE864619
:103E900003DDB0EE410A84ED071ABDEEC00AD5ED90
:103EA000030A10EE100AA5F84400B7F92A0000EE44
:103EB000100A0698FFF748FD94ED0F0A7046FFF7C9
:103EC00081FE864604DB7046FFF745FE864603DD2D
:103ED000B0EE410A84ED0F1ABDEEC00AD5ED040A1A
:103EE00010EE100AA5F84600B7F9520000EE100ACD
:103EF0000598FFF729FD94ED170A7046FFF762FE5B
:103F0000864604DB7046FFF726FE864603DDB0EEEC
:103F1000410A84ED171ABDEEC00AD5ED050A10EE70
:103F2000100AA5F84800B7F97A0000EE100A0498C4
:103F3000FFF70AFD94ED1F0A7046FFF743FE864621
:103F400004DB7046FFF707FE864603DDB0EE410A4C
:103F500084ED1F1ABDEEC00A039A4FF4007110EEF3
:103F6000100AA5F84A006348FFF7CEFCB9F9320001
:103F7000D5ED060A00EE100A0298FFF7E5FC96ED73
:103F80000F0A7046FFF782FE864604DB7046FFF795
:103F900054FE864603DDB0EE410A86ED0F1ABDEEF3
:103FA000C00AD5ED070A10EE100AA5F84E00B9F9BF
:103FB000420000EE100A0198FFF7C6FC96ED170AC2
:103FC0007046FFF763FE864604DB7046FFF735FE5A
:103FD000864603DDB0EE410A86ED171ABDEEC00A33
:103FE000D5ED080A10EE100AA5F85000B9F95200F4
:103FF00000EE100A4046FFF7A7FC96ED1F0A704638
:10400000FFF744FE864604DB7046FFF716FE864641
:1040100003DDB0EE410A86ED1F1ABDEEC00A4FF473
:104020000071524610EE100AA5F852003648FFF70C
:104030006BFC364A686D696E526B00F0A3F800EEB7
:10404000100A6866D9F80000D9F82810F8EEC00AFE
:10405000081A00EE100AB9F92200B8EEC00A01EE03
:10406000100A5846B8EEC11AFFF79FFEDBED060AAC
:10407000B0EE490AF4EE490AF1EE10FA06DBF4EE6E
:104080004A0AB0EE4A0AF1EE10FA03DDF0EE400AF9
:104090008BED060AB9F9220000EE100A3046FFF750
:1040A00053FC96ED070A7046FFF7F0FD864604DBE9
:1040B0007046FFF7C2FD864603DDB0EE410A86ED8D
:1040C000071ABDEEC00A10EE100AA5F84C00012038
:1040D00002F090FF07A8022102F0ACFFC4E600BF87
:1040E000200400207C230020B4010020000080C6B2
:1040F00000008046C81C00202C0500203401002050
:1041000000401CC600401C46F01C0020040000209B
:10411000C4000020000000000000000000000000BB
:10412000EFF30980BFF36F8F154B1A681EF0100F65
:1041300008BF20ED108A20E9F04F10602DE909003A
:104140004FF0500080F31188BFF34F8FBFF36F8F94
:1041500003F0A4F84FF0000080F31188BDE80900D7
:1041600019680868B0E8F04F1EF0100F08BFB0ECF7
:10417000108A80F30988BFF36F8F704700BF00BFBC
:1041800080030020401A00EE100A0128B8EEC00A91
:104190000BDB01EE102AB8EEC11AB4EE410AF1EEC3
:1041A00010FAC4BF501870470BE0504201EE100ADD
:1041B000B8EEC11AB4EE410AF1EE10FABCBF881A8B
:1041C000704701EE101AB8EEC11A31EE000ABDEECA
:1041D000C00A10EE100A7047401A00EE100A0128BB
:1041E000B8EEC00A0BDB01EE102AB8EEC11AB4EE2D
:1041F000410AF1EE10FAC4BF501870470BE050426C
:1042000001EE100AB8EEC11AB4EE410AF1EE10FA4E
:10421000BCBF881A704701EE101AB8EEC11A31EE11
:10422000000ABDEEC00A10EE100A7047B0B5084C87
:10423000084D202101222046A847204610210122B6
:10424000A8472046402101222B46BDE8B040184730
:1042500000000240AF1C0008B0B50A8815BA2C0C4B
:1042600004804A8812BA130C43808A8812BA120C4E
:104270008280897981718189C1EB15410DB2B5F5D3
:104280007A6F02DDC189013904E0C18915F57A6FC1
:1042900001DA0131C18109B29FED181A90ED082AA7
:1042A00090ED093A848104EB413100EE101A01616E
:1042B00019B2B8EEC00A04EE101A11B220EE010ACB
:1042C00090ED071A05EE101AB8EEC44A80ED050A03
:1042D00090ED060AB8EEC55A21EE041A20EE040A43
:1042E00021EE051A00EE041A22EE050A00EE051A68
:1042F00033EE010A80ED020AB0BD00BF0000343D7C
:10430000074B19680868B0E8F04F80F30988BFF3DD
:104310006F8F4FF0000080F31188704700BF00BF1F
:1043200080030020008870478180406900210022BE
:10433000002303F0B3B8FFF7AFFA02F08DFC0020C2
:1043400002F0BCFE012002F07FF9FBE780B54FF0E0
:10435000500080F31188BFF36F8FBFF34F8F03F0CE
:10436000CBFA18B103484FF080510160002080F370
:10437000118880BD04ED00E0B0B592B00024142196
:10438000CDE90A44CDE9084401A8FBF763FF2048C2
:1043900000940225016841F080510160006800F03E
:1043A00080500090009800941A48016841F48041C0
:1043B0000160006800F48040009007201095119083
:1043C0004FF4A8700F9019200E904FF48000CDE9A3
:1043D0000C504FF48030079001200690009806A8FA
:1043E000FEF7F2FB08B172B6FEE74FF48050CDE95C
:1043F0000254052105904FF4A05004900F20019025
:1044000001A8FEF7EFFA08B172B6FEE712B0B0BD30
:1044100040380240007000400248016841F47001D9
:104420000160704788ED00E00148FEF70EBE00BF56
:10443000A422002070B52D4A0368904218BFB0F145
:10444000804F45D14C6823F070032343904220D025
:10445000B0F1804F1DD0264CA0421AD0254CA0426E
:1044600017D0254CA04214D0244CA04211D0244C8B
:10447000A0420ED0234CA0420BD08A4CA04208D0C0
:10448000214CA04205D0214CA04202D0204CA04299
:1044900003D1CC6823F4407323434E6923F0800397
:1044A0000C688D68334390420360C562846203D018
:1044B00002F58062904201D10969016301214161E5
:1044C0000169C90703D0016921F00101016170BDD3
:1044D000074CA042B6D0074CA042B3D0714CA042CA
:1044E000B0D0054CA042ADD0B2E700BF0000014003
:1044F0000004004000080040000C0040001800408C
:10450000001C0040002000400040014000480140E5
:104510000044014010B501F01F010123046A8B40E3
:1045200002FA01F124EA03030362026A1143016201
:1045300010BD0000F0B5036A026A5A4E22F0010273
:1045400023F00203A6F5806702628C68D1F800C0F0
:10455000456823438469B84218BFB04210D1CA6885
:1045600023F00C0322F004021343B84218BFB042F8
:1045700006D125F44072D1E905562A4342EA0605E0
:1045800024F07302456042EA0C028261496841638B
:104590000362F0BDF0B5036A026A424E22F01002D7
:1045A000A6F5806723F02003FFF764FBD0F818E03E
:1045B00018BFB04243EA041313D1CA686FF0400435
:1045C00023F0C00304EA02121343B84218BFB042FA
:1045D00007D1D1E9052425F4406545EA820242EA83
:1045E00084052EF4E642456042EA0C228261496865
:1045F00081630362F0BD00BFF0B5036A026A294E11
:1046000022F48072A6F5806723F40073FFF732FB73
:10461000D0F81CE018BFB04243EA042313D1CA68A3
:1046200040F2FF4423F440631202A2431343B84212
:1046300018BFB04207D1D1E9052425F4405545EA19
:10464000021242EA04152EF07302456042EA0C029F
:10465000C2614968C1630362F0BD00BFF0B5D0F824
:1046600020C0036A0F4A40F4806723F480539742C6
:10467000036245680C688B68C66904D14A6925F4F1
:10468000804545EA821526F4E642456042EA042266
:10469000C261496801642CF4005141EA03310162AE
:1046A000F0BD00BF00040140B0B51C4800680168BF
:1046B000C90631D5C068C0062ED5184D2846FEF76C
:1046C00070FE174C284623222146FEF705FFA379EA
:1046D000A07EE17E227F372B01D0302B1CD1114DE3
:1046E00002EB8203202A05EB430308BF6FF02F0380
:1046F000627F1A44642311FB032320290A4918BF4F
:10470000A3F5965220280A8006D04FF47A7310FB46
:10471000032000F589400880B0BD00BF342300208D
:10472000C4600020F0FDFFFF2604002010B5846B5C
:104730002068416994F84120212A08D111F08001B4
:1047400005D00020E084204600F082F8206840690F
:1047500094F84210222906D110F0400003D0002026
:10476000E085FFF7CFF9606C40F0100060642046F0
:10477000BDE81040FEF742BE0168806B0968C905BC
:104780002CD40021C185016851E8031F026821F47F
:10479000807142E80313002BF5D14DF808EDFFF7C7
:1047A0008EF95DF808EBF8D1016851E8051F026841
:1047B00021F0400142E80513002BF5D1202180F8BB
:1047C0004210016B012909D1016851E8031F0268F9
:1047D00021F0100142E80313002BF5D100214163C1
:1047E000016B012918BFFEF788BE818DFEF7D8BD89
:1047F000806B01214163016B012918BFFEF77EBE6A
:10480000818D4908FEF7CCBD016851E8031F02689D
:1048100021F4907142E80313002BF5D14DF808ED17
:10482000FFF74DF95DF808EBF8D1016B012909D1CB
:10483000016851E8031F026821F0100142E80313E8
:10484000002BF5D1202180F8421000210163704730
:10485000016851E8031F026821F0C00142E8031318
:10486000002BF5D1202180F841107047B0B50446E7
:10487000006804F108030ECB056925F4405519437F
:104880002A4349F20C650261C26863691943E3690E
:10489000AA4319431143C1604169A26921F44071DF
:1048A000114341611B4940F48060884202D1FEF708
:1048B0004DF901E0FEF740F9E26919216368A0FBB8
:1048C0000101B2F5004F10D15A00DB0FFBF778FC65
:1048D000FFF70CF903EBC000B0FBF1F14FF4F870F7
:1048E00000EA410001F007010DE09A009B0FFBF781
:1048F00067FCFFF7FBF803EB0010B0FBF1F101F0F0
:10490000F00001F00F0100EB0210084321688860FD
:10491000B0BD00BF00140140F8B5134600250446A1
:104920001D4E0A461E4F456483858162222084F80D
:104930004200E06B2168C0E91365184E0431C0E9FC
:104940000F76FDF799F8009520680168009141689D
:1049500000910099216949B150E8030F216840F4A2
:104960008070FFF77DF901D02068F5E7206850E8F6
:10497000050F216840F0010041E80502002AF5D149
:10498000206850E8050F216840F0400041E805022A
:10499000002AF5D10020F8BD2D470008F147000896
:1049A00079470008B0B5D0F8D42200EB8202D2F8E3
:1049B000C03233B301F00F058C4605EB850100EBE7
:1049C000810151F8184F64B1D0F8C8E205EBC50574
:1049D0000EEB8505D5F81CE0B4FBFEF505FB1E4586
:1049E0008DB10024C3F81442D2F8C402056935B170
:1049F000D3F8080203F504716246A8470024204654
:104A0000B0BD0320B0BD00240C606146002200232D
:104A100000F026FE2046B0BDB0B50446D0F8D40262
:104A200004EB8000D0F8C05295B1204600F0F0FCB5
:104A3000D4F8D412C5F80C0204EB8101D1F8C412E9
:104A4000D5F80402CA6805F5037190470020B0BD8F
:104A50000320B0BD70B58121044600F029FC00257B
:104A600020460121258700F023FC20468221A4F85E
:104A7000785100F01DFCD4F8D402E56404EB80000A
:104A8000D0F8C01289B1D0F8C40240688047D4F889
:104A9000D40204F5307656F8200000F0FDFFD4F87B
:104AA000D40246F82050C4F8BC52002070BD00006B
:104AB00010B5D0F8D41200EB8100D0F8C04284B118
:104AC000D0F8C41279B194F80002FF280BD08B689B
:104AD00094F8012221469847FF2084F80002002024
:104AE00010BD032010BD002010BD0000014640F2A3
:104AF000B4200A22C2F200000A807047F0B581B0EB
:104B000040F27027C2F2000704463846822100F0C6
:104B100029FB06463846012100F024FB05463846AD
:104B2000812100F01FFB002E1CBF1021B171002D50
:104B30001CBF4021A98000281CBF40218180432147
:104B400040F27020C2F20000218001B0F0BD0000F0
:104B5000F0B581B040F27027C2F200070446384633
:104B6000822100F0FFFA06463846012100F0FAFAE9
:104B700005463846812100F0F5FA002E1CBF1021B1
:104B8000B171002D1CBF4FF40071A98000281CBF1B
:104B90004FF400718180432140F27020C2F2000086
:104BA000218001B0F0BD0000F0B581B040F2702767
:104BB000C2F2000704463846822100F0D3FA0646C6
:104BC0003846012100F0CEFA05463846812100F032
:104BD000C9FA002E1CBF1021B171002D1CBF40214D
:104BE000A98000281CBF40218180432140F2702011
:104BF000C2F20000218001B0F0BD00002DE9F041BB
:104C000004464FF4077000F049FF00284DD04FF4E0
:104C100007710546FBF71EFBD4F8D402402704EBCE
:104C20008000C0F8C052207CC4F8BC52002808BFE5
:104C30004FF400772046812102223B46022600F0F5
:104C40005BFC4FF001082046012102223B46A4F8FC
:104C5000388000F051FC1020A4F84E00204682213C
:104C600003220823A4F8788100F046FCD4F8D4028B
:104C70000027C5F8047204EB8000D0F8C402A4F841
:104C80004C8000688047C5F81472C5F81872D5F8D2
:104C900004223AB1207C90B120460121402300F04B
:104CA00037FC00263046BDE8F081D4F8D40200215C
:104CB00004EB8000C0F8C0120220BDE8F08120465D
:104CC00001214FF4007300F023FC0020BDE8F081C7
:104CD00080B5D0F8D41200EB8101D1F8C01271B1C7
:104CE00090F810C0D1F8042240230121BCF1000F3C
:104CF00008BF4FF4007300F00BFC002080BD0320C0
:104D000080BD000000290FBF0320D0F8D42200EBA3
:104D10008200C0F8C41218BF00207047D0F8D42217
:104D200000EB8200D0F8C00200280EBF0320C0F8BC
:104D30000412002070470000D0F8D43200EB83004A
:104D4000D0F8C00200280FBF0320C0F80812C0F836
:104D5000102200207047000070B582B00446D0F8E1
:104D6000D4020D4604EB8000D0F8C06200218DF81B
:104D70000710ADF80410C6B1297811F0600216D002
:104D8000202A2BD1EA88002A2ED0090635D468784B
:104D9000314686F800022046402A28BF402286F885
:104DA000012200F0A3F8002660E003265EE06878A8
:104DB0000B2844D80026DFE800F006594242424260
:104DC00042424242303C94F89C0203283DD101A962
:104DD0002046022200F0A4F8002647E0204629469B
:104DE00000F07AF8032641E0D0F8C402294683682F
:104DF000687800220026984738E0D0F8C40231468F
:104E0000836868789847EA8820463146072A28BF91
:104E1000072200F085F8002628E094F89C02032879
:104E200019D10DF107012046012200F079F8002682
:104E30001CE094F89C02032813D1002616E02046BB
:104E4000294600F049F8032610E02046294600F0E4
:104E500043F803260AE02046294600F03DF80326E1
:104E600004E02046294600F037F80326304602B019
:104E700070BD000080B5D0F8B82252689047002875
:104E800018BF032080BD000080B590F89C22013A35
:104E9000022A09D84988012918BF80BD0021C0F81D
:104EA000A41200F04BF880BD00F016F880BD0000A1
:104EB000002070470020704780B513460A46002145
:104EC00000F026FB002080BD80B513460A46002175
:104ED00000F0C6FB002080BD10B58021044600F024
:104EE000A1FB2046002100F09DFB10BD80B51346BC
:104EF0000A460321C0F894120021C0E9563300F09D
:104F000007FB002080BD000080B50521C0F8941289
:104F100000210022002300F0FBFA002080BD0000E9
:104F200080B513460A460221C0F894120021C0E958
:104F3000063300F095FB002080BD000080B5042101
:104F4000C0F8941200210022002300F089FB002009
:104F500080BD000010B540F2C854C2F200040A46F9
:104F600002A0214600F054F9204610BD43444320DE
:104F7000436F6E666967000040F2C0201222C2F2E1
:104F800000000A807047000010B540F2C854C2F219
:104F900000040A4602A0214600F03AF9204610BD5E
:104FA00043444320496E7465726661636500000086
:104FB00040F2E8200422C2F200000A80704700009C
:104FC00010B540F2C854C2F200040A4602A02146BD
:104FD00000F01EF9204610BD53544D6963726F6591
:104FE0006C656374726F6E696373000010B540F294
:104FF000C854C2F200040A4602A0214600F008F993
:10500000204610BD53544D33322056697274756179
:105010006C20436F6D506F727400000040F2EC2002
:105020001A22C2F200000A807047000080B5C988C9
:10503000012910D190F89C124A1E022A04D20022A3
:10504000014641F8082F02E0032904D1011D012285
:10505000FFF766FF80BDFFF73FFF80BDB0B582B0B0
:10506000044648880D464FF0FF3101EB1021002225
:105070000629ADF8062061D8DFE801F004140860C5
:1050800060212A00D4F8B402026841E0C0B20528C9
:1050900054D8DFE800F003292D313539D4F8B402B3
:1050A000426834E0217CD4F8B80200290CBF816A40
:1050B000C16A0DF1060088470146022012E0207CFB
:1050C000E0BBD4F8B802416B0DF10600884723E03D
:1050D000207C98BBD4F8B802016B0DF1060088471C
:1050E00001460720487018E0D4F8B40282680EE048
:1050F000D4F8B402C2680AE0D4F8B402026906E047
:10510000D4F8B402426902E0D4F8B4028269AAB1C8
:10511000207C0DF10601904701460120A8B1EA88E4
:10512000AAB1BDF80600B8B1904238BF0246204689
:10513000ADF80620FFF7F4FE02B0B0BD2046FFF741
:10514000CBFE002100200028E9D102B0B0BD2046EE
:10515000FFF7F4FE02B0B0BD2046FFF7BDFE02B07F
:10516000B0BD000070B582B004464288007882422B
:105170001AD90D466188ADF80600814214D90DF1A7
:105180000606204605E000BFBDF806106288914281
:105190000AD2314600F01CF841780529F4D1817813
:1051A000A942F1D102B070BD002002B070BD000074
:1051B000017849B1411E00208A780130002A01F1AE
:1051C0000101F9D1C0B270470020C0B270470000A1
:1051D00002780B88104413440B80704780B590F818
:1051E0009C22013A022A0FD8C98802290CD1D0F892
:1051F000A4120322002908BF0122014641F80C2F06
:105200000222FFF78DFE80BDFFF766FE80BD000025
:1052100070B5F0B1164605460C46FFF7C9FF0221EE
:1052200001EB400030802070032060702878002857
:1052300008BF70BD691E0222002300BFD6B2A05570
:1052400046F00100235488780232002801F1010160
:10525000F4D170BD032884BF0320704740F20031B1
:10526000C000C0F2013121FA00F0C0B27047000066
:10527000002804BF0320704780B50023C0F8B8326F
:10528000C0F8C4320029C0F8D03218BFC0F8B41238
:10529000012180F89C12027000F0C0F880BD00006F
:1052A00080B5D0F8C802FCF750FEFFF7D3FF80BDF1
:1052B00080B5D0F8C802FCF72BFEFFF7CBFF80BD0E
:1052C000B0B5044689B194F89C0203284FD1D4F8B4
:1052D000B8024269002A4AD00020C4F8D40220460D
:1052E0009047002808BF0020B0BDD4F894020228DF
:1052F00036D1D4E9071081420DD90B1A2046114648
:105300001A46E361FFF7E0FD20460021002200235A
:1053100000F0FEF824E00FD1A16981420CD3D4F84B
:105320009802814208D22046002100220025FFF782
:10533000CBFDC4F89852E7E794F89C02032808D103
:10534000D4F8B802C16821B10020C4F8D4022046C4
:1053500088472046802100F065F92046FFF7D4FDFC
:1053600094F8A00200281CBF002084F8A0020020AE
:10537000B0BD000010B5044669B194F89C02032842
:105380001DD1D4F8B80282690020CAB1C4F8D40291
:105390002046904714E0D4F89402032824D1D4E99D
:1053A0005703984210D9C01AC4F85C01984238BF1C
:1053B0000346204611461A46FFF77EFD14E0002002
:1053C000002808BF002010BD94F89C02032808D1D3
:1053D000D4F8B802016921B10020C4F8D4022046F3
:1053E00088472046FFF7AAFD002010BD0020704727
:1053F00080B5012180F89C12D0F8B81231B14A680A
:1054000001799047002818BF032080BD002080BD8F
:1054100080B5D0F8C802FCF7BEFD80BD10B501789C
:1054200009B1002010BD41F67851C2F20001C1F867
:10543000E004C0F8C8124FF0A040086004200871D2
:105440004FF40070C8800220C1F809000020C88114
:105450000846FDF7BDF9002818BFFBF7EFFC41F641
:105460007854C2F2000420468021FCF7F6FC204666
:1054700000214022FCF7F5FC204601218022FCF7A8
:10548000F0FC002010BD0000D0F8C80201F07F023F
:1054900002EBC20200EB820000F11602090658BFBF
:1054A00000F256221078704780B5D0F8D42200EB75
:1054B0008202D2F8B82242B190F89C32032B02D17A
:1054C000126A02B19047002080BD032080BD000019
:1054D00080B5D0F8D42200EB8202D2F8B82242B1D3
:1054E00090F89C32032B02D1526A02B190470020FF
:1054F00080BD032080BD000080B59446D0F8C8026E
:105500001A466346FCF750FDFFF7A4FE80BD00007D
:1055100080B5D0F8C802FCF76DFDFFF79BFE80BD9B
:10552000F0B581B00126002580F89C62C0F8945245
:1055300004464560D0F8B802C4F8A45284F8A052DA
:1055400050B142683AB120460021904705460028F4
:1055500018BF032500E0002520460021002240233B
:105560004027FFF7C9FF2046802100224023A4F8EE
:105570006461C4F86071FFF7BFFFA6842846276204
:1055800001B0F0BD90F89C12042904BF90F89D1260
:1055900080F89C120020704780B590F89C12032977
:1055A00006D1D0F8B81219B1C969002918BF8847C7
:1055B000002080BD024600201174704780B5D0F8ED
:1055C000C802FDF7C7F9FFF745FE80BDB0B500F290
:1055D000AA250446284600F04BF80120C4F894029E
:1055E00094F8AA02B4F8B02200F01F010229C4F80E
:1055F000982207D001290AD071B92046294600F027
:1056000011F9B0BD2046294600F048F9B0BD20464A
:10561000294600F003FAB0BD00F08001204600F0FA
:1056200001F8B0BD80B5D0F8C802FCF7FFFCFFF769
:1056300011FE80BD80B5D0F8C802FDF7A2F9FFF7D2
:1056400009FE80BD014690F89C02042204281CBF7C
:1056500091F89C0281F89D02002081F89C227047FD
:1056600080B5D0F8C802FCF715FDFFF7F3FD80BD4B
:10567000B0B50C4609780546017060786870A01CCA
:10568000FEF750FE6880201DFEF74CFEA880A01D8E
:10569000FEF748FEE880B0BD10B582B00446002099
:1056A000ADF80600B1B1D4F8D42204F52E70C4F8D8
:1056B000B81250F82200C16A21B10DF106008847E6
:1056C000C4F8D002D4F8D8020130C4F8D8020020BF
:1056D00002B010BD032002B010BD0000B0B58A8832
:1056E000044642B9C88830B948887F2803D894F85E
:1056F0009C12032903D12046FFF7EEFBB0BD00F05A
:105700007F052046294684F89E52FFF757FF204622
:10571000FFF714FC002D14BF0220012084F89C0226
:10572000B0BD000080B5D0F8B82212B11268904721
:1057300080BD002080BD0000B0B50446488840F21E
:10574000C455C2F2000510F0FE0F287004D02046A8
:10575000FFF7C2FB0320B0BD94F89C22C1B2032A1C
:105760000CD0022A22D189B320466160FFF7DAFF0C
:10577000054680B32046FFF7AFFB15E0F9B160683E
:10578000884223D0C1B22046FFF774FB2978204617
:105790006160FFF7C7FF054628B32046FFF79CFB73
:1057A00021792046FFF766FB022018E02046FFF72C
:1057B00093FB29782046FFF75DFB0320B0BD022054
:1057C00084F89C0220466160FFF754FB2046FFF7F7
:1057D000B5FB0020B0BD2046FFF7B0FB032084F8E6
:1057E0009C022846B0BD2046FFF7A8FB2846B0BD66
:1057F00080B54A88022A07D0012A0BD10121C0F8BE
:10580000A412FFF79BFB80BD497980F8A012FFF737
:1058100095FB80BDFFF760FB80BD000080B5FFF702
:1058200009FF80BD80B50A7812F060020CD0402AD2
:1058300001D0202A16D1D0F8D42200EB8202D2F86F
:10584000B8229268904780BD4A78092A0AD8DFE8D2
:1058500002F0050D091109152009191DFFF7BEFCFD
:10586000002080BDFFF738FB002080BDFFF70CFB58
:10587000002080BDFFF7BCFF002080BDFFF72EFF9A
:10588000002080BDFFF7D2FB002080BDFFF754FF52
:1058900080BDFFF7E3FB002080BD000070B50E4621
:1058A0000978357911F0600104460CD0402901D007
:1058B000202922D120462946FFF7FAFA4FF00005A9
:1058C000F8B1284670BD707830B3012842D0032863
:1058D00072D194F89C02032840D1708848B945F0F1
:1058E0008000802805D0F08818B920462946FFF7A7
:1058F00099FE2046FFF722FB61E02046FFF7ECFA15
:105900005DE0D4F8B802C4F8D4528268002AD8D036
:1059100020463146904770BD94F89C0203282CD055
:10592000022849D145F08000802845D105F07F004C
:1059300000EB800004EB800000F114012A0658BF40
:1059400000F5AA710025204602220D60FFF7E8FA53
:10595000284670BD94F89C02032833D002282BD12E
:1059600045F08000802827D020462946FFF75AFEC0
:1059700020468021FFF756FE21E005F00F0101EBE4
:10598000810115F0800004EB810114BF898CB1F80E
:10599000641189B105F07F0101EB810104EB810104
:1059A00001F11406002845F0800008BF01F5AA7631
:1059B000802825D100202AE02046FFF78DFA002517
:1059C000284670BD70880028F9D1680603D02046AB
:1059D0002946FFF765FC2046FFF7B0FA2046294626
:1059E000FFF766FA00284FF000057FF46AAFD4F89D
:1059F000B802C4F8D4528268002A7FF489AF60E705
:105A000020462946FFF740FD0028D3D00120306012
:105A1000204631460222FFF783FAD0E770B50D46E3
:105A20000978044611F0600118BF40290ED194F89E
:105A30009C020138022803D8A88810F0FE0F0DD070
:105A40002046FFF749FA0026304670BD2029EED0E7
:105A50002046FFF741FA0026304670BDC1B220460D
:105A6000FFF728FA10B1032676B1F5E7D4F8B802AB
:105A70008268002AF7D00020C4F8D40220462946C4
:105A800090470646002EE7D1E8880028E4D120465A
:105A9000FFF754FA304670BD7047000040F2C870FE
:105AA000C2F2000070470000B0B50A784C7802F0EE
:105AB0000F03012C16D10124FEF7CAF8530100F59B
:105AC0001060C458240422D41C588D6809796FF3DF
:105AD000DF2545EA8252224342EA81410D4A1143C1
